{
  "abi": [
    {
      "type": "constructor",
      "inputs": [
        {
          "name": "previousSignersRetention_",
          "type": "uint256",
          "internalType": "uint256"
        },
        {
          "name": "domainSeparator_",
          "type": "bytes32",
          "internalType": "bytes32"
        },
        {
          "name": "minimumRotationDelay_",
          "type": "uint256",
          "internalType": "uint256"
        }
      ],
      "stateMutability": "nonpayable"
    },
    {
      "type": "function",
      "name": "acceptOwnership",
      "inputs": [],
      "outputs": [],
      "stateMutability": "nonpayable"
    },
    {
      "type": "function",
      "name": "approveMessages",
      "inputs": [
        {
          "name": "messages",
          "type": "tuple[]",
          "internalType": "struct Message[]",
          "components": [
            {
              "name": "sourceChain",
              "type": "string",
              "internalType": "string"
            },
            {
              "name": "messageId",
              "type": "string",
              "internalType": "string"
            },
            {
              "name": "sourceAddress",
              "type": "string",
              "internalType": "string"
            },
            {
              "name": "contractAddress",
              "type": "address",
              "internalType": "address"
            },
            {
              "name": "payloadHash",
              "type": "bytes32",
              "internalType": "bytes32"
            }
          ]
        },
        {
          "name": "proof",
          "type": "tuple",
          "internalType": "struct Proof",
          "components": [
            {
              "name": "signers",
              "type": "tuple",
              "internalType": "struct WeightedSigners",
              "components": [
                {
                  "name": "signers",
                  "type": "tuple[]",
                  "internalType": "struct WeightedSigner[]",
                  "components": [
                    {
                      "name": "signer",
                      "type": "address",
                      "internalType": "address"
                    },
                    {
                      "name": "weight",
                      "type": "uint128",
                      "internalType": "uint128"
                    }
                  ]
                },
                {
                  "name": "threshold",
                  "type": "uint128",
                  "internalType": "uint128"
                },
                {
                  "name": "nonce",
                  "type": "bytes32",
                  "internalType": "bytes32"
                }
              ]
            },
            {
              "name": "signatures",
              "type": "bytes[]",
              "internalType": "bytes[]"
            }
          ]
        }
      ],
      "outputs": [],
      "stateMutability": "nonpayable"
    },
    {
      "type": "function",
      "name": "callContract",
      "inputs": [
        {
          "name": "destinationChain",
          "type": "string",
          "internalType": "string"
        },
        {
          "name": "destinationContractAddress",
          "type": "string",
          "internalType": "string"
        },
        {
          "name": "payload",
          "type": "bytes",
          "internalType": "bytes"
        }
      ],
      "outputs": [],
      "stateMutability": "nonpayable"
    },
    {
      "type": "function",
      "name": "contractId",
      "inputs": [],
      "outputs": [
        {
          "name": "",
          "type": "bytes32",
          "internalType": "bytes32"
        }
      ],
      "stateMutability": "pure"
    },
    {
      "type": "function",
      "name": "domainSeparator",
      "inputs": [],
      "outputs": [
        {
          "name": "",
          "type": "bytes32",
          "internalType": "bytes32"
        }
      ],
      "stateMutability": "view"
    },
    {
      "type": "function",
      "name": "epoch",
      "inputs": [],
      "outputs": [
        {
          "name": "",
          "type": "uint256",
          "internalType": "uint256"
        }
      ],
      "stateMutability": "view"
    },
    {
      "type": "function",
      "name": "epochBySignerHash",
      "inputs": [
        {
          "name": "signerHash",
          "type": "bytes32",
          "internalType": "bytes32"
        }
      ],
      "outputs": [
        {
          "name": "",
          "type": "uint256",
          "internalType": "uint256"
        }
      ],
      "stateMutability": "view"
    },
    {
      "type": "function",
      "name": "implementation",
      "inputs": [],
      "outputs": [
        {
          "name": "implementation_",
          "type": "address",
          "internalType": "address"
        }
      ],
      "stateMutability": "view"
    },
    {
      "type": "function",
      "name": "isCommandExecuted",
      "inputs": [
        {
          "name": "commandId",
          "type": "bytes32",
          "internalType": "bytes32"
        }
      ],
      "outputs": [
        {
          "name": "",
          "type": "bool",
          "internalType": "bool"
        }
      ],
      "stateMutability": "view"
    },
    {
      "type": "function",
      "name": "isContractCallApproved",
      "inputs": [
        {
          "name": "commandId",
          "type": "bytes32",
          "internalType": "bytes32"
        },
        {
          "name": "sourceChain",
          "type": "string",
          "internalType": "string"
        },
        {
          "name": "sourceAddress",
          "type": "string",
          "internalType": "string"
        },
        {
          "name": "contractAddress",
          "type": "address",
          "internalType": "address"
        },
        {
          "name": "payloadHash",
          "type": "bytes32",
          "internalType": "bytes32"
        }
      ],
      "outputs": [
        {
          "name": "",
          "type": "bool",
          "internalType": "bool"
        }
      ],
      "stateMutability": "view"
    },
    {
      "type": "function",
      "name": "isMessageApproved",
      "inputs": [
        {
          "name": "sourceChain",
          "type": "string",
          "internalType": "string"
        },
        {
          "name": "messageId",
          "type": "string",
          "internalType": "string"
        },
        {
          "name": "sourceAddress",
          "type": "string",
          "internalType": "string"
        },
        {
          "name": "contractAddress",
          "type": "address",
          "internalType": "address"
        },
        {
          "name": "payloadHash",
          "type": "bytes32",
          "internalType": "bytes32"
        }
      ],
      "outputs": [
        {
          "name": "",
          "type": "bool",
          "internalType": "bool"
        }
      ],
      "stateMutability": "view"
    },
    {
      "type": "function",
      "name": "isMessageExecuted",
      "inputs": [
        {
          "name": "sourceChain",
          "type": "string",
          "internalType": "string"
        },
        {
          "name": "messageId",
          "type": "string",
          "internalType": "string"
        }
      ],
      "outputs": [
        {
          "name": "",
          "type": "bool",
          "internalType": "bool"
        }
      ],
      "stateMutability": "view"
    },
    {
      "type": "function",
      "name": "lastRotationTimestamp",
      "inputs": [],
      "outputs": [
        {
          "name": "",
          "type": "uint256",
          "internalType": "uint256"
        }
      ],
      "stateMutability": "view"
    },
    {
      "type": "function",
      "name": "messageHashToSign",
      "inputs": [
        {
          "name": "signersHash",
          "type": "bytes32",
          "internalType": "bytes32"
        },
        {
          "name": "dataHash",
          "type": "bytes32",
          "internalType": "bytes32"
        }
      ],
      "outputs": [
        {
          "name": "",
          "type": "bytes32",
          "internalType": "bytes32"
        }
      ],
      "stateMutability": "view"
    },
    {
      "type": "function",
      "name": "messageToCommandId",
      "inputs": [
        {
          "name": "sourceChain",
          "type": "string",
          "internalType": "string"
        },
        {
          "name": "messageId",
          "type": "string",
          "internalType": "string"
        }
      ],
      "outputs": [
        {
          "name": "",
          "type": "bytes32",
          "internalType": "bytes32"
        }
      ],
      "stateMutability": "pure"
    },
    {
      "type": "function",
      "name": "minimumRotationDelay",
      "inputs": [],
      "outputs": [
        {
          "name": "",
          "type": "uint256",
          "internalType": "uint256"
        }
      ],
      "stateMutability": "view"
    },
    {
      "type": "function",
      "name": "operator",
      "inputs": [],
      "outputs": [
        {
          "name": "",
          "type": "address",
          "internalType": "address"
        }
      ],
      "stateMutability": "view"
    },
    {
      "type": "function",
      "name": "owner",
      "inputs": [],
      "outputs": [
        {
          "name": "owner_",
          "type": "address",
          "internalType": "address"
        }
      ],
      "stateMutability": "view"
    },
    {
      "type": "function",
      "name": "pendingOwner",
      "inputs": [],
      "outputs": [
        {
          "name": "owner_",
          "type": "address",
          "internalType": "address"
        }
      ],
      "stateMutability": "view"
    },
    {
      "type": "function",
      "name": "previousSignersRetention",
      "inputs": [],
      "outputs": [
        {
          "name": "",
          "type": "uint256",
          "internalType": "uint256"
        }
      ],
      "stateMutability": "view"
    },
    {
      "type": "function",
      "name": "proposeOwnership",
      "inputs": [
        {
          "name": "newOwner",
          "type": "address",
          "internalType": "address"
        }
      ],
      "outputs": [],
      "stateMutability": "nonpayable"
    },
    {
      "type": "function",
      "name": "rotateSigners",
      "inputs": [
        {
          "name": "newSigners",
          "type": "tuple",
          "internalType": "struct WeightedSigners",
          "components": [
            {
              "name": "signers",
              "type": "tuple[]",
              "internalType": "struct WeightedSigner[]",
              "components": [
                {
                  "name": "signer",
                  "type": "address",
                  "internalType": "address"
                },
                {
                  "name": "weight",
                  "type": "uint128",
                  "internalType": "uint128"
                }
              ]
            },
            {
              "name": "threshold",
              "type": "uint128",
              "internalType": "uint128"
            },
            {
              "name": "nonce",
              "type": "bytes32",
              "internalType": "bytes32"
            }
          ]
        },
        {
          "name": "proof",
          "type": "tuple",
          "internalType": "struct Proof",
          "components": [
            {
              "name": "signers",
              "type": "tuple",
              "internalType": "struct WeightedSigners",
              "components": [
                {
                  "name": "signers",
                  "type": "tuple[]",
                  "internalType": "struct WeightedSigner[]",
                  "components": [
                    {
                      "name": "signer",
                      "type": "address",
                      "internalType": "address"
                    },
                    {
                      "name": "weight",
                      "type": "uint128",
                      "internalType": "uint128"
                    }
                  ]
                },
                {
                  "name": "threshold",
                  "type": "uint128",
                  "internalType": "uint128"
                },
                {
                  "name": "nonce",
                  "type": "bytes32",
                  "internalType": "bytes32"
                }
              ]
            },
            {
              "name": "signatures",
              "type": "bytes[]",
              "internalType": "bytes[]"
            }
          ]
        }
      ],
      "outputs": [],
      "stateMutability": "nonpayable"
    },
    {
      "type": "function",
      "name": "setup",
      "inputs": [
        {
          "name": "data",
          "type": "bytes",
          "internalType": "bytes"
        }
      ],
      "outputs": [],
      "stateMutability": "nonpayable"
    },
    {
      "type": "function",
      "name": "signerHashByEpoch",
      "inputs": [
        {
          "name": "signerEpoch",
          "type": "uint256",
          "internalType": "uint256"
        }
      ],
      "outputs": [
        {
          "name": "",
          "type": "bytes32",
          "internalType": "bytes32"
        }
      ],
      "stateMutability": "view"
    },
    {
      "type": "function",
      "name": "timeSinceRotation",
      "inputs": [],
      "outputs": [
        {
          "name": "",
          "type": "uint256",
          "internalType": "uint256"
        }
      ],
      "stateMutability": "view"
    },
    {
      "type": "function",
      "name": "transferOperatorship",
      "inputs": [
        {
          "name": "newOperator",
          "type": "address",
          "internalType": "address"
        }
      ],
      "outputs": [],
      "stateMutability": "nonpayable"
    },
    {
      "type": "function",
      "name": "transferOwnership",
      "inputs": [
        {
          "name": "newOwner",
          "type": "address",
          "internalType": "address"
        }
      ],
      "outputs": [],
      "stateMutability": "nonpayable"
    },
    {
      "type": "function",
      "name": "upgrade",
      "inputs": [
        {
          "name": "newImplementation",
          "type": "address",
          "internalType": "address"
        },
        {
          "name": "newImplementationCodeHash",
          "type": "bytes32",
          "internalType": "bytes32"
        },
        {
          "name": "params",
          "type": "bytes",
          "internalType": "bytes"
        }
      ],
      "outputs": [],
      "stateMutability": "nonpayable"
    },
    {
      "type": "function",
      "name": "validateContractCall",
      "inputs": [
        {
          "name": "commandId",
          "type": "bytes32",
          "internalType": "bytes32"
        },
        {
          "name": "sourceChain",
          "type": "string",
          "internalType": "string"
        },
        {
          "name": "sourceAddress",
          "type": "string",
          "internalType": "string"
        },
        {
          "name": "payloadHash",
          "type": "bytes32",
          "internalType": "bytes32"
        }
      ],
      "outputs": [
        {
          "name": "valid",
          "type": "bool",
          "internalType": "bool"
        }
      ],
      "stateMutability": "nonpayable"
    },
    {
      "type": "function",
      "name": "validateMessage",
      "inputs": [
        {
          "name": "sourceChain",
          "type": "string",
          "internalType": "string"
        },
        {
          "name": "messageId",
          "type": "string",
          "internalType": "string"
        },
        {
          "name": "sourceAddress",
          "type": "string",
          "internalType": "string"
        },
        {
          "name": "payloadHash",
          "type": "bytes32",
          "internalType": "bytes32"
        }
      ],
      "outputs": [
        {
          "name": "valid",
          "type": "bool",
          "internalType": "bool"
        }
      ],
      "stateMutability": "nonpayable"
    },
    {
      "type": "function",
      "name": "validateProof",
      "inputs": [
        {
          "name": "dataHash",
          "type": "bytes32",
          "internalType": "bytes32"
        },
        {
          "name": "proof",
          "type": "tuple",
          "internalType": "struct Proof",
          "components": [
            {
              "name": "signers",
              "type": "tuple",
              "internalType": "struct WeightedSigners",
              "components": [
                {
                  "name": "signers",
                  "type": "tuple[]",
                  "internalType": "struct WeightedSigner[]",
                  "components": [
                    {
                      "name": "signer",
                      "type": "address",
                      "internalType": "address"
                    },
                    {
                      "name": "weight",
                      "type": "uint128",
                      "internalType": "uint128"
                    }
                  ]
                },
                {
                  "name": "threshold",
                  "type": "uint128",
                  "internalType": "uint128"
                },
                {
                  "name": "nonce",
                  "type": "bytes32",
                  "internalType": "bytes32"
                }
              ]
            },
            {
              "name": "signatures",
              "type": "bytes[]",
              "internalType": "bytes[]"
            }
          ]
        }
      ],
      "outputs": [
        {
          "name": "isLatestSigners",
          "type": "bool",
          "internalType": "bool"
        }
      ],
      "stateMutability": "view"
    },
    {
      "type": "event",
      "name": "ContractCall",
      "inputs": [
        {
          "name": "sender",
          "type": "address",
          "indexed": true,
          "internalType": "address"
        },
        {
          "name": "destinationChain",
          "type": "string",
          "indexed": false,
          "internalType": "string"
        },
        {
          "name": "destinationContractAddress",
          "type": "string",
          "indexed": false,
          "internalType": "string"
        },
        {
          "name": "payloadHash",
          "type": "bytes32",
          "indexed": true,
          "internalType": "bytes32"
        },
        {
          "name": "payload",
          "type": "bytes",
          "indexed": false,
          "internalType": "bytes"
        }
      ],
      "anonymous": false
    },
    {
      "type": "event",
      "name": "MessageApproved",
      "inputs": [
        {
          "name": "commandId",
          "type": "bytes32",
          "indexed": true,
          "internalType": "bytes32"
        },
        {
          "name": "sourceChain",
          "type": "string",
          "indexed": false,
          "internalType": "string"
        },
        {
          "name": "messageId",
          "type": "string",
          "indexed": false,
          "internalType": "string"
        },
        {
          "name": "sourceAddress",
          "type": "string",
          "indexed": false,
          "internalType": "string"
        },
        {
          "name": "contractAddress",
          "type": "address",
          "indexed": true,
          "internalType": "address"
        },
        {
          "name": "payloadHash",
          "type": "bytes32",
          "indexed": true,
          "internalType": "bytes32"
        }
      ],
      "anonymous": false
    },
    {
      "type": "event",
      "name": "MessageExecuted",
      "inputs": [
        {
          "name": "commandId",
          "type": "bytes32",
          "indexed": true,
          "internalType": "bytes32"
        }
      ],
      "anonymous": false
    },
    {
      "type": "event",
      "name": "OperatorshipTransferred",
      "inputs": [
        {
          "name": "newOperator",
          "type": "address",
          "indexed": false,
          "internalType": "address"
        }
      ],
      "anonymous": false
    },
    {
      "type": "event",
      "name": "OwnershipTransferStarted",
      "inputs": [
        {
          "name": "newOwner",
          "type": "address",
          "indexed": true,
          "internalType": "address"
        }
      ],
      "anonymous": false
    },
    {
      "type": "event",
      "name": "OwnershipTransferred",
      "inputs": [
        {
          "name": "newOwner",
          "type": "address",
          "indexed": true,
          "internalType": "address"
        }
      ],
      "anonymous": false
    },
    {
      "type": "event",
      "name": "SignersRotated",
      "inputs": [
        {
          "name": "epoch",
          "type": "uint256",
          "indexed": true,
          "internalType": "uint256"
        },
        {
          "name": "signersHash",
          "type": "bytes32",
          "indexed": true,
          "internalType": "bytes32"
        },
        {
          "name": "signers",
          "type": "bytes",
          "indexed": false,
          "internalType": "bytes"
        }
      ],
      "anonymous": false
    },
    {
      "type": "event",
      "name": "Upgraded",
      "inputs": [
        {
          "name": "newImplementation",
          "type": "address",
          "indexed": true,
          "internalType": "address"
        }
      ],
      "anonymous": false
    },
    {
      "type": "error",
      "name": "DuplicateSigners",
      "inputs": [
        {
          "name": "signersHash",
          "type": "bytes32",
          "internalType": "bytes32"
        }
      ]
    },
    {
      "type": "error",
      "name": "InsufficientRotationDelay",
      "inputs": [
        {
          "name": "minimumRotationDelay",
          "type": "uint256",
          "internalType": "uint256"
        },
        {
          "name": "lastRotationTimestamp",
          "type": "uint256",
          "internalType": "uint256"
        },
        {
          "name": "timeElapsed",
          "type": "uint256",
          "internalType": "uint256"
        }
      ]
    },
    {
      "type": "error",
      "name": "InvalidCodeHash",
      "inputs": []
    },
    {
      "type": "error",
      "name": "InvalidImplementation",
      "inputs": []
    },
    {
      "type": "error",
      "name": "InvalidMessages",
      "inputs": []
    },
    {
      "type": "error",
      "name": "InvalidOperator",
      "inputs": []
    },
    {
      "type": "error",
      "name": "InvalidOwner",
      "inputs": []
    },
    {
      "type": "error",
      "name": "InvalidOwnerAddress",
      "inputs": []
    },
    {
      "type": "error",
      "name": "InvalidS",
      "inputs": []
    },
    {
      "type": "error",
      "name": "InvalidSender",
      "inputs": [
        {
          "name": "sender",
          "type": "address",
          "internalType": "address"
        }
      ]
    },
    {
      "type": "error",
      "name": "InvalidSignature",
      "inputs": []
    },
    {
      "type": "error",
      "name": "InvalidSignatureLength",
      "inputs": []
    },
    {
      "type": "error",
      "name": "InvalidSigners",
      "inputs": []
    },
    {
      "type": "error",
      "name": "InvalidThreshold",
      "inputs": []
    },
    {
      "type": "error",
      "name": "InvalidV",
      "inputs": []
    },
    {
      "type": "error",
      "name": "InvalidWeights",
      "inputs": []
    },
    {
      "type": "error",
      "name": "LowSignaturesWeight",
      "inputs": []
    },
    {
      "type": "error",
      "name": "MalformedSignatures",
      "inputs": []
    },
    {
      "type": "error",
      "name": "NotLatestSigners",
      "inputs": []
    },
    {
      "type": "error",
      "name": "NotOwner",
      "inputs": []
    },
    {
      "type": "error",
      "name": "NotProxy",
      "inputs": []
    },
    {
      "type": "error",
      "name": "SetupFailed",
      "inputs": []
    }
  ],
  "bytecode": {
    "object": "0x610100604052348015610010575f80fd5b506040516127e23803806127e283398101604081905261002f916100f8565b608083905260a082905260c0819052600161004981610057565b50503060e052506101239050565b6001600160a01b03811661007e57604051633649397d60e21b815260040160405180910390fd5b6040516001600160a01b038216907f04dba622d284ed0014ee4b9a6a68386be1a4c08a4913ae272de89199cc686163905f90a27f02016836a56b71f0d02689e69e326f4f4c1b9057164ef592671cf0d37c8040c0555f7f9855384122b55936fbfb8ca5120e63c6537a1ac40caf6ae33502b3c5da8c87d155565b5f805f6060848603121561010a575f80fd5b5050815160208301516040909301519094929350919050565b60805160a05160c05160e0516126706101725f395f6108e601525f81816104c20152818161143b015261146d01525f81816104fc0152610ca201525f81816103ac0152610d7301526126705ff3fe608060405234801561000f575f80fd5b50600436106101dc575f3560e01c80638c212aa511610109578063e30c39781161009e578063f2fde38b1161006e578063f2fde38b146104e4578063f698da25146104f7578063f6a5f9f51461051e578063fd721b4714610531575f80fd5b8063e30c397814610482578063eb215f2814610496578063f10bfaa1146104aa578063f2213d37146104bd575f80fd5b80639ded06df116100d95780639ded06df1461041c578063a3499c731461042f578063cba5be6a14610442578063d26ff21014610455575f80fd5b80638c212aa5146103a75780638da5cb5b146103ce5780638f686dc4146103e2578063900cf0cf146103f5575f80fd5b8063570ca7351161017f5780636f9badf41161014f5780636f9badf414610328578063710bf3221461036657806379ba5097146103795780638291286c14610381575f80fd5b8063570ca735146102aa5780635c60da1b146102db5780635f6970c31461030257806364f1d85a14610315575f80fd5b806322c9eea8116101ba57806322c9eea8146102305780632fbceb4f1461027c578063377fff551461028f5780634a6a42d814610297575f80fd5b8063116399e4146101e05780631c92115f146102085780631d92c0bf1461021d575b5f80fd5b6101f36101ee36600461177a565b610544565b60405190151581526020015b60405180910390f35b61021b610216366004611801565b610558565b005b61021b61022b366004611a71565b6105c3565b61026e61023e366004611abe565b5f9081527f457f3fc26bf430b020fe76358b1bfaba57e1657ace718da6437cda9934eabfeb602052604090205490565b6040519081526020016101ff565b61026e61028a366004611ad5565b61065b565b61026e610693565b61021b6102a5366004611b3f565b6106b3565b5f805160206125c4833981519152546001600160a01b03165b6040516001600160a01b0390911681526020016101ff565b7f360894a13ba1a3210667c828492db98dca3e2076cc3735a920a3ca505d382bbc546102c3565b6101f3610310366004611b61565b61075e565b61021b610323366004611be0565b610778565b61026e610336366004611abe565b5f9081527f457f3fc26bf430b020fe76358b1bfaba57e1657ace718da6437cda9934eabfea602052604090205490565b61021b610374366004611b3f565b6107c1565b61021b610869565b7fd10cce6f0e3f6dc9eb8280c32952dc6e4759d0519c550c55d0f8747d13a64bfd61026e565b61026e7f000000000000000000000000000000000000000000000000000000000000000081565b5f805160206125e4833981519152546102c3565b6101f36103f0366004611c75565b6108b6565b7f457f3fc26bf430b020fe76358b1bfaba57e1657ace718da6437cda9934eabfe85461026e565b61021b61042a366004611d2d565b6108e3565b61021b61043d366004611d6b565b610936565b6101f3610450366004611ad5565b610bbc565b6101f3610463366004611abe565b5f9081525f805160206126048339815191526020526040902054151590565b5f80516020612644833981519152546102c3565b5f805160206126248339815191525461026e565b6101f36104b8366004611daa565b610bf3565b61026e7f000000000000000000000000000000000000000000000000000000000000000081565b61021b6104f2366004611b3f565b610c1e565b61026e7f000000000000000000000000000000000000000000000000000000000000000081565b6101f361052c366004611e4e565b610c5b565b61026e61053f366004611ee2565b610c77565b5f61054f8383610cf7565b90505b92915050565b8181604051610568929190611f02565b6040518091039020336001600160a01b03167f30ae6cc78c27e651745bf2ad08a11de83910ac1e347a52f7ac898c0fbef94dae8888888888886040516105b396959493929190611f39565b60405180910390a3505050505050565b5f6001836040516020016105d8929190612024565b6040516020818303038152906040528051906020012090505f6106055f805160206125c483398151915290565b546001600160a01b031633141590505f61061f8385610cf7565b905081801561062c575080155b1561064a576040516341f7d76160e11b815260040160405180910390fd5b6106548583610dec565b5050505050565b5f84848484604051602001610673949392919061204b565b604051602081830303815290604052805190602001209050949350505050565b5f80516020612624833981519152545f906106ae9042612088565b905090565b5f805160206125c48339815191525433906001600160a01b031681148015906106fc57505f805160206125e4833981519152546001600160a01b0316816001600160a01b031614155b1561072a576040516313053d9360e21b81526001600160a01b03821660048201526024015b60405180910390fd5b6001600160a01b0382166107515760405163ccea9e6f60e01b815260040160405180910390fd5b61075a82610eea565b5050565b5f61076d878787878787610f4b565b979650505050505050565b5f80848460405160200161078e939291906120dc565b6040516020818303038152906040528051906020012090506107b08183610cf7565b506107bb8484610fd2565b50505050565b336107d75f805160206125e48339815191525490565b6001600160a01b0316146107fe576040516330cd747160e01b815260040160405180910390fd5b6001600160a01b03811661082557604051633649397d60e21b815260040160405180910390fd5b6040516001600160a01b038216907fd9be0e8e07417e00f2521db636cb53e316fd288f5051f16d2aa2bf0c3938a876905f90a25f8051602061264483398151915255565b5f61087f5f805160206126448339815191525490565b90506001600160a01b03811633146108aa576040516349e27cff60e01b815260040160405180910390fd5b6108b381611032565b50565b5f806108c48a8a8a8a61065b565b90506108d5818b8b898989896110ad565b9a9950505050505050505050565b307f00000000000000000000000000000000000000000000000000000000000000006001600160a01b03160361092c57604051635f886e9d60e11b815260040160405180910390fd5b61075a82826110e8565b3361094c5f805160206125e48339815191525490565b6001600160a01b031614610973576040516330cd747160e01b815260040160405180910390fd5b7f360894a13ba1a3210667c828492db98dca3e2076cc3735a920a3ca505d382bbc546001600160a01b0316638291286c6040518163ffffffff1660e01b8152600401602060405180830381865afa1580156109d0573d5f803e3d5ffd5b505050506040513d601f19601f820116820180604052508101906109f491906121e1565b846001600160a01b0316638291286c6040518163ffffffff1660e01b8152600401602060405180830381865afa158015610a30573d5f803e3d5ffd5b505050506040513d601f19601f82011682018060405250810190610a5491906121e1565b14610a725760405163340aafcd60e11b815260040160405180910390fd5b836001600160a01b03163f8314610a9c576040516323e13ec960e21b815260040160405180910390fd5b7f360894a13ba1a3210667c828492db98dca3e2076cc3735a920a3ca505d382bbc8490556040516001600160a01b038516907fbc7cd75a20ee27fd9adebab32041f755214dbc6bffa90cc0225b39da2e5c2d3b905f90a280156107bb575f846001600160a01b0316639ded06df60e01b8484604051602401610b1f9291906121f8565b60408051601f198184030181529181526020820180516001600160e01b03166001600160e01b0319909416939093179092529051610b5d919061222d565b5f60405180830381855af49150503d805f8114610b95576040519150601f19603f3d011682016040523d82523d5f602084013e610b9a565b606091505b5050905080610654576040516397905dfb60e01b815260040160405180910390fd5b5f60015f805160206126048339815191525f610bda8888888861065b565b81526020019081526020015f2054149050949350505050565b5f80610c018989898961065b565b9050610c11818a8a888888610f4b565b9998505050505050505050565b33610c345f805160206125e48339815191525490565b6001600160a01b0316146108aa576040516330cd747160e01b815260040160405180910390fd5b5f610c6b888888888888886110ad565b98975050505050505050565b6040517f19457468657265756d205369676e6564204d6573736167653a0a39360000000060208201527f0000000000000000000000000000000000000000000000000000000000000000603c820152605c8101839052607c81018290525f90609c0160405160208183030381529060405280519060200120905092915050565b5f7f457f3fc26bf430b020fe76358b1bfaba57e1657ace718da6437cda9934eabfe836610d248480612248565b90505f81604051602001610d38919061225c565b60408051601f1981840301815291815281516020928301205f818152600387019093529120548454808214965091925090811580610d9e57507f0000000000000000000000000000000000000000000000000000000000000000610d9c8383612088565b115b15610dbc57604051635e231fff60e01b815260040160405180910390fd5b5f610dc7848a610c77565b9050610de08186610ddb60208c018c612337565b611149565b50505050505092915050565b7f457f3fc26bf430b020fe76358b1bfaba57e1657ace718da6437cda9934eabfe8610e1683611303565b610e1f82611421565b5f83604051602001610e31919061237c565b60408051601f19818403018152919052805160208201208354919250905f90610e5b90600161238e565b8085555f81815260028601602090815260408083208690558583526003880190915290205490915015610ea457604051634311167960e01b815260048101839052602401610721565b5f8281526003850160205260409081902082905551829082907fe7cf1d3405bd906f8500af030e1130f3affbe991be73471a0d3983fe3ca61ebc906105b39087906123a1565b805f805160206125c483398151915280546001600160a01b0319166001600160a01b0392831617905560405190821681527f1e3390359ca00dde8f3438aa04eceb3ee726e628c7daf84d23cc9619fcefdcb79060200160405180910390a150565b5f80610f5c888888888833896114d4565b5f8981525f8051602061260483398151915260205260409020548114925090508115610fc7575f8881525f805160206126048339815191526020526040808220600190555189917fe7d1e1f435233f7a187624ac11afaf32ee0da368cef8a5625be394412f61925491a25b509695505050505050565b805f819003610ff457604051634eac1fe560e11b815260040160405180910390fd5b5f5b818110156107bb5761102a848483818110611013576110136123d3565b905060200281019061102591906123e7565b611515565b600101610ff6565b6001600160a01b03811661105957604051633649397d60e21b815260040160405180910390fd5b6040516001600160a01b038216907f04dba622d284ed0014ee4b9a6a68386be1a4c08a4913ae272de89199cc686163905f90a25f805160206125e4833981519152555f5f8051602061264483398151915255565b5f806110be898989898989896114d4565b5f998a525f8051602061260483398151915260205260409099205490981498975050505050505050565b5f806110f6838501856123fb565b90925090506001600160a01b038216156111135761111382610eea565b5f5b815181101561065457611141828281518110611133576111336123d3565b60200260200101515f610dec565b600101611115565b365f61115585806124bf565b909250905080835f8082810361117e57604051630407644b60e31b815260040160405180910390fd5b5f5b838110156112e9575f6111ea8c8b8b8581811061119f5761119f6123d3565b90506020028101906111b19190612504565b8080601f0160208091040260200160405190810160405280939291908181526020018383808284375f9201919091525061162c92505050565b90505b85841080156112355750878785818110611209576112096123d3565b61121f9260206040909202019081019150611b3f565b6001600160a01b0316816001600160a01b031614155b1561124a5761124384612546565b93506111ed565b85840361126a57604051630c37c53960e11b815260040160405180910390fd5b87878581811061127c5761127c6123d3565b9050604002016020016020810190611294919061255e565b6112a7906001600160801b03168461238e565b92506112b960408c0160208d0161255e565b6001600160801b031683106112d55750505050505050506107bb565b6112de84612546565b935050600101611180565b50604051630407644b60e31b815260040160405180910390fd5b805180515f81810361132857604051635e231fff60e01b815260040160405180910390fd5b5f805b838110156113d7575f858281518110611346576113466123d3565b602002602001015190505f815f01519050806001600160a01b0316846001600160a01b03161061138957604051635e231fff60e01b815260040160405180910390fd5b8093505f82602001516001600160801b03169050805f036113bd5760405163108cef9d60e31b815260040160405180910390fd5b6113c7818761238e565b955050505080600101905061132b565b5060208501516001600160801b03811615806113fb5750806001600160801b031683105b156114195760405163aabd5a0960e01b815260040160405180910390fd5b505050505050565b5f80516020612624833981519152544282801561146657507f00000000000000000000000000000000000000000000000000000000000000006114648383612088565b105b156114c1577f0000000000000000000000000000000000000000000000000000000000000000826114978184612088565b60405163767479ad60e01b8152600481019390935260248301919091526044820152606401610721565b5f80516020612624833981519152555050565b5f878787878787876040516020016114f29796959493929190612577565b604051602081830303815290604052805190602001209050979650505050505050565b5f6115306115238380612504565b61028a6020860186612504565b5f8181525f80516020612604833981519152602052604090205490915015611556575050565b5f61158c826115658580612504565b6115726040880188612504565b61158260808a0160608b01611b3f565b89608001356114d4565b5f8381525f80516020612604833981519152602052604090208190559050608083018035906115be9060608601611b3f565b6001600160a01b0316837fcda53a2698efcca41b57faaddeb19bcb237bb1c71b479721fcc3a6fd41ba80976115f38780612504565b61160060208a018a612504565b61160d60408c018c612504565b60405161161f96959493929190611f39565b60405180910390a4505050565b5f815160411461164f57604051634be6321b60e01b815260040160405180910390fd5b6020820151604083015160608401515f1a7f7fffffffffffffffffffffffffffffff5d576e7357a4501ddfe92f46681b20a08211156116a1576040516308183ce960e31b815260040160405180910390fd5b8060ff16601b141580156116b957508060ff16601c14155b156116d75760405163119bce3960e01b815260040160405180910390fd5b604080515f81526020810180835288905260ff831691810191909152606081018490526080810183905260019060a0016020604051602081039080840390855afa158015611727573d5f803e3d5ffd5b5050604051601f1901519450506001600160a01b03841661175b57604051638baa579f60e01b815260040160405180910390fd5b50505092915050565b5f60408284031215611774575f80fd5b50919050565b5f806040838503121561178b575f80fd5b8235915060208301356001600160401b038111156117a7575f80fd5b6117b385828601611764565b9150509250929050565b5f8083601f8401126117cd575f80fd5b5081356001600160401b038111156117e3575f80fd5b6020830191508360208285010111156117fa575f80fd5b9250929050565b5f805f805f8060608789031215611816575f80fd5b86356001600160401b0381111561182b575f80fd5b61183789828a016117bd565b90975095505060208701356001600160401b03811115611855575f80fd5b61186189828a016117bd565b90955093505060408701356001600160401b0381111561187f575f80fd5b61188b89828a016117bd565b979a9699509497509295939492505050565b634e487b7160e01b5f52604160045260245ffd5b604051606081016001600160401b03811182821017156118d3576118d361189d565b60405290565b604080519081016001600160401b03811182821017156118d3576118d361189d565b604051601f8201601f191681016001600160401b03811182821017156119235761192361189d565b604052919050565b5f6001600160401b038211156119435761194361189d565b5060051b60200190565b6001600160a01b03811681146108b3575f80fd5b80356001600160801b0381168114611977575f80fd5b919050565b5f6060828403121561198c575f80fd5b6119946118b1565b905081356001600160401b038111156119ab575f80fd5b8201601f810184136119bb575f80fd5b80356119ce6119c98261192b565b6118fb565b8082825260208201915060208360061b8501019250868311156119ef575f80fd5b6020840193505b82841015611a485760408488031215611a0d575f80fd5b611a156118d9565b8435611a208161194d565b8152611a2e60208601611961565b6020820152808352506020820191506040840193506119f6565b845250611a5a91505060208301611961565b602082015260409182013591810191909152919050565b5f8060408385031215611a82575f80fd5b82356001600160401b03811115611a97575f80fd5b611aa38582860161197c565b92505060208301356001600160401b038111156117a7575f80fd5b5f60208284031215611ace575f80fd5b5035919050565b5f805f8060408587031215611ae8575f80fd5b84356001600160401b03811115611afd575f80fd5b611b09878288016117bd565b90955093505060208501356001600160401b03811115611b27575f80fd5b611b33878288016117bd565b95989497509550505050565b5f60208284031215611b4f575f80fd5b8135611b5a8161194d565b9392505050565b5f805f805f8060808789031215611b76575f80fd5b8635955060208701356001600160401b03811115611b92575f80fd5b611b9e89828a016117bd565b90965094505060408701356001600160401b03811115611bbc575f80fd5b611bc889828a016117bd565b979a9699509497949695606090950135949350505050565b5f805f60408486031215611bf2575f80fd5b83356001600160401b03811115611c07575f80fd5b8401601f81018613611c17575f80fd5b80356001600160401b03811115611c2c575f80fd5b8660208260051b8401011115611c40575f80fd5b6020918201945092508401356001600160401b03811115611c5f575f80fd5b611c6b86828701611764565b9150509250925092565b5f805f805f805f8060a0898b031215611c8c575f80fd5b88356001600160401b03811115611ca1575f80fd5b611cad8b828c016117bd565b90995097505060208901356001600160401b03811115611ccb575f80fd5b611cd78b828c016117bd565b90975095505060408901356001600160401b03811115611cf5575f80fd5b611d018b828c016117bd565b9095509350506060890135611d158161194d565b979a9699509497939692959194509192608001359150565b5f8060208385031215611d3e575f80fd5b82356001600160401b03811115611d53575f80fd5b611d5f858286016117bd565b90969095509350505050565b5f805f8060608587031215611d7e575f80fd5b8435611d898161194d565b93506020850135925060408501356001600160401b03811115611b27575f80fd5b5f805f805f805f6080888a031215611dc0575f80fd5b87356001600160401b03811115611dd5575f80fd5b611de18a828b016117bd565b90985096505060208801356001600160401b03811115611dff575f80fd5b611e0b8a828b016117bd565b90965094505060408801356001600160401b03811115611e29575f80fd5b611e358a828b016117bd565b989b979a50959894979596606090950135949350505050565b5f805f805f805f60a0888a031215611e64575f80fd5b8735965060208801356001600160401b03811115611e80575f80fd5b611e8c8a828b016117bd565b90975095505060408801356001600160401b03811115611eaa575f80fd5b611eb68a828b016117bd565b9095509350506060880135611eca8161194d565b96999598509396929591949193505060809091013590565b5f8060408385031215611ef3575f80fd5b50508035926020909101359150565b818382375f9101908152919050565b81835281816020850137505f828201602090810191909152601f909101601f19169091010190565b606081525f611f4c60608301888a611f11565b8281036020840152611f5f818789611f11565b90508281036040840152610c11818587611f11565b60028110611f9057634e487b7160e01b5f52602160045260245ffd5b9052565b8051606080845281519084018190525f9160200190829060808601905b80831015611ff157835180516001600160a01b031683526020908101516001600160801b0316818401529093019260019290920191604090910190611fb1565b506020850151925061200e60208701846001600160801b03169052565b6040850151604087015280935050505092915050565b61202e8184611f74565b604060208201525f6120436040830184611f94565b949350505050565b838582375f848201605f60f81b8152838560018301375f93016001019283525090949350505050565b634e487b7160e01b5f52601160045260245ffd5b8181038181111561055257610552612074565b5f808335601e198436030181126120b0575f80fd5b83016020810192503590506001600160401b038111156120ce575f80fd5b8036038213156117fa575f80fd5b5f604082016120eb8387611f74565b604060208401528390526060600584901b83018101908301855f609e1936839003015b878210156121d357868503605f19018452823581811261212c575f80fd5b8901612138818061209b565b60a0885261214a60a089018284611f11565b91505061215a602083018361209b565b88830360208a015261216d838284611f11565b9250505061217e604083018361209b565b88830360408a0152612191838284611f11565b9250505060608201356121a38161194d565b6001600160a01b03166060880152608091820135919096015260209384019392909201916001919091019061210e565b509298975050505050505050565b5f602082840312156121f1575f80fd5b5051919050565b602081525f612043602083018486611f11565b5f5b8381101561222557818101518382015260200161220d565b50505f910152565b5f825161223e81846020870161220b565b9190910192915050565b5f8235605e1983360301811261223e575f80fd5b602081525f608082018335601e19853603018112612278575f80fd5b84016020810190356001600160401b03811115612293575f80fd5b8060061b36038213156122a4575f80fd5b6060602086015291829052905f9060a085015b818310156123025783356122ca8161194d565b6001600160a01b031681526001600160801b036122e960208601611961565b16602082015260409384019360019390930192016122b7565b61230e60208801611961565b6001600160801b0316604087810191909152969096013560609095019490945250929392505050565b5f808335601e1984360301811261234c575f80fd5b8301803591506001600160401b03821115612365575f80fd5b6020019150600581901b36038213156117fa575f80fd5b602081525f61054f6020830184611f94565b8082018082111561055257610552612074565b602081525f82518060208401526123bf81604085016020870161220b565b601f01601f19169190910160400192915050565b634e487b7160e01b5f52603260045260245ffd5b5f8235609e1983360301811261223e575f80fd5b5f806040838503121561240c575f80fd5b82356124178161194d565b915060208301356001600160401b03811115612431575f80fd5b8301601f81018513612441575f80fd5b803561244f6119c98261192b565b8082825260208201915060208360051b850101925087831115612470575f80fd5b602084015b838110156124b05780356001600160401b03811115612492575f80fd5b6124a18a60208389010161197c565b84525060209283019201612475565b50809450505050509250929050565b5f808335601e198436030181126124d4575f80fd5b8301803591506001600160401b038211156124ed575f80fd5b6020019150600681901b36038213156117fa575f80fd5b5f808335601e19843603018112612519575f80fd5b8301803591506001600160401b03821115612532575f80fd5b6020019150368190038213156117fa575f80fd5b5f6001820161255757612557612074565b5060010190565b5f6020828403121561256e575f80fd5b61054f82611961565b87815260a060208201525f61259060a08301888a611f11565b82810360408401526125a3818789611f11565b6001600160a01b039590951660608401525050608001529594505050505056feca458dc12368669a3b8c292bc21c1b887ab1aa386fa3fcc1ed972afd74a330ca02016836a56b71f0d02689e69e326f4f4c1b9057164ef592671cf0d37c8040c0978b1ab9e384397ce0aab28eec0e3c25603b3210984045ad0e0f0a50d88cfc55457f3fc26bf430b020fe76358b1bfaba57e1657ace718da6437cda9934eabfe99855384122b55936fbfb8ca5120e63c6537a1ac40caf6ae33502b3c5da8c87d1a164736f6c634300081a000a",
    "linkReferences": {}
  },
  "methodIdentifiers": {
    "acceptOwnership()": "79ba5097",
    "approveMessages((string,string,string,address,bytes32)[],(((address,uint128)[],uint128,bytes32),bytes[]))": "64f1d85a",
    "callContract(string,string,bytes)": "1c92115f",
    "contractId()": "8291286c",
    "domainSeparator()": "f698da25",
    "epoch()": "900cf0cf",
    "epochBySignerHash(bytes32)": "22c9eea8",
    "implementation()": "5c60da1b",
    "isCommandExecuted(bytes32)": "d26ff210",
    "isContractCallApproved(bytes32,string,string,address,bytes32)": "f6a5f9f5",
    "isMessageApproved(string,string,string,address,bytes32)": "8f686dc4",
    "isMessageExecuted(string,string)": "cba5be6a",
    "lastRotationTimestamp()": "eb215f28",
    "messageHashToSign(bytes32,bytes32)": "fd721b47",
    "messageToCommandId(string,string)": "2fbceb4f",
    "minimumRotationDelay()": "f2213d37",
    "operator()": "570ca735",
    "owner()": "8da5cb5b",
    "pendingOwner()": "e30c3978",
    "previousSignersRetention()": "8c212aa5",
    "proposeOwnership(address)": "710bf322",
    "rotateSigners(((address,uint128)[],uint128,bytes32),(((address,uint128)[],uint128,bytes32),bytes[]))": "1d92c0bf",
    "setup(bytes)": "9ded06df",
    "signerHashByEpoch(uint256)": "6f9badf4",
    "timeSinceRotation()": "377fff55",
    "transferOperatorship(address)": "4a6a42d8",
    "transferOwnership(address)": "f2fde38b",
    "upgrade(address,bytes32,bytes)": "a3499c73",
    "validateContractCall(bytes32,string,string,bytes32)": "5f6970c3",
    "validateMessage(string,string,string,bytes32)": "f10bfaa1",
    "validateProof(bytes32,(((address,uint128)[],uint128,bytes32),bytes[]))": "116399e4"
  },
  "id": 11
}