{
  "abi": [
    {
      "type": "function",
      "name": "SYSTEM_ADDRESS",
      "inputs": [],
      "outputs": [
        {
          "name": "",
          "type": "address",
          "internalType": "address"
        }
      ],
      "stateMutability": "view"
    },
    {
      "type": "function",
      "name": "UPGRADE_INTERFACE_VERSION",
      "inputs": [],
      "outputs": [
        {
          "name": "",
          "type": "string",
          "internalType": "string"
        }
      ],
      "stateMutability": "view"
    },
    {
      "type": "function",
      "name": "approve",
      "inputs": [
        {
          "name": "to",
          "type": "address",
          "internalType": "address"
        },
        {
          "name": "tokenId",
          "type": "uint256",
          "internalType": "uint256"
        }
      ],
      "outputs": [],
      "stateMutability": "nonpayable"
    },
    {
      "type": "function",
      "name": "balanceOf",
      "inputs": [
        {
          "name": "owner",
          "type": "address",
          "internalType": "address"
        }
      ],
      "outputs": [
        {
          "name": "",
          "type": "uint256",
          "internalType": "uint256"
        }
      ],
      "stateMutability": "view"
    },
    {
      "type": "function",
      "name": "burn",
      "inputs": [
        {
          "name": "ecdsaPubkey",
          "type": "address",
          "internalType": "address"
        }
      ],
      "outputs": [],
      "stateMutability": "nonpayable"
    },
    {
      "type": "function",
      "name": "claimStakeRewards",
      "inputs": [],
      "outputs": [],
      "stateMutability": "nonpayable"
    },
    {
      "type": "function",
      "name": "concludeEpoch",
      "inputs": [
        {
          "name": "newCommittee",
          "type": "address[]",
          "internalType": "address[]"
        }
      ],
      "outputs": [],
      "stateMutability": "nonpayable"
    },
    {
      "type": "function",
      "name": "exit",
      "inputs": [],
      "outputs": [],
      "stateMutability": "nonpayable"
    },
    {
      "type": "function",
      "name": "getApproved",
      "inputs": [
        {
          "name": "tokenId",
          "type": "uint256",
          "internalType": "uint256"
        }
      ],
      "outputs": [
        {
          "name": "",
          "type": "address",
          "internalType": "address"
        }
      ],
      "stateMutability": "view"
    },
    {
      "type": "function",
      "name": "getCurrentEpoch",
      "inputs": [],
      "outputs": [
        {
          "name": "",
          "type": "uint32",
          "internalType": "uint32"
        }
      ],
      "stateMutability": "view"
    },
    {
      "type": "function",
      "name": "getEpochInfo",
      "inputs": [
        {
          "name": "epoch",
          "type": "uint32",
          "internalType": "uint32"
        }
      ],
      "outputs": [
        {
          "name": "epochInfo",
          "type": "tuple",
          "internalType": "struct IConsensusRegistry.EpochInfo",
          "components": [
            {
              "name": "committee",
              "type": "address[]",
              "internalType": "address[]"
            },
            {
              "name": "blockHeight",
              "type": "uint64",
              "internalType": "uint64"
            }
          ]
        }
      ],
      "stateMutability": "view"
    },
    {
      "type": "function",
      "name": "getRewards",
      "inputs": [
        {
          "name": "ecdsaPubkey",
          "type": "address",
          "internalType": "address"
        }
      ],
      "outputs": [
        {
          "name": "claimableRewards",
          "type": "uint240",
          "internalType": "uint240"
        }
      ],
      "stateMutability": "view"
    },
    {
      "type": "function",
      "name": "getValidatorByIndex",
      "inputs": [
        {
          "name": "validatorIndex",
          "type": "uint24",
          "internalType": "uint24"
        }
      ],
      "outputs": [
        {
          "name": "validator",
          "type": "tuple",
          "internalType": "struct IConsensusRegistry.ValidatorInfo",
          "components": [
            {
              "name": "blsPubkey",
              "type": "bytes",
              "internalType": "bytes"
            },
            {
              "name": "ed25519Pubkey",
              "type": "bytes32",
              "internalType": "bytes32"
            },
            {
              "name": "ecdsaPubkey",
              "type": "address",
              "internalType": "address"
            },
            {
              "name": "activationEpoch",
              "type": "uint32",
              "internalType": "uint32"
            },
            {
              "name": "exitEpoch",
              "type": "uint32",
              "internalType": "uint32"
            },
            {
              "name": "validatorIndex",
              "type": "uint24",
              "internalType": "uint24"
            },
            {
              "name": "currentStatus",
              "type": "uint8",
              "internalType": "enum IConsensusRegistry.ValidatorStatus"
            }
          ]
        }
      ],
      "stateMutability": "view"
    },
    {
      "type": "function",
      "name": "getValidatorIndex",
      "inputs": [
        {
          "name": "ecdsaPubkey",
          "type": "address",
          "internalType": "address"
        }
      ],
      "outputs": [
        {
          "name": "validatorIndex",
          "type": "uint24",
          "internalType": "uint24"
        }
      ],
      "stateMutability": "view"
    },
    {
      "type": "function",
      "name": "getValidators",
      "inputs": [
        {
          "name": "status",
          "type": "uint8",
          "internalType": "enum IConsensusRegistry.ValidatorStatus"
        }
      ],
      "outputs": [
        {
          "name": "",
          "type": "tuple[]",
          "internalType": "struct IConsensusRegistry.ValidatorInfo[]",
          "components": [
            {
              "name": "blsPubkey",
              "type": "bytes",
              "internalType": "bytes"
            },
            {
              "name": "ed25519Pubkey",
              "type": "bytes32",
              "internalType": "bytes32"
            },
            {
              "name": "ecdsaPubkey",
              "type": "address",
              "internalType": "address"
            },
            {
              "name": "activationEpoch",
              "type": "uint32",
              "internalType": "uint32"
            },
            {
              "name": "exitEpoch",
              "type": "uint32",
              "internalType": "uint32"
            },
            {
              "name": "validatorIndex",
              "type": "uint24",
              "internalType": "uint24"
            },
            {
              "name": "currentStatus",
              "type": "uint8",
              "internalType": "enum IConsensusRegistry.ValidatorStatus"
            }
          ]
        }
      ],
      "stateMutability": "view"
    },
    {
      "type": "function",
      "name": "incrementRewards",
      "inputs": [
        {
          "name": "stakingRewardInfos",
          "type": "tuple[]",
          "internalType": "struct StakeInfo[]",
          "components": [
            {
              "name": "validatorIndex",
              "type": "uint24",
              "internalType": "uint24"
            },
            {
              "name": "stakingRewards",
              "type": "uint240",
              "internalType": "uint240"
            }
          ]
        }
      ],
      "outputs": [],
      "stateMutability": "nonpayable"
    },
    {
      "type": "function",
      "name": "initialize",
      "inputs": [
        {
          "name": "rwTEL_",
          "type": "address",
          "internalType": "address"
        },
        {
          "name": "stakeAmount_",
          "type": "uint256",
          "internalType": "uint256"
        },
        {
          "name": "minWithdrawAmount_",
          "type": "uint256",
          "internalType": "uint256"
        },
        {
          "name": "initialValidators_",
          "type": "tuple[]",
          "internalType": "struct IConsensusRegistry.ValidatorInfo[]",
          "components": [
            {
              "name": "blsPubkey",
              "type": "bytes",
              "internalType": "bytes"
            },
            {
              "name": "ed25519Pubkey",
              "type": "bytes32",
              "internalType": "bytes32"
            },
            {
              "name": "ecdsaPubkey",
              "type": "address",
              "internalType": "address"
            },
            {
              "name": "activationEpoch",
              "type": "uint32",
              "internalType": "uint32"
            },
            {
              "name": "exitEpoch",
              "type": "uint32",
              "internalType": "uint32"
            },
            {
              "name": "validatorIndex",
              "type": "uint24",
              "internalType": "uint24"
            },
            {
              "name": "currentStatus",
              "type": "uint8",
              "internalType": "enum IConsensusRegistry.ValidatorStatus"
            }
          ]
        },
        {
          "name": "owner_",
          "type": "address",
          "internalType": "address"
        }
      ],
      "outputs": [],
      "stateMutability": "nonpayable"
    },
    {
      "type": "function",
      "name": "isApprovedForAll",
      "inputs": [
        {
          "name": "owner",
          "type": "address",
          "internalType": "address"
        },
        {
          "name": "operator",
          "type": "address",
          "internalType": "address"
        }
      ],
      "outputs": [
        {
          "name": "",
          "type": "bool",
          "internalType": "bool"
        }
      ],
      "stateMutability": "view"
    },
    {
      "type": "function",
      "name": "mint",
      "inputs": [
        {
          "name": "ecdsaPubkey",
          "type": "address",
          "internalType": "address"
        },
        {
          "name": "tokenId",
          "type": "uint256",
          "internalType": "uint256"
        }
      ],
      "outputs": [],
      "stateMutability": "nonpayable"
    },
    {
      "type": "function",
      "name": "name",
      "inputs": [],
      "outputs": [
        {
          "name": "",
          "type": "string",
          "internalType": "string"
        }
      ],
      "stateMutability": "view"
    },
    {
      "type": "function",
      "name": "owner",
      "inputs": [],
      "outputs": [
        {
          "name": "",
          "type": "address",
          "internalType": "address"
        }
      ],
      "stateMutability": "view"
    },
    {
      "type": "function",
      "name": "ownerOf",
      "inputs": [
        {
          "name": "tokenId",
          "type": "uint256",
          "internalType": "uint256"
        }
      ],
      "outputs": [
        {
          "name": "",
          "type": "address",
          "internalType": "address"
        }
      ],
      "stateMutability": "view"
    },
    {
      "type": "function",
      "name": "pause",
      "inputs": [],
      "outputs": [],
      "stateMutability": "nonpayable"
    },
    {
      "type": "function",
      "name": "paused",
      "inputs": [],
      "outputs": [
        {
          "name": "",
          "type": "bool",
          "internalType": "bool"
        }
      ],
      "stateMutability": "view"
    },
    {
      "type": "function",
      "name": "proxiableUUID",
      "inputs": [],
      "outputs": [
        {
          "name": "",
          "type": "bytes32",
          "internalType": "bytes32"
        }
      ],
      "stateMutability": "view"
    },
    {
      "type": "function",
      "name": "rejoin",
      "inputs": [
        {
          "name": "blsPubkey",
          "type": "bytes",
          "internalType": "bytes"
        },
        {
          "name": "ed25519Pubkey",
          "type": "bytes32",
          "internalType": "bytes32"
        }
      ],
      "outputs": [],
      "stateMutability": "nonpayable"
    },
    {
      "type": "function",
      "name": "renounceOwnership",
      "inputs": [],
      "outputs": [],
      "stateMutability": "nonpayable"
    },
    {
      "type": "function",
      "name": "safeTransferFrom",
      "inputs": [
        {
          "name": "from",
          "type": "address",
          "internalType": "address"
        },
        {
          "name": "to",
          "type": "address",
          "internalType": "address"
        },
        {
          "name": "tokenId",
          "type": "uint256",
          "internalType": "uint256"
        }
      ],
      "outputs": [],
      "stateMutability": "nonpayable"
    },
    {
      "type": "function",
      "name": "safeTransferFrom",
      "inputs": [
        {
          "name": "",
          "type": "address",
          "internalType": "address"
        },
        {
          "name": "",
          "type": "address",
          "internalType": "address"
        },
        {
          "name": "",
          "type": "uint256",
          "internalType": "uint256"
        },
        {
          "name": "",
          "type": "bytes",
          "internalType": "bytes"
        }
      ],
      "outputs": [],
      "stateMutability": "nonpayable"
    },
    {
      "type": "function",
      "name": "setApprovalForAll",
      "inputs": [
        {
          "name": "operator",
          "type": "address",
          "internalType": "address"
        },
        {
          "name": "approved",
          "type": "bool",
          "internalType": "bool"
        }
      ],
      "outputs": [],
      "stateMutability": "nonpayable"
    },
    {
      "type": "function",
      "name": "stake",
      "inputs": [
        {
          "name": "blsPubkey",
          "type": "bytes",
          "internalType": "bytes"
        },
        {
          "name": "blsSig",
          "type": "bytes",
          "internalType": "bytes"
        },
        {
          "name": "ed25519Pubkey",
          "type": "bytes32",
          "internalType": "bytes32"
        }
      ],
      "outputs": [],
      "stateMutability": "payable"
    },
    {
      "type": "function",
      "name": "supportsInterface",
      "inputs": [
        {
          "name": "interfaceId",
          "type": "bytes4",
          "internalType": "bytes4"
        }
      ],
      "outputs": [
        {
          "name": "",
          "type": "bool",
          "internalType": "bool"
        }
      ],
      "stateMutability": "view"
    },
    {
      "type": "function",
      "name": "symbol",
      "inputs": [],
      "outputs": [
        {
          "name": "",
          "type": "string",
          "internalType": "string"
        }
      ],
      "stateMutability": "view"
    },
    {
      "type": "function",
      "name": "tokenURI",
      "inputs": [
        {
          "name": "tokenId",
          "type": "uint256",
          "internalType": "uint256"
        }
      ],
      "outputs": [
        {
          "name": "",
          "type": "string",
          "internalType": "string"
        }
      ],
      "stateMutability": "view"
    },
    {
      "type": "function",
      "name": "transferFrom",
      "inputs": [
        {
          "name": "",
          "type": "address",
          "internalType": "address"
        },
        {
          "name": "",
          "type": "address",
          "internalType": "address"
        },
        {
          "name": "",
          "type": "uint256",
          "internalType": "uint256"
        }
      ],
      "outputs": [],
      "stateMutability": "nonpayable"
    },
    {
      "type": "function",
      "name": "transferOwnership",
      "inputs": [
        {
          "name": "newOwner",
          "type": "address",
          "internalType": "address"
        }
      ],
      "outputs": [],
      "stateMutability": "nonpayable"
    },
    {
      "type": "function",
      "name": "unpause",
      "inputs": [],
      "outputs": [],
      "stateMutability": "nonpayable"
    },
    {
      "type": "function",
      "name": "unstake",
      "inputs": [],
      "outputs": [],
      "stateMutability": "nonpayable"
    },
    {
      "type": "function",
      "name": "upgradeToAndCall",
      "inputs": [
        {
          "name": "newImplementation",
          "type": "address",
          "internalType": "address"
        },
        {
          "name": "data",
          "type": "bytes",
          "internalType": "bytes"
        }
      ],
      "outputs": [],
      "stateMutability": "payable"
    },
    {
      "type": "event",
      "name": "Approval",
      "inputs": [
        {
          "name": "owner",
          "type": "address",
          "indexed": true,
          "internalType": "address"
        },
        {
          "name": "approved",
          "type": "address",
          "indexed": true,
          "internalType": "address"
        },
        {
          "name": "tokenId",
          "type": "uint256",
          "indexed": true,
          "internalType": "uint256"
        }
      ],
      "anonymous": false
    },
    {
      "type": "event",
      "name": "ApprovalForAll",
      "inputs": [
        {
          "name": "owner",
          "type": "address",
          "indexed": true,
          "internalType": "address"
        },
        {
          "name": "operator",
          "type": "address",
          "indexed": true,
          "internalType": "address"
        },
        {
          "name": "approved",
          "type": "bool",
          "indexed": false,
          "internalType": "bool"
        }
      ],
      "anonymous": false
    },
    {
      "type": "event",
      "name": "Initialized",
      "inputs": [
        {
          "name": "version",
          "type": "uint64",
          "indexed": false,
          "internalType": "uint64"
        }
      ],
      "anonymous": false
    },
    {
      "type": "event",
      "name": "NewEpoch",
      "inputs": [
        {
          "name": "epoch",
          "type": "tuple",
          "indexed": false,
          "internalType": "struct IConsensusRegistry.EpochInfo",
          "components": [
            {
              "name": "committee",
              "type": "address[]",
              "internalType": "address[]"
            },
            {
              "name": "blockHeight",
              "type": "uint64",
              "internalType": "uint64"
            }
          ]
        }
      ],
      "anonymous": false
    },
    {
      "type": "event",
      "name": "OwnershipTransferred",
      "inputs": [
        {
          "name": "previousOwner",
          "type": "address",
          "indexed": true,
          "internalType": "address"
        },
        {
          "name": "newOwner",
          "type": "address",
          "indexed": true,
          "internalType": "address"
        }
      ],
      "anonymous": false
    },
    {
      "type": "event",
      "name": "Paused",
      "inputs": [
        {
          "name": "account",
          "type": "address",
          "indexed": false,
          "internalType": "address"
        }
      ],
      "anonymous": false
    },
    {
      "type": "event",
      "name": "RewardsClaimed",
      "inputs": [
        {
          "name": "claimant",
          "type": "address",
          "indexed": false,
          "internalType": "address"
        },
        {
          "name": "rewards",
          "type": "uint256",
          "indexed": false,
          "internalType": "uint256"
        }
      ],
      "anonymous": false
    },
    {
      "type": "event",
      "name": "Transfer",
      "inputs": [
        {
          "name": "from",
          "type": "address",
          "indexed": true,
          "internalType": "address"
        },
        {
          "name": "to",
          "type": "address",
          "indexed": true,
          "internalType": "address"
        },
        {
          "name": "tokenId",
          "type": "uint256",
          "indexed": true,
          "internalType": "uint256"
        }
      ],
      "anonymous": false
    },
    {
      "type": "event",
      "name": "Unpaused",
      "inputs": [
        {
          "name": "account",
          "type": "address",
          "indexed": false,
          "internalType": "address"
        }
      ],
      "anonymous": false
    },
    {
      "type": "event",
      "name": "Upgraded",
      "inputs": [
        {
          "name": "implementation",
          "type": "address",
          "indexed": true,
          "internalType": "address"
        }
      ],
      "anonymous": false
    },
    {
      "type": "event",
      "name": "ValidatorActivated",
      "inputs": [
        {
          "name": "validator",
          "type": "tuple",
          "indexed": false,
          "internalType": "struct IConsensusRegistry.ValidatorInfo",
          "components": [
            {
              "name": "blsPubkey",
              "type": "bytes",
              "internalType": "bytes"
            },
            {
              "name": "ed25519Pubkey",
              "type": "bytes32",
              "internalType": "bytes32"
            },
            {
              "name": "ecdsaPubkey",
              "type": "address",
              "internalType": "address"
            },
            {
              "name": "activationEpoch",
              "type": "uint32",
              "internalType": "uint32"
            },
            {
              "name": "exitEpoch",
              "type": "uint32",
              "internalType": "uint32"
            },
            {
              "name": "validatorIndex",
              "type": "uint24",
              "internalType": "uint24"
            },
            {
              "name": "currentStatus",
              "type": "uint8",
              "internalType": "enum IConsensusRegistry.ValidatorStatus"
            }
          ]
        }
      ],
      "anonymous": false
    },
    {
      "type": "event",
      "name": "ValidatorExited",
      "inputs": [
        {
          "name": "validator",
          "type": "tuple",
          "indexed": false,
          "internalType": "struct IConsensusRegistry.ValidatorInfo",
          "components": [
            {
              "name": "blsPubkey",
              "type": "bytes",
              "internalType": "bytes"
            },
            {
              "name": "ed25519Pubkey",
              "type": "bytes32",
              "internalType": "bytes32"
            },
            {
              "name": "ecdsaPubkey",
              "type": "address",
              "internalType": "address"
            },
            {
              "name": "activationEpoch",
              "type": "uint32",
              "internalType": "uint32"
            },
            {
              "name": "exitEpoch",
              "type": "uint32",
              "internalType": "uint32"
            },
            {
              "name": "validatorIndex",
              "type": "uint24",
              "internalType": "uint24"
            },
            {
              "name": "currentStatus",
              "type": "uint8",
              "internalType": "enum IConsensusRegistry.ValidatorStatus"
            }
          ]
        }
      ],
      "anonymous": false
    },
    {
      "type": "event",
      "name": "ValidatorPendingActivation",
      "inputs": [
        {
          "name": "validator",
          "type": "tuple",
          "indexed": false,
          "internalType": "struct IConsensusRegistry.ValidatorInfo",
          "components": [
            {
              "name": "blsPubkey",
              "type": "bytes",
              "internalType": "bytes"
            },
            {
              "name": "ed25519Pubkey",
              "type": "bytes32",
              "internalType": "bytes32"
            },
            {
              "name": "ecdsaPubkey",
              "type": "address",
              "internalType": "address"
            },
            {
              "name": "activationEpoch",
              "type": "uint32",
              "internalType": "uint32"
            },
            {
              "name": "exitEpoch",
              "type": "uint32",
              "internalType": "uint32"
            },
            {
              "name": "validatorIndex",
              "type": "uint24",
              "internalType": "uint24"
            },
            {
              "name": "currentStatus",
              "type": "uint8",
              "internalType": "enum IConsensusRegistry.ValidatorStatus"
            }
          ]
        }
      ],
      "anonymous": false
    },
    {
      "type": "event",
      "name": "ValidatorPendingExit",
      "inputs": [
        {
          "name": "validator",
          "type": "tuple",
          "indexed": false,
          "internalType": "struct IConsensusRegistry.ValidatorInfo",
          "components": [
            {
              "name": "blsPubkey",
              "type": "bytes",
              "internalType": "bytes"
            },
            {
              "name": "ed25519Pubkey",
              "type": "bytes32",
              "internalType": "bytes32"
            },
            {
              "name": "ecdsaPubkey",
              "type": "address",
              "internalType": "address"
            },
            {
              "name": "activationEpoch",
              "type": "uint32",
              "internalType": "uint32"
            },
            {
              "name": "exitEpoch",
              "type": "uint32",
              "internalType": "uint32"
            },
            {
              "name": "validatorIndex",
              "type": "uint24",
              "internalType": "uint24"
            },
            {
              "name": "currentStatus",
              "type": "uint8",
              "internalType": "enum IConsensusRegistry.ValidatorStatus"
            }
          ]
        }
      ],
      "anonymous": false
    },
    {
      "type": "error",
      "name": "AddressEmptyCode",
      "inputs": [
        {
          "name": "target",
          "type": "address",
          "internalType": "address"
        }
      ]
    },
    {
      "type": "error",
      "name": "AlreadyDefined",
      "inputs": [
        {
          "name": "ecdsaPubkey",
          "type": "address",
          "internalType": "address"
        }
      ]
    },
    {
      "type": "error",
      "name": "CommitteeRequirement",
      "inputs": [
        {
          "name": "ecdsaPubkey",
          "type": "address",
          "internalType": "address"
        }
      ]
    },
    {
      "type": "error",
      "name": "ERC1967InvalidImplementation",
      "inputs": [
        {
          "name": "implementation",
          "type": "address",
          "internalType": "address"
        }
      ]
    },
    {
      "type": "error",
      "name": "ERC1967NonPayable",
      "inputs": []
    },
    {
      "type": "error",
      "name": "ERC721IncorrectOwner",
      "inputs": [
        {
          "name": "sender",
          "type": "address",
          "internalType": "address"
        },
        {
          "name": "tokenId",
          "type": "uint256",
          "internalType": "uint256"
        },
        {
          "name": "owner",
          "type": "address",
          "internalType": "address"
        }
      ]
    },
    {
      "type": "error",
      "name": "ERC721InsufficientApproval",
      "inputs": [
        {
          "name": "operator",
          "type": "address",
          "internalType": "address"
        },
        {
          "name": "tokenId",
          "type": "uint256",
          "internalType": "uint256"
        }
      ]
    },
    {
      "type": "error",
      "name": "ERC721InvalidApprover",
      "inputs": [
        {
          "name": "approver",
          "type": "address",
          "internalType": "address"
        }
      ]
    },
    {
      "type": "error",
      "name": "ERC721InvalidOperator",
      "inputs": [
        {
          "name": "operator",
          "type": "address",
          "internalType": "address"
        }
      ]
    },
    {
      "type": "error",
      "name": "ERC721InvalidOwner",
      "inputs": [
        {
          "name": "owner",
          "type": "address",
          "internalType": "address"
        }
      ]
    },
    {
      "type": "error",
      "name": "ERC721InvalidReceiver",
      "inputs": [
        {
          "name": "receiver",
          "type": "address",
          "internalType": "address"
        }
      ]
    },
    {
      "type": "error",
      "name": "ERC721InvalidSender",
      "inputs": [
        {
          "name": "sender",
          "type": "address",
          "internalType": "address"
        }
      ]
    },
    {
      "type": "error",
      "name": "ERC721NonexistentToken",
      "inputs": [
        {
          "name": "tokenId",
          "type": "uint256",
          "internalType": "uint256"
        }
      ]
    },
    {
      "type": "error",
      "name": "EnforcedPause",
      "inputs": []
    },
    {
      "type": "error",
      "name": "ExpectedPause",
      "inputs": []
    },
    {
      "type": "error",
      "name": "FailedInnerCall",
      "inputs": []
    },
    {
      "type": "error",
      "name": "InitializerArityMismatch",
      "inputs": []
    },
    {
      "type": "error",
      "name": "InsufficientRewards",
      "inputs": [
        {
          "name": "withdrawAmount",
          "type": "uint256",
          "internalType": "uint256"
        }
      ]
    },
    {
      "type": "error",
      "name": "InvalidBLSPubkey",
      "inputs": []
    },
    {
      "type": "error",
      "name": "InvalidCommitteeSize",
      "inputs": [
        {
          "name": "minCommitteeSize",
          "type": "uint256",
          "internalType": "uint256"
        },
        {
          "name": "providedCommitteeSize",
          "type": "uint256",
          "internalType": "uint256"
        }
      ]
    },
    {
      "type": "error",
      "name": "InvalidECDSAPubkey",
      "inputs": []
    },
    {
      "type": "error",
      "name": "InvalidEd25519Pubkey",
      "inputs": []
    },
    {
      "type": "error",
      "name": "InvalidEpoch",
      "inputs": [
        {
          "name": "epoch",
          "type": "uint32",
          "internalType": "uint32"
        }
      ]
    },
    {
      "type": "error",
      "name": "InvalidIndex",
      "inputs": [
        {
          "name": "validatorIndex",
          "type": "uint24",
          "internalType": "uint24"
        }
      ]
    },
    {
      "type": "error",
      "name": "InvalidInitialization",
      "inputs": []
    },
    {
      "type": "error",
      "name": "InvalidProof",
      "inputs": []
    },
    {
      "type": "error",
      "name": "InvalidStakeAmount",
      "inputs": [
        {
          "name": "stakeAmount",
          "type": "uint256",
          "internalType": "uint256"
        }
      ]
    },
    {
      "type": "error",
      "name": "InvalidStatus",
      "inputs": [
        {
          "name": "status",
          "type": "uint8",
          "internalType": "enum IConsensusRegistry.ValidatorStatus"
        }
      ]
    },
    {
      "type": "error",
      "name": "InvalidTokenId",
      "inputs": [
        {
          "name": "tokenId",
          "type": "uint256",
          "internalType": "uint256"
        }
      ]
    },
    {
      "type": "error",
      "name": "LowLevelCallFailure",
      "inputs": []
    },
    {
      "type": "error",
      "name": "NotInitializing",
      "inputs": []
    },
    {
      "type": "error",
      "name": "NotTransferable",
      "inputs": []
    },
    {
      "type": "error",
      "name": "NotValidator",
      "inputs": [
        {
          "name": "ecdsaPubkey",
          "type": "address",
          "internalType": "address"
        }
      ]
    },
    {
      "type": "error",
      "name": "OnlySystemCall",
      "inputs": [
        {
          "name": "invalidCaller",
          "type": "address",
          "internalType": "address"
        }
      ]
    },
    {
      "type": "error",
      "name": "OwnableInvalidOwner",
      "inputs": [
        {
          "name": "owner",
          "type": "address",
          "internalType": "address"
        }
      ]
    },
    {
      "type": "error",
      "name": "OwnableUnauthorizedAccount",
      "inputs": [
        {
          "name": "account",
          "type": "address",
          "internalType": "address"
        }
      ]
    },
    {
      "type": "error",
      "name": "RequiresConsensusNFT",
      "inputs": []
    },
    {
      "type": "error",
      "name": "UUPSUnauthorizedCallContext",
      "inputs": []
    },
    {
      "type": "error",
      "name": "UUPSUnsupportedProxiableUUID",
      "inputs": [
        {
          "name": "slot",
          "type": "bytes32",
          "internalType": "bytes32"
        }
      ]
    }
  ],
  "bytecode": {
    "object": "0x60a0604052306080523480156012575f80fd5b50608051614a546100395f395f81816125340152818161255d015261269c0152614a545ff3fe608060405260043610610228575f3560e01c8063715018a611610129578063ad3cb1cc116100a8578063e985e9c51161006d578063e985e9c5146106b0578063e9fad8ee146106cf578063f2fde38b146106e3578063fcf1779a14610702578063fe08af3a14610721575f80fd5b8063ad3cb1cc14610603578063b46d32a314610633578063b88d4fde14610647578063b97dd9e214610661578063c87b56dd14610691575f80fd5b80638cc05eda116100ee5780638cc05eda146105555780638da5cb5b1461058157806395d89b41146105bd5780639b4e4634146105d1578063a22cb465146105e4575f80fd5b8063715018a6146104b857806379ee54f7146104cc5780637b55a300146105035780638456cb591461052257806389afcb4414610536575f80fd5b80633f4ba83a116101b557806359cfa8941161017a57806359cfa8941461040c5780635c975abb1461043857806361af9e691461045b5780636352211e1461047a57806370a0823114610499575f80fd5b80633f4ba83a1461038557806340c10f191461039957806342842e0e146103b85780634f1ef286146103d757806352d1902d146103ea575f80fd5b80631fcc449e116101fb5780631fcc449e146102d957806323b872dd1461030c5780632def66201461032b5780633434735f1461033f578063374ed18c14610359575f80fd5b806301ffc9a71461022c57806306fdde0314610260578063081812fc14610281578063095ea7b3146102b8575b5f80fd5b348015610237575f80fd5b5061024b610246366004613c47565b610740565b60405190151581526020015b60405180910390f35b34801561026b575f80fd5b50610274610791565b6040516102579190613cbb565b34801561028c575f80fd5b506102a061029b366004613ccd565b610832565b6040516001600160a01b039091168152602001610257565b3480156102c3575f80fd5b506102d76102d2366004613cff565b610846565b005b3480156102e4575f80fd5b506102f86102f3366004613d27565b610855565b60405162ffffff9091168152602001610257565b348015610317575f80fd5b506102d7610326366004613d40565b61086d565b348015610336575f80fd5b506102d7610886565b34801561034a575f80fd5b506102a06002600160a01b0381565b348015610364575f80fd5b50610378610373366004613d8d565b61098f565b6040516102579190613da6565b348015610390575f80fd5b506102d7610bd5565b3480156103a4575f80fd5b506102d76103b3366004613cff565b610be7565b3480156103c3575f80fd5b506102d76103d2366004613d40565b610cd4565b6102d76103e5366004613eed565b610cee565b3480156103f5575f80fd5b506103fe610d09565b604051908152602001610257565b348015610417575f80fd5b5061042b610426366004613f49565b610d24565b6040516102579190614011565b348015610443575f80fd5b505f80516020614a088339815191525460ff1661024b565b348015610466575f80fd5b506102d7610475366004614031565b610f05565b348015610485575f80fd5b506102a0610494366004613ccd565b611623565b3480156104a4575f80fd5b506103fe6104b3366004613d27565b61162d565b3480156104c3575f80fd5b506102d7611685565b3480156104d7575f80fd5b506104eb6104e6366004613d27565b611696565b6040516001600160f01b039091168152602001610257565b34801561050e575f80fd5b506102d761051d3660046141c6565b6116f0565b34801561052d575f80fd5b506102d7611805565b348015610541575f80fd5b506102d7610550366004613d27565b611815565b348015610560575f80fd5b5061057461056f366004614235565b611885565b604051610257919061424e565b34801561058c575f80fd5b507f9016d09d72d40fdae2fd8ceac6b6234c7706214fd39c1cd1e609a0528c199300546001600160a01b03166102a0565b3480156105c8575f80fd5b5061027461189f565b6102d76105df3660046142f5565b6118dd565b3480156105ef575f80fd5b506102d76105fe366004614366565b611b3e565b34801561060e575f80fd5b50610274604051806040016040528060058152602001640352e302e360dc1b81525081565b34801561063e575f80fd5b506102d7611b49565b348015610652575f80fd5b506102d761032636600461439f565b34801561066c575f80fd5b505f80516020614a288339815191525460405163ffffffff9091168152602001610257565b34801561069c575f80fd5b506102746106ab366004613ccd565b611bc6565b3480156106bb575f80fd5b5061024b6106ca366004614402565b611c36565b3480156106da575f80fd5b506102d7611c82565b3480156106ee575f80fd5b506102d76106fd366004613d27565b611dcb565b34801561070d575f80fd5b506102d761071c366004614433565b611e08565b34801561072c575f80fd5b506102d761073b366004614492565b611ff6565b5f6001600160e01b031982166380ac58cd60e01b148061077057506001600160e01b03198216635b5e139f60e01b145b8061078b57506301ffc9a760e01b6001600160e01b03198316145b92915050565b5f805160206149c883398151915280546060919081906107b0906144d9565b80601f01602080910402602001604051908101604052809291908181526020018280546107dc906144d9565b80156108275780601f106107fe57610100808354040283529160200191610827565b820191905f5260205f20905b81548152906001019060200180831161080a57829003601f168201915b505050505091505090565b5f61083c82612104565b5061078b8261213b565b610851828233612174565b5050565b5f61078b5f805160206149a883398151915283612181565b60405163dc8d8db760e01b815260040160405180910390fd5b61088e6121a4565b5f805160206149a88339815191525f6108a782336121d4565b90506108b8338262ffffff16612211565b6108c68162ffffff1661224b565b5f80516020614a288339815191526108e081836004612283565b5f81600d018362ffffff16815481106108fb576108fb614511565b5f91825260208083206002600393840290910190810180546001600160e01b031662ffffff60e01b179055338452918701905260408220805462ffffff191662ffffff179055915061094b612307565b60408051338152602081018390529192507ffc30cddea38e2bf4d6ea7d3f9ed3b6ad7f176419f4963bd81318067a4aee73fe91015b60405180910390a15050505050565b60408051808201909152606081525f60208201525f80516020614a28833981519152805463ffffffff166109c4816002614539565b63ffffffff168463ffffffff161180610a04575060038163ffffffff1610158015610a0457506109f5600382614555565b63ffffffff168463ffffffff16105b15610a2f57604051634fadd4d360e11b815263ffffffff851660048201526024015b60405180910390fd5b8063ffffffff168463ffffffff1610610aeb5781545f90600490640100000000900460ff16610a5e8488614555565b610a689190614571565b610a72919061459e565b9050826009018160ff1660048110610a8c57610a8c614511565b01805460408051602080840282018101909252828152929190830182828015610adc57602002820191905f5260205f20905b81546001600160a01b03168152600190910190602001808311610abe575b50505091865250610bce915050565b5f81610af8866004614539565b610b029190614555565b83549091505f90600490610b22908490640100000000900460ff16614571565b610b2c919061459e565b9050836001018160ff1660048110610b4657610b46614511565b600202016040518060400160405290815f8201805480602002602001604051908101604052809291908181526020018280548015610bab57602002820191905f5260205f20905b81546001600160a01b03168152600190910190602001808311610b8d575b5050509183525050600191909101546001600160401b0316602090910152945050505b5050919050565b610bdd61240e565b610be5612469565b565b610bef61240e565b5f805160206149a8833981519152610c068361162d565b151580610c205750610c188184612181565b62ffffff1615155b15610c4957604051639fb0877960e01b81526001600160a01b0384166004820152602401610a26565b62ffffff821180610c7a57507faf33537d204b7c8488a91ad2a40f2c043712bad394401b7dd7bd4cb801f2310d5482105b15610c9b5760405163ed15e6cf60e01b815260048101839052602401610a26565b6001600160a01b0383165f9081526003820160205260409020805462ffffff191662ffffff8416179055610ccf83836124c8565b505050565b610ccf83838360405180602001604052805f81525061086d565b610cf6612529565b610cff826125cd565b61085182826125d5565b5f610d12612691565b505f805160206149e883398151915290565b610d606040805160e08101825260608082525f6020830181905292820183905281018290526080810182905260a081018290529060c082015290565b8162ffffff165f03610d8c57604051630c99f03b60e31b815262ffffff83166004820152602401610a26565b7faf33537d204b7c8488a91ad2a40f2c043712bad394401b7dd7bd4cb801f2310d80545f80516020614a28833981519152919062ffffff8516908110610dd457610dd4614511565b905f5260205f2090600302016040518060e00160405290815f82018054610dfa906144d9565b80601f0160208091040260200160405190810160405280929190818152602001828054610e26906144d9565b8015610e715780601f10610e4857610100808354040283529160200191610e71565b820191905f5260205f20905b815481529060010190602001808311610e5457829003601f168201915b50505091835250506001820154602082015260028201546001600160a01b038116604083015263ffffffff600160a01b820481166060840152600160c01b820416608083015262ffffff600160e01b82041660a083015260c09091019060ff600160f81b909104166004811115610eea57610eea613f62565b6004811115610efb57610efb613f62565b9052509392505050565b7ff0c57e16840df040f15088dc2f81fe391c3923bec73e23a9662efc9c229c6a008054600160401b810460ff1615906001600160401b03165f81158015610f495750825b90505f826001600160401b03166001148015610f645750303b155b905081158015610f72575080155b15610f905760405163f92ee8a960e01b815260040160405180910390fd5b845467ffffffffffffffff191660011785558315610fba57845460ff60401b1916600160401b1785555b86511580610fcb5750865162ffffff105b15610fe957604051637aa1b2ad60e01b815260040160405180910390fd5b610ff2866126da565b610ffa6126eb565b5f805160206149a883398151915280546001600160a01b0319166001600160a01b038c161781557f0636e6890fec58b60f710b53efa0ef8de81ca2fddce7e46303a60c9d416c74018a90557f0636e6890fec58b60f710b53efa0ef8de81ca2fddce7e46303a60c9d416c740289905587517faf33537d204b7c8488a91ad2a40f2c043712bad394401b7dd7bd4cb801f2310e555f80516020614a288339815191525f5b895181116115ce57805f036111cd5760408051610100810182525f60e08201818152825260208201819052918101829052606081018290526080810182905260a08101829052600d84019160c082015281546001810183555f928352602090922081519192600302019081906111139082614603565b506020820151600182015560408201516002820180546060850151608086015160a08701516001600160a01b039095166001600160c01b031990931692909217600160a01b63ffffffff928316021766ffffffffffffff60c01b1916600160c01b919092160262ffffff60e01b191617600160e01b62ffffff909316929092029190911780825560c084015191906001600160f81b0316600160f81b8360048111156111c1576111c1613f62565b021790555050506115be565b5f8a6111da6001846146bd565b815181106111ea576111ea614511565b60200260200101519050805f015151606014611219576040516333a234f960e11b815260040160405180910390fd5b602081015161123b57604051630e654cbb60e11b815260040160405180910390fd5b60408101516001600160a01b03166112665760405163a787424f60e01b815260040160405180910390fd5b606081015163ffffffff161561129d576060810151604051634fadd4d360e11b815263ffffffff9091166004820152602401610a26565b608081015163ffffffff16156112d4576060810151604051634fadd4d360e11b815263ffffffff9091166004820152602401610a26565b60028160c0015160048111156112ec576112ec613f62565b14611310578060c00151604051633ba7bf8960e11b8152600401610a2691906146d0565b818160a0015162ffffff16146113465760a0810151604051630c99f03b60e31b815262ffffff9091166004820152602401610a26565b5f5b600281116113fe5783600101816004811061136557611365614511565b60408401516002919091029190910180546001810182555f91825260209091200180546001600160a01b0319166001600160a01b039092169190911790556009840181600481106113b8576113b8614511565b6040840151910180546001810182555f91825260209091200180546001600160a01b0319166001600160a01b039092169190911790556113f7816146de565b9050611348565b506040818101516001600160a01b03165f9081527f0636e6890fec58b60f710b53efa0ef8de81ca2fddce7e46303a60c9d416c74036020908152918120805462ffffff191662ffffff8616179055600d850180546001810182559082529190208251849284926003909102019081906114779082614603565b506020820151600182015560408201516002820180546060850151608086015160a08701516001600160a01b039095166001600160c01b031990931692909217600160a01b63ffffffff928316021766ffffffffffffff60c01b1916600160c01b919092160262ffffff60e01b191617600160e01b62ffffff909316929092029190911780825560c084015191906001600160f81b0316600160f81b83600481111561152557611525613f62565b021790555050506115766040518060400160405280600c81526020016b10dbdb9cd95b9cdd5cd3919560a21b8152506040518060400160405280600481526020016310d3919560e21b8152506126fb565b6115848260400151826124c8565b7f0bebcb63ab4aff5cb3cb15181787716ad6dd1d68b6afd5b44bca2818e2a09b14826040516115b39190614011565b60405180910390a150505b6115c7816146de565b905061109d565b505050831561161757845460ff60401b19168555604051600181527fc7f505b2f371ae2175ee4913f4499e1f2633a7b5936321eed1cdaeb6115181d29060200160405180910390a15b50505050505050505050565b5f61078b82612104565b5f5f805160206149c88339815191526001600160a01b038316611665576040516322718ad960e21b81525f6004820152602401610a26565b6001600160a01b039092165f908152600390920160205250604090205490565b61168d61240e565b610be55f61270d565b6001600160a01b0381165f9081527f0636e6890fec58b60f710b53efa0ef8de81ca2fddce7e46303a60c9d416c740360205260408120600101545f805160206149a8833981519152906001600160f01b03165b9392505050565b336002600160a01b031461171957604051637eb3357160e01b8152336004820152602401610a26565b5f5f80516020614a2883398151915290505f611767828585808060200260200160405190810160405280939291908181526020018383602002808284375f9201919091525061277d92505050565b90505f61177a838363ffffffff16612938565b90506117868185612c4a565b60408051606060208702808301820184529282018781527f5ff8d960b4f93b2c7446797caff56b01788bc41a1825b67f5058461ee3ec4b889383928a918a918291908601908490808284375f920191909152505050908252506020016117ed4360016146f6565b6001600160401b031690526040516109809190613da6565b61180d61240e565b610be5612d37565b61181d61240e565b5f805160206149a88339815191525f6118368284612181565b62ffffff1690506118468361162d565b6001141580611853575080155b1561187c57604051633b4f6e2b60e21b81526001600160a01b0384166004820152602401610a26565b610ccf8161224b565b60605f80516020614a288339815191526116e98184612d7f565b7f80bb2b638cc20bc4d0a60d66940f3ab4a00c1d7b313497ca82fb0b4ab007930180546060915f805160206149c8833981519152916107b0906144d9565b6118e56121a4565b60608414611906576040516333a234f960e11b815260040160405180910390fd5b60608214611927576040516309bde33960e01b815260040160405180910390fd5b611930346130b1565b5f80516020614a288339815191525f6119565f805160206149a883398151915233612181565b90508062ffffff165f0361197f57604051633b4f6e2b60e21b8152336004820152602401610a26565b61198e338262ffffff16612211565b81545f906119a39063ffffffff166002614539565b90505f6040518060e001604052808a8a8080601f0160208091040260200160405190810160405280939291908181526020018383808284375f9201829052509385525050506020820188905233604083015263ffffffff85166060830152608082015262ffffff851660a082015260c00160019052600d850180546001810182555f918252602090912082519293508392600390920201908190611a479082614603565b506020820151600182015560408201516002820180546060850151608086015160a08701516001600160a01b039095166001600160c01b031990931692909217600160a01b63ffffffff928316021766ffffffffffffff60c01b1916600160c01b919092160262ffffff60e01b191617600160e01b62ffffff909316929092029190911780825560c084015191906001600160f81b0316600160f81b836004811115611af557611af5613f62565b021790555050507f33677bd3b4a472cc3ee6bd874aba85d71efc5b5bdea76103bbc51271c84e791981604051611b2b9190614011565b60405180910390a1505050505050505050565b610851338383613103565b611b516121a4565b5f805160206149a88339815191525f611b6a82336121d4565b9050611b7b338262ffffff16612211565b5f611b85836131b2565b60408051338152602081018390529192507ffc30cddea38e2bf4d6ea7d3f9ed3b6ad7f176419f4963bd81318067a4aee73fe910160405180910390a1505050565b6060611bd182612104565b505f611be760408051602081019091525f815290565b90505f815111611c055760405180602001604052805f8152506116e9565b80611c0f84613247565b604051602001611c20929190614709565b6040516020818303038152906040529392505050565b6001600160a01b039182165f9081527f80bb2b638cc20bc4d0a60d66940f3ab4a00c1d7b313497ca82fb0b4ab00793056020908152604080832093909416825291909152205460ff1690565b611c8a6121a4565b5f611ca35f805160206149a88339815191525b336121d4565b9050611cb4338262ffffff16612211565b5f611cbe336132d7565b90505f80516020614a288339815191525f611cda826002612d7f565b5190505f826001018460ff1660048110611cf657611cf6614511565b60020201549050611d078282612c4a565b611d1383866002612283565b5f83600d018662ffffff1681548110611d2e57611d2e614511565b5f9182526020822086546003909202019250611d519063ffffffff166002614539565b600283018054600360f81b600166ffffff0000000160c01b039091166001600160f81b03600160c01b63ffffffff86160216171790556040519091507fee617ca6df5ca418ee4c57be4d33adf66405023189f2cd107d5dddb5a560b85790611dba908490614817565b60405180910390a150505050505050565b611dd361240e565b6001600160a01b038116611dfc57604051631e4fbdf760e01b81525f6004820152602401610a26565b611e058161270d565b50565b336002600160a01b0314611e3157604051637eb3357160e01b8152336004820152602401610a26565b5f80516020614a28833981519152805463ffffffff165f5b83811015611fef575f858583818110611e6457611e64614511565b611e7a9260206040909202019081019150613f49565b90505f84600d018262ffffff1681548110611e9757611e97614511565b905f5260205f20906003020190508060020160149054906101000a900463ffffffff1663ffffffff168463ffffffff1611611ee8576001604051633ba7bf8960e11b8152600401610a2691906146d0565b84600e01548262ffffff161115611f2c576002810154600160a01b900463ffffffff165f03611f2c575f604051633ba7bf8960e11b8152600401610a2691906146d0565b60028101546001600160a01b03165f888886818110611f4d57611f4d614511565b9050604002016020016020810190611f659190614829565b6001600160a01b0383165f9081527f0636e6890fec58b60f710b53efa0ef8de81ca2fddce7e46303a60c9d416c74036020526040812060010180549293508392909190611fbc9084906001600160f01b031661484f565b92506101000a8154816001600160f01b0302191690836001600160f01b0316021790555050505050806001019050611e49565b5050505050565b611ffe6121a4565b5f6120155f805160206149a8833981519152611c9d565b9050612026338262ffffff16612211565b5f80516020614a2883398151915261204081836004612283565b5f81600d018362ffffff168154811061205b5761205b614511565b5f918252602082208454600390920201925061207e9063ffffffff166002614539565b600283018054600160f81b60016affffffffffffff0000000160a01b039091166001600160f81b03600160a01b63ffffffff8616021617179055905085156120ce57816120cc87898361486e565b505b600182018590557f33677bd3b4a472cc3ee6bd874aba85d71efc5b5bdea76103bbc51271c84e791982604051611dba9190614817565b5f8061210f836134f3565b90506001600160a01b03811661078b57604051637e27328960e01b815260048101849052602401610a26565b5f9081527f80bb2b638cc20bc4d0a60d66940f3ab4a00c1d7b313497ca82fb0b4ab007930460205260409020546001600160a01b031690565b610ccf838383600161352c565b6001600160a01b03165f908152600391909101602052604090205462ffffff1690565b5f80516020614a088339815191525460ff1615610be55760405163d93c066560e01b815260040160405180910390fd5b5f6121df8383612181565b90508062ffffff165f0361078b57604051633b4f6e2b60e21b81526001600160a01b0383166004820152602401610a26565b816001600160a01b0316612224826134f3565b6001600160a01b031614610851576040516330fa89ab60e11b815260040160405180910390fd5b5f6122575f835f61363f565b90506001600160a01b03811661085157604051637e27328960e01b815260048101839052602401610a26565b5f83600d018362ffffff168154811061229e5761229e614511565b905f5260205f209060030201600201601f9054906101000a900460ff1690508160048111156122cf576122cf613f62565b8160048111156122e1576122e1613f62565b146123015780604051633ba7bf8960e11b8152600401610a2691906146d0565b50505050565b5f805f805160206149a8833981519152335f8181526003830160205260409081902060010180546001600160f01b0319811690915583549151634875485760e11b815260048101939093526001600160f01b0316602483018190529293506001600160a01b0316906390ea90ae906044015f604051808303815f87803b15801561238f575f80fd5b505af11580156123a1573d5f803e3d5ffd5b5050505060018201546040515f90339083908381818185875af1925050503d805f81146123e9576040519150601f19603f3d011682016040523d82523d5f602084013e6123ee565b606091505b50509050806123fb575f80fd5b61240583836146f6565b94505050505090565b336124407f9016d09d72d40fdae2fd8ceac6b6234c7706214fd39c1cd1e609a0528c199300546001600160a01b031690565b6001600160a01b031614610be55760405163118cdaa760e01b8152336004820152602401610a26565b612471613741565b5f80516020614a08833981519152805460ff191681557f5db9ee0a495bf2e6ff9c91a7834c1ba4fdd244a5e8aa4e537bd38aeae4b073aa335b6040516001600160a01b03909116815260200160405180910390a150565b6001600160a01b0382166124f157604051633250574960e11b81525f6004820152602401610a26565b5f6124fd83835f61363f565b90506001600160a01b03811615610ccf576040516339e3563760e11b81525f6004820152602401610a26565b306001600160a01b037f00000000000000000000000000000000000000000000000000000000000000001614806125af57507f00000000000000000000000000000000000000000000000000000000000000006001600160a01b03166125a35f805160206149e8833981519152546001600160a01b031690565b6001600160a01b031614155b15610be55760405163703e46dd60e11b815260040160405180910390fd5b611e0561240e565b816001600160a01b03166352d1902d6040518163ffffffff1660e01b8152600401602060405180830381865afa92505050801561262f575060408051601f3d908101601f1916820190925261262c91810190614927565b60015b61265757604051634c9c8ce360e01b81526001600160a01b0383166004820152602401610a26565b5f805160206149e8833981519152811461268757604051632a87526960e21b815260048101829052602401610a26565b610ccf8383613770565b306001600160a01b037f00000000000000000000000000000000000000000000000000000000000000001614610be55760405163703e46dd60e11b815260040160405180910390fd5b6126e26137c5565b611e058161380e565b6126f36137c5565b610be5613816565b6127036137c5565b6108518282613836565b7f9016d09d72d40fdae2fd8ceac6b6234c7706214fd39c1cd1e609a0528c19930080546001600160a01b031981166001600160a01b03848116918217845560405192169182907f8be0079c531659141344cd1fd0a4f28419497f9722a3daafe3b4186f6b6457e0905f90a3505050565b81545f90640100000000900460ff1681600461279a836001614571565b6127a4919061459e565b90505f856009018260ff16600481106127bf576127bf614511565b60408051929091018054606060208202850181018452928401818152919450839285919084018282801561281a57602002820191905f5260205f20905b81546001600160a01b031681526001909101906020018083116127fc575b50505050508152602001436001600160401b0316815250866001018360ff166004811061284957612849614511565b600202015f820151815f019080519060200190612867929190613bd0565b50602091909101516001909101805467ffffffffffffffff19166001600160401b03909216919091179055855464ff0000000019811664010000000060ff851602908117885587915f916128c59163ffffffff90811691161761493e565b91906101000a81548163ffffffff021916908363ffffffff160217905593505f60048360026128f49190614571565b6128fe919061459e565b905085876009018260ff166004811061291957612919614511565b825161292d93929091019160200190613bd0565b505050505092915050565b5f600d8301815b8154811015612c35575f82828154811061295b5761295b614511565b905f5260205f2090600302016040518060e00160405290815f82018054612981906144d9565b80601f01602080910402602001604051908101604052809291908181526020018280546129ad906144d9565b80156129f85780601f106129cf576101008083540402835291602001916129f8565b820191905f5260205f20905b8154815290600101906020018083116129db57829003601f168201915b50505091835250506001820154602082015260028201546001600160a01b038116604083015263ffffffff600160a01b820481166060840152600160c01b820416608083015262ffffff600160e01b82041660a083015260c09091019060ff600160f81b909104166004811115612a7157612a71613f62565b6004811115612a8257612a82613f62565b905250905060018160c001516004811115612a9f57612a9f613f62565b03612b5c5784816060015163ffffffff1603612b57576002838381548110612ac957612ac9614511565b5f918252602090912060026003909202010180546001600160f81b0316600160f81b836004811115612afd57612afd613f62565b02179055507f0bebcb63ab4aff5cb3cb15181787716ad6dd1d68b6afd5b44bca2818e2a09b14838381548110612b3557612b35614511565b905f5260205f209060030201604051612b4e9190614817565b60405180910390a15b612c2c565b60038160c001516004811115612b7457612b74613f62565b03612c2c5784816080015163ffffffff1603612c2c576004838381548110612b9e57612b9e614511565b5f918252602090912060026003909202010180546001600160f81b0316600160f81b836004811115612bd257612bd2613f62565b02179055507f06c5719db73807602d665f93791b166e95088489e4180edb6564f7ce2285a69c838381548110612c0a57612c0a614511565b905f5260205f209060030201604051612c239190614817565b60405180910390a15b5060010161293f565b50612c41846002612d7f565b51949350505050565b815f03612c7357604051635700689f60e11b81525f600482018190526024820152604401610a26565b81811115612c9e57604051635700689f60e11b81526004810183905260248101829052604401610a26565b60048211158015612caf5750818114155b15612cd757604051635700689f60e11b81526004810183905260248101829052604401610a26565b5f6003612ce684612710614962565b612cf09190614979565b90505f612cff61271083614979565b612d0a9060016146f6565b90508083101561230157604051635700689f60e11b81526004810182905260248101849052604401610a26565b612d3f6121a4565b5f80516020614a08833981519152805460ff191660011781557f62e78cea01bee320cd4e420270b5ea74000d11b0c9f74754ebdbfc544b05a258336124aa565b60605f83600d01805480602002602001604051908101604052809291908181526020015f905b82821015612ee9578382905f5260205f2090600302016040518060e00160405290815f82018054612dd5906144d9565b80601f0160208091040260200160405190810160405280929190818152602001828054612e01906144d9565b8015612e4c5780601f10612e2357610100808354040283529160200191612e4c565b820191905f5260205f20905b815481529060010190602001808311612e2f57829003601f168201915b50505091835250506001820154602082015260028201546001600160a01b038116604083015263ffffffff600160a01b820481166060840152600160c01b820416608083015262ffffff600160e01b82041660a083015260c09091019060ff600160f81b909104166004811115612ec557612ec5613f62565b6004811115612ed657612ed6613f62565b8152505081526020019060010190612da5565b509293505f9250612ef8915050565b836004811115612f0a57612f0a613f62565b03612f1657905061078b565b5f805b8251811015612f7c57846004811115612f3457612f34613f62565b838281518110612f4657612f46614511565b602002602001015160c001516004811115612f6357612f63613f62565b03612f7457612f71826146de565b91505b600101612f19565b505f816001600160401b03811115612f9657612f96613e16565b60405190808252806020026020018201604052801561300357816020015b612ff06040805160e08101825260608082525f6020830181905292820183905281018290526080810182905260a081018290529060c082015290565b815260200190600190039081612fb45790505b5090505f805b84518110156130a45786600481111561302457613024613f62565b85828151811061303657613036614511565b602002602001015160c00151600481111561305357613053613f62565b0361309c5784818151811061306a5761306a614511565b602002602001015183838151811061308457613084614511565b602002602001018190525081613099906146de565b91505b600101613009565b508194505050505061078b565b7f0636e6890fec58b60f710b53efa0ef8de81ca2fddce7e46303a60c9d416c7401545f805160206149a88339815191529082146108515760405163222d164360e21b8152346004820152602401610a26565b5f805160206149c88339815191526001600160a01b03831661314357604051630b61174360e31b81526001600160a01b0384166004820152602401610a26565b6001600160a01b038481165f818152600584016020908152604080832094881680845294825291829020805460ff191687151590811790915591519182527f17307eab39ab6107e8899845ad3d59bd9653f200f220920489ca2b5937696c31910160405180910390a350505050565b5f6131bd8233613866565b335f8181526003850160205260409081902060010180546001600160f01b031916905584549051634875485760e11b81526004810192909252602482018390529192506001600160a01b03909116906390ea90ae906044015f604051808303815f87803b15801561322c575f80fd5b505af115801561323e573d5f803e3d5ffd5b50505050919050565b60605f613253836138b7565b60010190505f816001600160401b0381111561327157613271613e16565b6040519080825280601f01601f19166020018201604052801561329b576020820181803683370190505b5090508181016020015b5f19016f181899199a1a9b1b9c1cb0b131b232b360811b600a86061a8153600a85049450846132a5575b509392505050565b5f80516020614a288339815191528054640100000000900460ff16905f7faf33537d204b7c8488a91ad2a40f2c043712bad394401b7dd7bd4cb801f23101836004811061332657613326614511565b6002020180549091505f5b8181101561339a57856001600160a01b031683828154811061335557613355614511565b5f918252602090912001546001600160a01b0316036133925760405163836e3a7d60e01b81526001600160a01b0387166004820152602401610a26565b600101613331565b505f60046133a9866001614571565b6133b3919061459e565b90505f846009018260ff16600481106133ce576133ce614511565b0180549091505f5b8181101561343f57886001600160a01b03168382815481106133fa576133fa614511565b5f918252602090912001546001600160a01b0316036134375760405163836e3a7d60e01b81526001600160a01b038a166004820152602401610a26565b6001016133d6565b505f600461344e896002614571565b613458919061459e565b90505f876009018260ff166004811061347357613473614511565b0180549091505f5b818110156134e4578b6001600160a01b031683828154811061349f5761349f614511565b5f918252602090912001546001600160a01b0316036134dc5760405163836e3a7d60e01b81526001600160a01b038d166004820152602401610a26565b60010161347b565b50505050505050505050919050565b5f9081527f80bb2b638cc20bc4d0a60d66940f3ab4a00c1d7b313497ca82fb0b4ab007930260205260409020546001600160a01b031690565b5f805160206149c8833981519152818061354e57506001600160a01b03831615155b1561360f575f61355d85612104565b90506001600160a01b038416158015906135895750836001600160a01b0316816001600160a01b031614155b801561359c575061359a8185611c36565b155b156135c55760405163a9fbf51f60e01b81526001600160a01b0385166004820152602401610a26565b821561360d5784866001600160a01b0316826001600160a01b03167f8c5be1e5ebec7d5bd14f71427d1e84f3dd0314c0f7b2291e5b200ac8c7c3b92560405160405180910390a45b505b5f93845260040160205250506040902080546001600160a01b0319166001600160a01b0392909216919091179055565b5f5f805160206149c883398151915281613658856134f3565b90506001600160a01b038416156136745761367481858761398e565b6001600160a01b038116156136b05761368f5f865f8061352c565b6001600160a01b0381165f908152600383016020526040902080545f190190555b6001600160a01b038616156136e0576001600160a01b0386165f9081526003830160205260409020805460010190555b5f85815260028301602052604080822080546001600160a01b0319166001600160a01b038a811691821790925591518893918516917fddf252ad1be2c89b69c2b068fc378daa952ba7f163c4a11628f55a4df523b3ef91a495945050505050565b5f80516020614a088339815191525460ff16610be557604051638dfc202b60e01b815260040160405180910390fd5b613779826139f2565b6040516001600160a01b038316907fbc7cd75a20ee27fd9adebab32041f755214dbc6bffa90cc0225b39da2e5c2d3b905f90a28051156137bd57610ccf8282613a55565b610851613ac7565b7ff0c57e16840df040f15088dc2f81fe391c3923bec73e23a9662efc9c229c6a0054600160401b900460ff16610be557604051631afcd79f60e31b815260040160405180910390fd5b611dd36137c5565b61381e6137c5565b5f80516020614a08833981519152805460ff19169055565b61383e6137c5565b5f805160206149c8833981519152806138578482614603565b50600181016123018382614603565b6001600160a01b0381165f90815260038301602052604090206001015460028301546001600160f01b039091169081101561078b57604051633737b70960e11b815260048101829052602401610a26565b5f8072184f03e93ff9f4daa797ed6e38ed64bf6a1f0160401b83106138f55772184f03e93ff9f4daa797ed6e38ed64bf6a1f0160401b830492506040015b6d04ee2d6d415b85acef81000000008310613921576d04ee2d6d415b85acef8100000000830492506020015b662386f26fc10000831061393f57662386f26fc10000830492506010015b6305f5e1008310613957576305f5e100830492506008015b612710831061396b57612710830492506004015b6064831061397d576064830492506002015b600a831061078b5760010192915050565b613999838383613ae6565b610ccf576001600160a01b0383166139c757604051637e27328960e01b815260048101829052602401610a26565b60405163177e802f60e01b81526001600160a01b038316600482015260248101829052604401610a26565b806001600160a01b03163b5f03613a2757604051634c9c8ce360e01b81526001600160a01b0382166004820152602401610a26565b5f805160206149e883398151915280546001600160a01b0319166001600160a01b0392909216919091179055565b60605f80846001600160a01b031684604051613a71919061498c565b5f60405180830381855af49150503d805f8114613aa9576040519150601f19603f3d011682016040523d82523d5f602084013e613aae565b606091505b5091509150613abe858383613b4b565b95945050505050565b3415610be55760405163b398979f60e01b815260040160405180910390fd5b5f6001600160a01b03831615801590613b435750826001600160a01b0316846001600160a01b03161480613b1f5750613b1f8484611c36565b80613b435750826001600160a01b0316613b388361213b565b6001600160a01b0316145b949350505050565b606082613b6057613b5b82613ba7565b6116e9565b8151158015613b7757506001600160a01b0384163b155b15613ba057604051639996b31560e01b81526001600160a01b0385166004820152602401610a26565b50806116e9565b805115613bb75780518082602001fd5b604051630a12f52160e11b815260040160405180910390fd5b828054828255905f5260205f20908101928215613c23579160200282015b82811115613c2357825182546001600160a01b0319166001600160a01b03909116178255602090920191600190910190613bee565b50613c2f929150613c33565b5090565b5b80821115613c2f575f8155600101613c34565b5f60208284031215613c57575f80fd5b81356001600160e01b0319811681146116e9575f80fd5b5f5b83811015613c88578181015183820152602001613c70565b50505f910152565b5f8151808452613ca7816020860160208601613c6e565b601f01601f19169290920160200192915050565b602081525f6116e96020830184613c90565b5f60208284031215613cdd575f80fd5b5035919050565b80356001600160a01b0381168114613cfa575f80fd5b919050565b5f8060408385031215613d10575f80fd5b613d1983613ce4565b946020939093013593505050565b5f60208284031215613d37575f80fd5b6116e982613ce4565b5f805f60608486031215613d52575f80fd5b613d5b84613ce4565b9250613d6960208501613ce4565b929592945050506040919091013590565b803563ffffffff81168114613cfa575f80fd5b5f60208284031215613d9d575f80fd5b6116e982613d7a565b602080825282516040838301528051606084018190525f929190910190829060808501905b80831015613df65783516001600160a01b031682526020938401936001939093019290910190613dcb565b506001600160401b03602087015116604086015280935050505092915050565b634e487b7160e01b5f52604160045260245ffd5b60405160e081016001600160401b0381118282101715613e4c57613e4c613e16565b60405290565b604051601f8201601f191681016001600160401b0381118282101715613e7a57613e7a613e16565b604052919050565b5f82601f830112613e91575f80fd5b81356001600160401b03811115613eaa57613eaa613e16565b613ebd601f8201601f1916602001613e52565b818152846020838601011115613ed1575f80fd5b816020850160208301375f918101602001919091529392505050565b5f8060408385031215613efe575f80fd5b613f0783613ce4565b915060208301356001600160401b03811115613f21575f80fd5b613f2d85828601613e82565b9150509250929050565b803562ffffff81168114613cfa575f80fd5b5f60208284031215613f59575f80fd5b6116e982613f37565b634e487b7160e01b5f52602160045260245ffd5b60058110613f9257634e487b7160e01b5f52602160045260245ffd5b9052565b5f815160e08452613faa60e0850182613c90565b90506020830151602085015260018060a01b03604084015116604085015263ffffffff606084015116606085015263ffffffff608084015116608085015260a0830151613ffe60a086018262ffffff169052565b5060c08301516132cf60c0860182613f76565b602081525f6116e96020830184613f96565b803560058110613cfa575f80fd5b5f805f805f60a08688031215614045575f80fd5b61404e86613ce4565b9450602086013593506040860135925060608601356001600160401b03811115614076575f80fd5b8601601f81018813614086575f80fd5b80356001600160401b0381111561409f5761409f613e16565b8060051b6140af60208201613e52565b9182526020818401810192908101908b8411156140ca575f80fd5b6020850192505b838310156141a65782356001600160401b038111156140ee575f80fd5b850160e0818e03601f19011215614103575f80fd5b61410b613e2a565b60208201356001600160401b03811115614123575f80fd5b6141328f602083860101613e82565b8252506040820135602082015261414b60608301613ce4565b604082015261415c60808301613d7a565b606082015261416d60a08301613d7a565b608082015261417e60c08301613f37565b60a082015261418f60e08301614023565b60c0820152835250602092830192909101906140d1565b80965050505050506141ba60808701613ce4565b90509295509295909350565b5f80602083850312156141d7575f80fd5b82356001600160401b038111156141ec575f80fd5b8301601f810185136141fc575f80fd5b80356001600160401b03811115614211575f80fd5b8560208260051b8401011115614225575f80fd5b6020919091019590945092505050565b5f60208284031215614245575f80fd5b6116e982614023565b5f602082016020835280845180835260408501915060408160051b8601019250602086015f5b828110156142a557603f19878603018452614290858351613f96565b94506020938401939190910190600101614274565b50929695505050505050565b5f8083601f8401126142c1575f80fd5b5081356001600160401b038111156142d7575f80fd5b6020830191508360208285010111156142ee575f80fd5b9250929050565b5f805f805f60608688031215614309575f80fd5b85356001600160401b0381111561431e575f80fd5b61432a888289016142b1565b90965094505060208601356001600160401b03811115614348575f80fd5b614354888289016142b1565b96999598509660400135949350505050565b5f8060408385031215614377575f80fd5b61438083613ce4565b915060208301358015158114614394575f80fd5b809150509250929050565b5f805f80608085870312156143b2575f80fd5b6143bb85613ce4565b93506143c960208601613ce4565b92506040850135915060608501356001600160401b038111156143ea575f80fd5b6143f687828801613e82565b91505092959194509250565b5f8060408385031215614413575f80fd5b61441c83613ce4565b915061442a60208401613ce4565b90509250929050565b5f8060208385031215614444575f80fd5b82356001600160401b03811115614459575f80fd5b8301601f81018513614469575f80fd5b80356001600160401b0381111561447e575f80fd5b8560208260061b8401011115614225575f80fd5b5f805f604084860312156144a4575f80fd5b83356001600160401b038111156144b9575f80fd5b6144c5868287016142b1565b909790965060209590950135949350505050565b600181811c908216806144ed57607f821691505b60208210810361450b57634e487b7160e01b5f52602260045260245ffd5b50919050565b634e487b7160e01b5f52603260045260245ffd5b634e487b7160e01b5f52601160045260245ffd5b63ffffffff818116838216019081111561078b5761078b614525565b63ffffffff828116828216039081111561078b5761078b614525565b60ff818116838216019081111561078b5761078b614525565b634e487b7160e01b5f52601260045260245ffd5b5f60ff8316806145b0576145b061458a565b8060ff84160691505092915050565b601f821115610ccf57805f5260205f20601f840160051c810160208510156145e45750805b601f840160051c820191505b81811015611fef575f81556001016145f0565b81516001600160401b0381111561461c5761461c613e16565b6146308161462a84546144d9565b846145bf565b6020601f821160018114614662575f831561464b5750848201515b5f19600385901b1c1916600184901b178455611fef565b5f84815260208120601f198516915b828110156146915787850151825560209485019460019092019101614671565b50848210156146ae57868401515f19600387901b60f8161c191681555b50505050600190811b01905550565b8181038181111561078b5761078b614525565b6020810161078b8284613f76565b5f600182016146ef576146ef614525565b5060010190565b8082018082111561078b5761078b614525565b5f835161471a818460208801613c6e565b83519083019061472e818360208801613c6e565b01949350505050565b60e082525f808254614748816144d9565b8060e0870152600182165f81146147665760018114614784576147b7565b60ff19831661010088015261010082151560051b88010193506147b7565b855f5260205f205f5b838110156147ad578154898201610100015260019091019060200161478d565b8801610100019450505b5050506001830154602085015260028301546001600160a01b038116604086015260a081901c63ffffffff16606086015260c081901c63ffffffff16608086015260e081901c62ffffff1660a08601526132cf60c086018260f81c613f76565b602081525f6116e96020830184614737565b5f60208284031215614839575f80fd5b81356001600160f01b03811681146116e9575f80fd5b6001600160f01b03818116838216019081111561078b5761078b614525565b6001600160401b0383111561488557614885613e16565b6148998361489383546144d9565b836145bf565b5f601f8411600181146148ca575f85156148b35750838201355b5f19600387901b1c1916600186901b178355611fef565b5f83815260208120601f198716915b828110156148f957868501358255602094850194600190920191016148d9565b5086821015614915575f1960f88860031b161c19848701351681555b505060018560011b0183555050505050565b5f60208284031215614937575f80fd5b5051919050565b5f63ffffffff821663ffffffff810361495957614959614525565b60010192915050565b808202811582820484141761078b5761078b614525565b5f826149875761498761458a565b500490565b5f825161499d818460208701613c6e565b919091019291505056fe0636e6890fec58b60f710b53efa0ef8de81ca2fddce7e46303a60c9d416c740080bb2b638cc20bc4d0a60d66940f3ab4a00c1d7b313497ca82fb0b4ab0079300360894a13ba1a3210667c828492db98dca3e2076cc3735a920a3ca505d382bbccd5ed15c6e187e77e9aee88184c21f4f2182ab5827cb3b7e07fbedcd63f03300af33537d204b7c8488a91ad2a40f2c043712bad394401b7dd7bd4cb801f23100a164736f6c634300081a000a",
    "linkReferences": {}
  },
  "methodIdentifiers": {
    "SYSTEM_ADDRESS()": "3434735f",
    "UPGRADE_INTERFACE_VERSION()": "ad3cb1cc",
    "approve(address,uint256)": "095ea7b3",
    "balanceOf(address)": "70a08231",
    "burn(address)": "89afcb44",
    "claimStakeRewards()": "b46d32a3",
    "concludeEpoch(address[])": "7b55a300",
    "exit()": "e9fad8ee",
    "getApproved(uint256)": "081812fc",
    "getCurrentEpoch()": "b97dd9e2",
    "getEpochInfo(uint32)": "374ed18c",
    "getRewards(address)": "79ee54f7",
    "getValidatorByIndex(uint24)": "59cfa894",
    "getValidatorIndex(address)": "1fcc449e",
    "getValidators(uint8)": "8cc05eda",
    "incrementRewards((uint24,uint240)[])": "fcf1779a",
    "initialize(address,uint256,uint256,(bytes,bytes32,address,uint32,uint32,uint24,uint8)[],address)": "61af9e69",
    "isApprovedForAll(address,address)": "e985e9c5",
    "mint(address,uint256)": "40c10f19",
    "name()": "06fdde03",
    "owner()": "8da5cb5b",
    "ownerOf(uint256)": "6352211e",
    "pause()": "8456cb59",
    "paused()": "5c975abb",
    "proxiableUUID()": "52d1902d",
    "rejoin(bytes,bytes32)": "fe08af3a",
    "renounceOwnership()": "715018a6",
    "safeTransferFrom(address,address,uint256)": "42842e0e",
    "safeTransferFrom(address,address,uint256,bytes)": "b88d4fde",
    "setApprovalForAll(address,bool)": "a22cb465",
    "stake(bytes,bytes,bytes32)": "9b4e4634",
    "supportsInterface(bytes4)": "01ffc9a7",
    "symbol()": "95d89b41",
    "tokenURI(uint256)": "c87b56dd",
    "transferFrom(address,address,uint256)": "23b872dd",
    "transferOwnership(address)": "f2fde38b",
    "unpause()": "3f4ba83a",
    "unstake()": "2def6620",
    "upgradeToAndCall(address,bytes)": "4f1ef286"
  },
  "id": 129
}