{
  "abi": [
    {
      "type": "constructor",
      "inputs": [
        {
          "name": "consensusRegistry_",
          "type": "address",
          "internalType": "address"
        },
        {
          "name": "gateway_",
          "type": "address",
          "internalType": "address"
        },
        {
          "name": "name_",
          "type": "string",
          "internalType": "string"
        },
        {
          "name": "symbol_",
          "type": "string",
          "internalType": "string"
        },
        {
          "name": "recoverableWindow_",
          "type": "uint256",
          "internalType": "uint256"
        },
        {
          "name": "governanceAddress_",
          "type": "address",
          "internalType": "address"
        },
        {
          "name": "baseERC20_",
          "type": "address",
          "internalType": "address"
        },
        {
          "name": "maxToClean",
          "type": "uint16",
          "internalType": "uint16"
        }
      ],
      "stateMutability": "nonpayable"
    },
    {
      "type": "function",
      "name": "UPGRADE_INTERFACE_VERSION",
      "inputs": [],
      "outputs": [
        {
          "name": "",
          "type": "string",
          "internalType": "string"
        }
      ],
      "stateMutability": "view"
    },
    {
      "type": "function",
      "name": "allowance",
      "inputs": [
        {
          "name": "owner",
          "type": "address",
          "internalType": "address"
        },
        {
          "name": "spender",
          "type": "address",
          "internalType": "address"
        }
      ],
      "outputs": [
        {
          "name": "",
          "type": "uint256",
          "internalType": "uint256"
        }
      ],
      "stateMutability": "view"
    },
    {
      "type": "function",
      "name": "approve",
      "inputs": [
        {
          "name": "spender",
          "type": "address",
          "internalType": "address"
        },
        {
          "name": "amount",
          "type": "uint256",
          "internalType": "uint256"
        }
      ],
      "outputs": [
        {
          "name": "",
          "type": "bool",
          "internalType": "bool"
        }
      ],
      "stateMutability": "nonpayable"
    },
    {
      "type": "function",
      "name": "balanceOf",
      "inputs": [
        {
          "name": "account",
          "type": "address",
          "internalType": "address"
        }
      ],
      "outputs": [
        {
          "name": "",
          "type": "uint256",
          "internalType": "uint256"
        }
      ],
      "stateMutability": "view"
    },
    {
      "type": "function",
      "name": "balanceOf",
      "inputs": [
        {
          "name": "account",
          "type": "address",
          "internalType": "address"
        },
        {
          "name": "includeUnsettled",
          "type": "bool",
          "internalType": "bool"
        }
      ],
      "outputs": [
        {
          "name": "",
          "type": "uint256",
          "internalType": "uint256"
        }
      ],
      "stateMutability": "view"
    },
    {
      "type": "function",
      "name": "baseToken",
      "inputs": [],
      "outputs": [
        {
          "name": "",
          "type": "address",
          "internalType": "address"
        }
      ],
      "stateMutability": "view"
    },
    {
      "type": "function",
      "name": "cancelOwnershipHandover",
      "inputs": [],
      "outputs": [],
      "stateMutability": "payable"
    },
    {
      "type": "function",
      "name": "closeCase",
      "inputs": [
        {
          "name": "recover",
          "type": "bool",
          "internalType": "bool"
        },
        {
          "name": "victim",
          "type": "address",
          "internalType": "address"
        },
        {
          "name": "freezes",
          "type": "tuple[]",
          "internalType": "struct Suspension[]",
          "components": [
            {
              "name": "account",
              "type": "address",
              "internalType": "address"
            },
            {
              "name": "rawIndex",
              "type": "uint256",
              "internalType": "uint256"
            },
            {
              "name": "amount",
              "type": "uint128",
              "internalType": "uint128"
            }
          ]
        }
      ],
      "outputs": [
        {
          "name": "",
          "type": "bool",
          "internalType": "bool"
        }
      ],
      "stateMutability": "nonpayable"
    },
    {
      "type": "function",
      "name": "completeOwnershipHandover",
      "inputs": [
        {
          "name": "pendingOwner",
          "type": "address",
          "internalType": "address"
        }
      ],
      "outputs": [],
      "stateMutability": "payable"
    },
    {
      "type": "function",
      "name": "decimals",
      "inputs": [],
      "outputs": [
        {
          "name": "",
          "type": "uint8",
          "internalType": "uint8"
        }
      ],
      "stateMutability": "view"
    },
    {
      "type": "function",
      "name": "decreaseAllowance",
      "inputs": [
        {
          "name": "spender",
          "type": "address",
          "internalType": "address"
        },
        {
          "name": "subtractedValue",
          "type": "uint256",
          "internalType": "uint256"
        }
      ],
      "outputs": [
        {
          "name": "",
          "type": "bool",
          "internalType": "bool"
        }
      ],
      "stateMutability": "nonpayable"
    },
    {
      "type": "function",
      "name": "disableUnwrap",
      "inputs": [],
      "outputs": [],
      "stateMutability": "nonpayable"
    },
    {
      "type": "function",
      "name": "distributeStakeReward",
      "inputs": [
        {
          "name": "validator",
          "type": "address",
          "internalType": "address"
        },
        {
          "name": "rewardAmount",
          "type": "uint256",
          "internalType": "uint256"
        }
      ],
      "outputs": [],
      "stateMutability": "nonpayable"
    },
    {
      "type": "function",
      "name": "execute",
      "inputs": [
        {
          "name": "commandId",
          "type": "bytes32",
          "internalType": "bytes32"
        },
        {
          "name": "sourceChain",
          "type": "string",
          "internalType": "string"
        },
        {
          "name": "sourceAddress",
          "type": "string",
          "internalType": "string"
        },
        {
          "name": "payload",
          "type": "bytes",
          "internalType": "bytes"
        }
      ],
      "outputs": [],
      "stateMutability": "nonpayable"
    },
    {
      "type": "function",
      "name": "freeze",
      "inputs": [
        {
          "name": "freezes",
          "type": "tuple[]",
          "internalType": "struct Suspension[]",
          "components": [
            {
              "name": "account",
              "type": "address",
              "internalType": "address"
            },
            {
              "name": "rawIndex",
              "type": "uint256",
              "internalType": "uint256"
            },
            {
              "name": "amount",
              "type": "uint128",
              "internalType": "uint128"
            }
          ]
        }
      ],
      "outputs": [
        {
          "name": "",
          "type": "bool",
          "internalType": "bool"
        }
      ],
      "stateMutability": "nonpayable"
    },
    {
      "type": "function",
      "name": "frozen",
      "inputs": [
        {
          "name": "",
          "type": "address",
          "internalType": "address"
        }
      ],
      "outputs": [
        {
          "name": "",
          "type": "uint256",
          "internalType": "uint256"
        }
      ],
      "stateMutability": "view"
    },
    {
      "type": "function",
      "name": "gateway",
      "inputs": [],
      "outputs": [
        {
          "name": "",
          "type": "address",
          "internalType": "contract IAxelarGMPGateway"
        }
      ],
      "stateMutability": "view"
    },
    {
      "type": "function",
      "name": "governanceAddress",
      "inputs": [],
      "outputs": [
        {
          "name": "",
          "type": "address",
          "internalType": "address"
        }
      ],
      "stateMutability": "view"
    },
    {
      "type": "function",
      "name": "increaseAllowance",
      "inputs": [
        {
          "name": "spender",
          "type": "address",
          "internalType": "address"
        },
        {
          "name": "addedValue",
          "type": "uint256",
          "internalType": "uint256"
        }
      ],
      "outputs": [
        {
          "name": "",
          "type": "bool",
          "internalType": "bool"
        }
      ],
      "stateMutability": "nonpayable"
    },
    {
      "type": "function",
      "name": "initialize",
      "inputs": [
        {
          "name": "name_",
          "type": "string",
          "internalType": "string"
        },
        {
          "name": "symbol_",
          "type": "string",
          "internalType": "string"
        },
        {
          "name": "governanceAddress_",
          "type": "address",
          "internalType": "address"
        },
        {
          "name": "maxToClean_",
          "type": "uint16",
          "internalType": "uint16"
        },
        {
          "name": "owner_",
          "type": "address",
          "internalType": "address"
        }
      ],
      "outputs": [],
      "stateMutability": "nonpayable"
    },
    {
      "type": "function",
      "name": "name",
      "inputs": [],
      "outputs": [
        {
          "name": "",
          "type": "string",
          "internalType": "string"
        }
      ],
      "stateMutability": "view"
    },
    {
      "type": "function",
      "name": "nonce",
      "inputs": [
        {
          "name": "account",
          "type": "address",
          "internalType": "address"
        }
      ],
      "outputs": [
        {
          "name": "",
          "type": "uint128",
          "internalType": "uint128"
        }
      ],
      "stateMutability": "view"
    },
    {
      "type": "function",
      "name": "owner",
      "inputs": [],
      "outputs": [
        {
          "name": "result",
          "type": "address",
          "internalType": "address"
        }
      ],
      "stateMutability": "view"
    },
    {
      "type": "function",
      "name": "ownershipHandoverExpiresAt",
      "inputs": [
        {
          "name": "pendingOwner",
          "type": "address",
          "internalType": "address"
        }
      ],
      "outputs": [
        {
          "name": "result",
          "type": "uint256",
          "internalType": "uint256"
        }
      ],
      "stateMutability": "view"
    },
    {
      "type": "function",
      "name": "proxiableUUID",
      "inputs": [],
      "outputs": [
        {
          "name": "",
          "type": "bytes32",
          "internalType": "bytes32"
        }
      ],
      "stateMutability": "view"
    },
    {
      "type": "function",
      "name": "recoverableWindow",
      "inputs": [],
      "outputs": [
        {
          "name": "",
          "type": "uint256",
          "internalType": "uint256"
        }
      ],
      "stateMutability": "view"
    },
    {
      "type": "function",
      "name": "renounceOwnership",
      "inputs": [],
      "outputs": [],
      "stateMutability": "payable"
    },
    {
      "type": "function",
      "name": "requestOwnershipHandover",
      "inputs": [],
      "outputs": [],
      "stateMutability": "payable"
    },
    {
      "type": "function",
      "name": "setGovernanceAddress",
      "inputs": [
        {
          "name": "newGovernanceAddress",
          "type": "address",
          "internalType": "address"
        }
      ],
      "outputs": [],
      "stateMutability": "nonpayable"
    },
    {
      "type": "function",
      "name": "setMaxToClean",
      "inputs": [
        {
          "name": "newMaxToClean",
          "type": "uint16",
          "internalType": "uint16"
        }
      ],
      "outputs": [],
      "stateMutability": "nonpayable"
    },
    {
      "type": "function",
      "name": "setName",
      "inputs": [
        {
          "name": "newName",
          "type": "string",
          "internalType": "string"
        }
      ],
      "outputs": [],
      "stateMutability": "nonpayable"
    },
    {
      "type": "function",
      "name": "setSymbol",
      "inputs": [
        {
          "name": "newSymbol",
          "type": "string",
          "internalType": "string"
        }
      ],
      "outputs": [],
      "stateMutability": "nonpayable"
    },
    {
      "type": "function",
      "name": "spendableBalanceOf",
      "inputs": [
        {
          "name": "account",
          "type": "address",
          "internalType": "address"
        },
        {
          "name": "includeUnsettled",
          "type": "bool",
          "internalType": "bool"
        }
      ],
      "outputs": [
        {
          "name": "",
          "type": "uint256",
          "internalType": "uint256"
        }
      ],
      "stateMutability": "view"
    },
    {
      "type": "function",
      "name": "symbol",
      "inputs": [],
      "outputs": [
        {
          "name": "",
          "type": "string",
          "internalType": "string"
        }
      ],
      "stateMutability": "view"
    },
    {
      "type": "function",
      "name": "totalSupply",
      "inputs": [],
      "outputs": [
        {
          "name": "",
          "type": "uint256",
          "internalType": "uint256"
        }
      ],
      "stateMutability": "view"
    },
    {
      "type": "function",
      "name": "transfer",
      "inputs": [
        {
          "name": "to",
          "type": "address",
          "internalType": "address"
        },
        {
          "name": "value",
          "type": "uint256",
          "internalType": "uint256"
        }
      ],
      "outputs": [
        {
          "name": "",
          "type": "bool",
          "internalType": "bool"
        }
      ],
      "stateMutability": "nonpayable"
    },
    {
      "type": "function",
      "name": "transfer",
      "inputs": [
        {
          "name": "to",
          "type": "address",
          "internalType": "address"
        },
        {
          "name": "amount",
          "type": "uint256",
          "internalType": "uint256"
        },
        {
          "name": "includeUnsettled",
          "type": "bool",
          "internalType": "bool"
        }
      ],
      "outputs": [
        {
          "name": "",
          "type": "bool",
          "internalType": "bool"
        }
      ],
      "stateMutability": "nonpayable"
    },
    {
      "type": "function",
      "name": "transferFrom",
      "inputs": [
        {
          "name": "from",
          "type": "address",
          "internalType": "address"
        },
        {
          "name": "to",
          "type": "address",
          "internalType": "address"
        },
        {
          "name": "value",
          "type": "uint256",
          "internalType": "uint256"
        }
      ],
      "outputs": [
        {
          "name": "",
          "type": "bool",
          "internalType": "bool"
        }
      ],
      "stateMutability": "nonpayable"
    },
    {
      "type": "function",
      "name": "transferFrom",
      "inputs": [
        {
          "name": "from",
          "type": "address",
          "internalType": "address"
        },
        {
          "name": "to",
          "type": "address",
          "internalType": "address"
        },
        {
          "name": "value",
          "type": "uint256",
          "internalType": "uint256"
        },
        {
          "name": "includeUnsettled",
          "type": "bool",
          "internalType": "bool"
        }
      ],
      "outputs": [
        {
          "name": "",
          "type": "bool",
          "internalType": "bool"
        }
      ],
      "stateMutability": "nonpayable"
    },
    {
      "type": "function",
      "name": "transferOwnership",
      "inputs": [
        {
          "name": "newOwner",
          "type": "address",
          "internalType": "address"
        }
      ],
      "outputs": [],
      "stateMutability": "payable"
    },
    {
      "type": "function",
      "name": "unwrap",
      "inputs": [
        {
          "name": "amount",
          "type": "uint256",
          "internalType": "uint256"
        }
      ],
      "outputs": [],
      "stateMutability": "nonpayable"
    },
    {
      "type": "function",
      "name": "unwrapDisabled",
      "inputs": [
        {
          "name": "",
          "type": "address",
          "internalType": "address"
        }
      ],
      "outputs": [
        {
          "name": "",
          "type": "bool",
          "internalType": "bool"
        }
      ],
      "stateMutability": "view"
    },
    {
      "type": "function",
      "name": "unwrapTo",
      "inputs": [
        {
          "name": "to",
          "type": "address",
          "internalType": "address"
        },
        {
          "name": "amount",
          "type": "uint256",
          "internalType": "uint256"
        }
      ],
      "outputs": [],
      "stateMutability": "nonpayable"
    },
    {
      "type": "function",
      "name": "upgradeToAndCall",
      "inputs": [
        {
          "name": "newImplementation",
          "type": "address",
          "internalType": "address"
        },
        {
          "name": "data",
          "type": "bytes",
          "internalType": "bytes"
        }
      ],
      "outputs": [],
      "stateMutability": "payable"
    },
    {
      "type": "function",
      "name": "wrap",
      "inputs": [
        {
          "name": "amount",
          "type": "uint256",
          "internalType": "uint256"
        }
      ],
      "outputs": [],
      "stateMutability": "nonpayable"
    },
    {
      "type": "event",
      "name": "Approval",
      "inputs": [
        {
          "name": "owner",
          "type": "address",
          "indexed": true,
          "internalType": "address"
        },
        {
          "name": "spender",
          "type": "address",
          "indexed": true,
          "internalType": "address"
        },
        {
          "name": "value",
          "type": "uint256",
          "indexed": false,
          "internalType": "uint256"
        }
      ],
      "anonymous": false
    },
    {
      "type": "event",
      "name": "CaseClosed",
      "inputs": [
        {
          "name": "recover",
          "type": "bool",
          "indexed": false,
          "internalType": "bool"
        },
        {
          "name": "victim",
          "type": "address",
          "indexed": true,
          "internalType": "address"
        },
        {
          "name": "suspensions",
          "type": "tuple[]",
          "indexed": false,
          "internalType": "struct Suspension[]",
          "components": [
            {
              "name": "account",
              "type": "address",
              "internalType": "address"
            },
            {
              "name": "rawIndex",
              "type": "uint256",
              "internalType": "uint256"
            },
            {
              "name": "amount",
              "type": "uint128",
              "internalType": "uint128"
            }
          ]
        }
      ],
      "anonymous": false
    },
    {
      "type": "event",
      "name": "ExecutionFailed",
      "inputs": [
        {
          "name": "commandId",
          "type": "bytes32",
          "indexed": false,
          "internalType": "bytes32"
        },
        {
          "name": "target",
          "type": "address",
          "indexed": false,
          "internalType": "address"
        }
      ],
      "anonymous": false
    },
    {
      "type": "event",
      "name": "Freeze",
      "inputs": [
        {
          "name": "account",
          "type": "address",
          "indexed": true,
          "internalType": "address"
        },
        {
          "name": "amountFrozen",
          "type": "uint256",
          "indexed": false,
          "internalType": "uint256"
        },
        {
          "name": "rawIndex",
          "type": "uint256",
          "indexed": false,
          "internalType": "uint256"
        }
      ],
      "anonymous": false
    },
    {
      "type": "event",
      "name": "Initialized",
      "inputs": [
        {
          "name": "version",
          "type": "uint64",
          "indexed": false,
          "internalType": "uint64"
        }
      ],
      "anonymous": false
    },
    {
      "type": "event",
      "name": "OwnershipHandoverCanceled",
      "inputs": [
        {
          "name": "pendingOwner",
          "type": "address",
          "indexed": true,
          "internalType": "address"
        }
      ],
      "anonymous": false
    },
    {
      "type": "event",
      "name": "OwnershipHandoverRequested",
      "inputs": [
        {
          "name": "pendingOwner",
          "type": "address",
          "indexed": true,
          "internalType": "address"
        }
      ],
      "anonymous": false
    },
    {
      "type": "event",
      "name": "OwnershipTransferred",
      "inputs": [
        {
          "name": "oldOwner",
          "type": "address",
          "indexed": true,
          "internalType": "address"
        },
        {
          "name": "newOwner",
          "type": "address",
          "indexed": true,
          "internalType": "address"
        }
      ],
      "anonymous": false
    },
    {
      "type": "event",
      "name": "Transfer",
      "inputs": [
        {
          "name": "from",
          "type": "address",
          "indexed": true,
          "internalType": "address"
        },
        {
          "name": "to",
          "type": "address",
          "indexed": true,
          "internalType": "address"
        },
        {
          "name": "unsettledTransferred",
          "type": "uint256",
          "indexed": false,
          "internalType": "uint256"
        },
        {
          "name": "settledTransferred",
          "type": "uint256",
          "indexed": false,
          "internalType": "uint256"
        },
        {
          "name": "rawIndex",
          "type": "uint256",
          "indexed": false,
          "internalType": "uint256"
        }
      ],
      "anonymous": false
    },
    {
      "type": "event",
      "name": "Transfer",
      "inputs": [
        {
          "name": "from",
          "type": "address",
          "indexed": true,
          "internalType": "address"
        },
        {
          "name": "to",
          "type": "address",
          "indexed": true,
          "internalType": "address"
        },
        {
          "name": "value",
          "type": "uint256",
          "indexed": false,
          "internalType": "uint256"
        }
      ],
      "anonymous": false
    },
    {
      "type": "event",
      "name": "UnsettledRecordSpend",
      "inputs": [
        {
          "name": "from",
          "type": "address",
          "indexed": true,
          "internalType": "address"
        },
        {
          "name": "fromIndexSpent",
          "type": "uint256",
          "indexed": false,
          "internalType": "uint256"
        },
        {
          "name": "amount",
          "type": "uint256",
          "indexed": false,
          "internalType": "uint256"
        }
      ],
      "anonymous": false
    },
    {
      "type": "event",
      "name": "Unwrap",
      "inputs": [
        {
          "name": "src",
          "type": "address",
          "indexed": true,
          "internalType": "address"
        },
        {
          "name": "to",
          "type": "address",
          "indexed": true,
          "internalType": "address"
        },
        {
          "name": "amount",
          "type": "uint256",
          "indexed": false,
          "internalType": "uint256"
        }
      ],
      "anonymous": false
    },
    {
      "type": "event",
      "name": "UnwrapDisabled",
      "inputs": [
        {
          "name": "account",
          "type": "address",
          "indexed": true,
          "internalType": "address"
        }
      ],
      "anonymous": false
    },
    {
      "type": "event",
      "name": "Upgraded",
      "inputs": [
        {
          "name": "implementation",
          "type": "address",
          "indexed": true,
          "internalType": "address"
        }
      ],
      "anonymous": false
    },
    {
      "type": "event",
      "name": "Wrap",
      "inputs": [
        {
          "name": "dst",
          "type": "address",
          "indexed": true,
          "internalType": "address"
        },
        {
          "name": "amount",
          "type": "uint256",
          "indexed": false,
          "internalType": "uint256"
        }
      ],
      "anonymous": false
    },
    {
      "type": "error",
      "name": "AddressEmptyCode",
      "inputs": [
        {
          "name": "target",
          "type": "address",
          "internalType": "address"
        }
      ]
    },
    {
      "type": "error",
      "name": "AlreadyInitialized",
      "inputs": []
    },
    {
      "type": "error",
      "name": "CallerMustBeGovernance",
      "inputs": [
        {
          "name": "caller",
          "type": "address",
          "internalType": "address"
        }
      ]
    },
    {
      "type": "error",
      "name": "ERC1967InvalidImplementation",
      "inputs": [
        {
          "name": "implementation",
          "type": "address",
          "internalType": "address"
        }
      ]
    },
    {
      "type": "error",
      "name": "ERC1967NonPayable",
      "inputs": []
    },
    {
      "type": "error",
      "name": "FailedInnerCall",
      "inputs": []
    },
    {
      "type": "error",
      "name": "InsufficientSpendableFunds",
      "inputs": [
        {
          "name": "account",
          "type": "address",
          "internalType": "address"
        },
        {
          "name": "spendableFunds",
          "type": "uint256",
          "internalType": "uint256"
        },
        {
          "name": "attemptedAmount",
          "type": "uint256",
          "internalType": "uint256"
        },
        {
          "name": "unsettledIncluded",
          "type": "bool",
          "internalType": "bool"
        }
      ]
    },
    {
      "type": "error",
      "name": "InvalidAddress",
      "inputs": []
    },
    {
      "type": "error",
      "name": "InvalidInitialization",
      "inputs": []
    },
    {
      "type": "error",
      "name": "NewOwnerIsZeroAddress",
      "inputs": []
    },
    {
      "type": "error",
      "name": "NoHandoverRequest",
      "inputs": []
    },
    {
      "type": "error",
      "name": "NotApprovedByGateway",
      "inputs": []
    },
    {
      "type": "error",
      "name": "NotInitializing",
      "inputs": []
    },
    {
      "type": "error",
      "name": "OnlyConsensusRegistry",
      "inputs": []
    },
    {
      "type": "error",
      "name": "RecordAlreadySettled",
      "inputs": [
        {
          "name": "account",
          "type": "address",
          "internalType": "address"
        },
        {
          "name": "rawIndex",
          "type": "uint256",
          "internalType": "uint256"
        }
      ]
    },
    {
      "type": "error",
      "name": "RecordNotFound",
      "inputs": [
        {
          "name": "account",
          "type": "address",
          "internalType": "address"
        },
        {
          "name": "rawIndex",
          "type": "uint256",
          "internalType": "uint256"
        }
      ]
    },
    {
      "type": "error",
      "name": "RewardDistributionFailure",
      "inputs": [
        {
          "name": "validator",
          "type": "address",
          "internalType": "address"
        }
      ]
    },
    {
      "type": "error",
      "name": "SelfTransferNotAllowed",
      "inputs": []
    },
    {
      "type": "error",
      "name": "UUPSUnauthorizedCallContext",
      "inputs": []
    },
    {
      "type": "error",
      "name": "UUPSUnsupportedProxiableUUID",
      "inputs": [
        {
          "name": "slot",
          "type": "bytes32",
          "internalType": "bytes32"
        }
      ]
    },
    {
      "type": "error",
      "name": "Unauthorized",
      "inputs": []
    },
    {
      "type": "error",
      "name": "UnwrapNotAllowed",
      "inputs": [
        {
          "name": "account",
          "type": "address",
          "internalType": "address"
        }
      ]
    },
    {
      "type": "error",
      "name": "ZeroAddressNotAllowed",
      "inputs": []
    }
  ],
  "bytecode": {
    "object": "0x6101406040523061010052348015610015575f80fd5b506040516149073803806149078339810160408190526100349161019c565b868686868686868585600361004983826102eb565b50600461005682826102eb565b50505060c093909352600a80546001600160a01b0319166001600160a01b03938416179055811660a05261ffff909116608052831691506100ac90505760405163e6c4247b60e01b815260040160405180910390fd5b6001600160a01b0390811660e0529790971661012052506103a595505050505050565b80516001600160a01b03811681146100e5575f80fd5b919050565b634e487b7160e01b5f52604160045260245ffd5b5f82601f83011261010d575f80fd5b81516001600160401b03811115610126576101266100ea565b604051601f8201601f19908116603f011681016001600160401b0381118282101715610154576101546100ea565b60405281815283820160200185101561016b575f80fd5b5f5b828110156101895760208186018101518383018201520161016d565b505f918101602001919091529392505050565b5f805f805f805f80610100898b0312156101b4575f80fd5b6101bd896100cf565b97506101cb60208a016100cf565b60408a01519097506001600160401b038111156101e6575f80fd5b6101f28b828c016100fe565b60608b015190975090506001600160401b0381111561020f575f80fd5b61021b8b828c016100fe565b9550506080890151935061023160a08a016100cf565b925061023f60c08a016100cf565b60e08a015190925061ffff81168114610256575f80fd5b809150509295985092959890939650565b600181811c9082168061027b57607f821691505b60208210810361029957634e487b7160e01b5f52602260045260245ffd5b50919050565b601f8211156102e657805f5260205f20601f840160051c810160208510156102c45750805b601f840160051c820191505b818110156102e3575f81556001016102d0565b50505b505050565b81516001600160401b03811115610304576103046100ea565b610318816103128454610267565b8461029f565b6020601f82116001811461034a575f83156103335750848201515b5f19600385901b1c1916600184901b1784556102e3565b5f84815260208120601f198516915b828110156103795787850151825560209485019460019092019101610359565b508482101561039657868401515f19600387901b60f8161c191681555b50505050600190811b01905550565b60805160a05160c05160e05161010051610120516144d56104325f395f61187f01525f818161265a0152818161268301526127c201525f81816102d50152610add01525f818161068d015281816115590152611ff001525f81816106dc01528181610a1901528181611a7f01528181611b920152611c1601525f8181612c150152612f0601526144d55ff3fe60806040526004361061026a575f3560e01c8063795053d31161014a578063c47f0027116100be578063e1ad116211610078578063e1ad116214610788578063ea598cb0146107a7578063f04e283e146107c6578063f2fde38b146107d9578063f3ccf05e146107ec578063fee81cf41461080b575f80fd5b8063c47f0027146106af578063c55dae63146106ce578063cfc1625414610700578063d05166501461071f578063dd62ed3e1461074a578063de0e9a3e14610769575f80fd5b8063a9059cbb1161010f578063a9059cbb146105db578063ad3cb1cc146105fa578063b84c82461461062a578063bde1593114610649578063c12ea3ca1461065d578063c2029b0c1461067c575f80fd5b8063795053d3146105525780638da5cb5b1461057157806390ea90ae1461058957806395d89b41146105a8578063a457c2d7146105bc575f80fd5b806350c695d1116101e15780636a6a2208116101a65780636a6a2208146104725780636f2293ab1461049157806370a08231146104b057806370ae92d2146104cf578063715018a61461052b578063772865e214610533575f80fd5b806350c695d1146103ea57806352d1902d1461040957806354d1f13d1461041d57806355ba7f971461042557806369b0758e14610444575f80fd5b80632569296211610232578063256929621461034a5780632b87c50714610354578063313ce56714610373578063395093511461039957806349160658146103b85780634f1ef286146103d7575f80fd5b806306fdde031461026e578063095ea7b314610298578063116191b6146102c757806318160ddd1461030d57806323b872dd1461032b575b5f80fd5b348015610279575f80fd5b5061028261083c565b60405161028f91906139c5565b60405180910390f35b3480156102a3575f80fd5b506102b76102b2366004613a0d565b6108cc565b604051901515815260200161028f565b3480156102d2575f80fd5b507f00000000000000000000000000000000000000000000000000000000000000005b6040516001600160a01b03909116815260200161028f565b348015610318575f80fd5b506009545b60405190815260200161028f565b348015610336575f80fd5b506102b7610345366004613a35565b6108e5565b610352610913565b005b34801561035f575f80fd5b5061031d61036e366004613a7c565b61095f565b34801561037e575f80fd5b50610387610a16565b60405160ff909116815260200161028f565b3480156103a4575f80fd5b506102b76103b3366004613a0d565b610a9c565b3480156103c3575f80fd5b506103526103d2366004613af5565b610abd565b6103526103e5366004613c77565b610baa565b3480156103f5575f80fd5b506102b7610404366004613d93565b610bc9565b348015610414575f80fd5b5061031d610f1b565b610352610f36565b348015610430575f80fd5b5061035261043f366004613dd5565b610f6f565b34801561044f575f80fd5b506102b761045e366004613e68565b60086020525f908152604090205460ff1681565b34801561047d575f80fd5b506102b761048c366004613e81565b6110a4565b34801561049c575f80fd5b506102b76104ab366004613edc565b61181c565b3480156104bb575f80fd5b5061031d6104ca366004613e68565b61184b565b3480156104da575f80fd5b506105136104e9366004613e68565b6001600160a01b03165f90815260056020526040902054600160801b90046001600160801b031690565b6040516001600160801b03909116815260200161028f565b610352611856565b34801561053e575f80fd5b5061031d61054d366004613a7c565b611869565b34801561055d575f80fd5b50600a546102f5906001600160a01b031681565b34801561057c575f80fd5b50638b78c6d819546102f5565b348015610594575f80fd5b506103526105a3366004613a0d565b611874565b3480156105b3575f80fd5b5061028261193d565b3480156105c7575f80fd5b506102b76105d6366004613a0d565b61194c565b3480156105e6575f80fd5b506102b76105f5366004613a0d565b6119d1565b348015610605575f80fd5b50610282604051806040016040528060058152602001640352e302e360dc1b81525081565b348015610635575f80fd5b50610352610644366004613f28565b6119e9565b348015610654575f80fd5b506103526119fd565b348015610668575f80fd5b50610352610677366004613a0d565b611a3e565b348015610687575f80fd5b5061031d7f000000000000000000000000000000000000000000000000000000000000000081565b3480156106ba575f80fd5b506103526106c9366004613f28565b611ae9565b3480156106d9575f80fd5b507f00000000000000000000000000000000000000000000000000000000000000006102f5565b34801561070b575f80fd5b5061035261071a366004613e68565b611afd565b34801561072a575f80fd5b5061031d610739366004613e68565b60066020525f908152604090205481565b348015610755575f80fd5b5061031d610764366004613f59565b611b27565b348015610774575f80fd5b50610352610783366004613f8a565b611b51565b348015610793575f80fd5b506102b76107a2366004613fa1565b611bf2565b3480156107b2575f80fd5b506103526107c1366004613f8a565b611c11565b6103526107d4366004613e68565b611c7f565b6103526107e7366004613e68565b611cbc565b3480156107f7575f80fd5b50610352610806366004613fde565b611ce2565b348015610816575f80fd5b5061031d610825366004613e68565b63389a75e1600c9081525f91909152602090205490565b6060600b805461084b90613ff7565b80601f016020809104026020016040519081016040528092919081815260200182805461087790613ff7565b80156108c25780601f10610899576101008083540402835291602001916108c2565b820191905f5260205f20905b8154815290600101906020018083116108a557829003601f168201915b5050505050905090565b5f336108d9818585611cef565b60019150505b92915050565b5f336108f2858285611e12565b610906858561090086611e8a565b5f611ef6565b60019150505b9392505050565b5f6202a3006001600160401b03164201905063389a75e1600c52335f52806020600c2055337fdbf36a107da19e49527a7176a1babf963b4b0ff8cde35ee35d6cd8f1f9ac7e1d5f80a250565b5f81156109a4576001600160a01b0383165f9081526006602090815260408083205460059092529091205461099d91906001600160801b0316614043565b90506108df565b5f806109af8561223f565b6001600160a01b0387165f9081526006602052604090205491935091506109d7908290614043565b6001600160a01b0386165f90815260056020526040902054610a039084906001600160801b0316614043565b610a0d9190614043565b925050506108df565b5f7f00000000000000000000000000000000000000000000000000000000000000006001600160a01b031663313ce5676040518163ffffffff1660e01b8152600401602060405180830381865afa158015610a73573d5f803e3d5ffd5b505050506040513d601f19601f82011682018060405250810190610a979190614056565b905090565b5f336108d9818585610aae8383611b27565b610ab89190614076565b611cef565b5f8282604051610ace929190614089565b60405180910390209050610aff7f000000000000000000000000000000000000000000000000000000000000000090565b6001600160a01b0316635f6970c38989898989876040518763ffffffff1660e01b8152600401610b34969594939291906140c0565b6020604051808303815f875af1158015610b50573d5f803e3d5ffd5b505050506040513d601f19601f82011682018060405250810190610b749190614100565b610b9157604051631403112d60e21b815260040160405180910390fd5b610ba088888888888888612591565b5050505050505050565b610bb261264f565b610bbb826126f3565b610bc582826126fb565b5050565b600a545f906001600160a01b03163314610bfd57604051630caf34d360e31b81523360048201526024015b60405180910390fd5b5f5b8251811015610f10575f838281518110610c1b57610c1b61411b565b60200260200101516020015190505f848381518110610c3c57610c3c61411b565b60200260200101515f015190505f858481518110610c5c57610c5c61411b565b6020908102919091018101516040908101516001600160a01b0385165f90815260079093528183209151631380691160e01b8152600481019290925260248201869052925073__$45c6e7e63f817b68352265224a11144e74$__9063138069119060440160a060405180830381865af4158015610cdb573d5f803e3d5ffd5b505050506040513d601f19601f82011682018060405250810190610cff91906141ae565b905080602001515f03610d37576040516383ac745b60e01b81526001600160a01b038416600482015260248101859052604401610bf4565b42816020015111610d6d57604051638e54e8ab60e01b81526001600160a01b038416600482015260248101859052604401610bf4565b6001600160a01b0383165f908152600760205260409020600301548411610df0576001600160a01b0383165f9081526005602052604090206001018054839190601090610dcb908490600160801b90046001600160801b03166141c8565b92506101000a8154816001600160801b0302191690836001600160801b031602179055505b6001600160a01b0383165f90815260076020526040908190209051630c9ba3af60e31b81526004810191909152602481018590526001600160801b038316604482015273__$45c6e7e63f817b68352265224a11144e74$__906364dd1d78906064015f6040518083038186803b158015610e68575f80fd5b505af4158015610e7a573d5f803e3d5ffd5b505050506001600160a01b0383165f90815260066020526040812080546001600160801b0385169290610eae908490614076565b9091555050604080516001600160801b0384168152602081018690526001600160a01b038516917f029d06ff78b8c68fca5225af637c626c0176c9fcaa163beec8e558d4c3ae65b6910160405180910390a2505060019092019150610bff9050565b50600190505b919050565b5f610f246127b7565b505f805160206144a983398151915290565b63389a75e1600c52335f525f6020600c2055337ffa7b8eab7da67f412cc9575ed43464468f9bfbae89d1675917346ca6d8fe3c925f80a2565b7ff0c57e16840df040f15088dc2f81fe391c3923bec73e23a9662efc9c229c6a008054600160401b810460ff1615906001600160401b03165f81158015610fb35750825b90505f826001600160401b03166001148015610fce5750303b155b905081158015610fdc575080155b15610ffa5760405163f92ee8a960e01b815260040160405180910390fd5b845467ffffffffffffffff19166001178555831561102457845460ff60401b1916600160401b1785555b61102d86612800565b6110368a611ae9565b61103f896119e9565b61104888611afd565b61105187611ce2565b831561109857845460ff60401b19168555604051600181527fc7f505b2f371ae2175ee4913f4499e1f2633a7b5936321eed1cdaeb6115181d2906020015b60405180910390a15b50505050505050505050565b600a545f906001600160a01b031633146110d357604051630caf34d360e31b8152336004820152602401610bf4565b5f5b82518110156117ce575f8382815181106110f1576110f161411b565b60200260200101516020015190505f8483815181106111125761111261411b565b60200260200101515f015190505f8584815181106111325761113261411b565b6020908102919091018101516040908101516001600160a01b0385165f90815260079093528183209151631380691160e01b8152600481019290925260248201869052925073__$45c6e7e63f817b68352265224a11144e74$__9063138069119060440160a060405180830381865af41580156111b1573d5f803e3d5ffd5b505050506040513d601f19601f820116820180604052508101906111d591906141ae565b905080602001515f0361120d576040516383ac745b60e01b81526001600160a01b038416600482015260248101859052604401610bf4565b6001600160a01b0383165f9081526007602052604081206001015490818610806112bd57506001600160a01b0385165f90815260076020526040908190209051630363715960e51b8152600481019190915273__$45c6e7e63f817b68352265224a11144e74$__90636c6e2b2090602401602060405180830381865af4158015611299573d5f803e3d5ffd5b505050506040513d601f19601f820116820180604052508101906112bd9190614100565b6001600160a01b0386165f90815260076020526040908190209051630443e6cf60e41b81526004810191909152602481018890526001600160801b0386166044820152811515606482015290915073__$45c6e7e63f817b68352265224a11144e74$__9063443e6cf0906084015f6040518083038186803b158015611340575f80fd5b505af4158015611352573d5f803e3d5ffd5b505050506001600160a01b0385165f90815260066020526040812080546001600160801b0387169290611386908490614043565b90915550506001600160a01b0385165f90815260076020526040902060030154861161140e576001600160a01b0385165f90815260056020526040902060010180548591906010906113e9908490600160801b90046001600160801b03166141e7565b92506101000a8154816001600160801b0302191690836001600160801b031602179055505b8a156117bc5780611520576001600160a01b0385165f90815260076020526040908190209051630adbaf2360e41b81526004810191909152602481018790526001600160801b038516604482015273__$45c6e7e63f817b68352265224a11144e74$__9063adbaf230906064015f6040518083038186803b158015611491575f80fd5b505af41580156114a3573d5f803e3d5ffd5b505050506001600160a01b0385165f908152600760205260409020600301548611611520576001600160a01b0385165f90815260056020526040812060010180548692906114fb9084906001600160801b03166141e7565b92506101000a8154816001600160801b0302191690836001600160801b031602179055505b6001600160a01b038a165f90815260076020526040812073__$45c6e7e63f817b68352265224a11144e74$__9063a04af299908761157e7f000000000000000000000000000000000000000000000000000000000000000042614076565b6040516001600160e01b031960e086901b16815260048101939093526001600160801b0390911660248301526044820152606401602060405180830381865af41580156115cd573d5f803e3d5ffd5b505050506040513d601f19601f820116820180604052508101906115f19190614206565b6001600160a01b0387165f908152600560205260408120805492935087929091906116269084906001600160801b03166141e7565b82546101009290920a6001600160801b038181021990931691831602179091556001600160a01b038d165f90815260056020526040812080548994509092611670918591166141c8565b82546101009290920a6001600160801b038181021990931691831602179091556001600160a01b0388165f9081526005602052604090208054600160801b9004909116915060106116c08361421d565b82546101009290920a6001600160801b038181021990931691831602179091556001600160a01b038d165f9081526005602052604090208054600160801b9004909116915060106117108361421d565b91906101000a8154816001600160801b0302191690836001600160801b03160217905550505f428560200151111590508b6001600160a01b0316876001600160a01b03167fc817d75deaa278e988c41cf549ef38fe195ab65e0e64cd67ba47f0d185690d58836117805788611782565b5f5b8461178d575f61178f565b895b604080516001600160801b039384168152929091166020830152810186905260600160405180910390a350505b5050600190940193506110d592505050565b50826001600160a01b03167f3baf7fff3a314c925991f8f46074dab97eeda5c85eed35c106437c61751d0ae6858460405161180a929190614247565b60405180910390a25060019392505050565b5f33611829868286611e12565b61183d868661183787611e8a565b86611ef6565b60019150505b949350505050565b5f6108df825f61283b565b61185e6128ab565b6118675f6128c5565b565b5f61090c838361283b565b336001600160a01b037f000000000000000000000000000000000000000000000000000000000000000016146118bd5760405163dfe4494d60e01b815260040160405180910390fd5b5f826001600160a01b0316826040515f6040518083038185875af1925050503d805f8114611906576040519150601f19603f3d011682016040523d82523d5f602084013e61190b565b606091505b505090508061193857604051630d623c2560e01b81526001600160a01b0384166004820152602401610bf4565b505050565b6060600c805461084b90613ff7565b5f33816119598286611b27565b9050838110156119b95760405162461bcd60e51b815260206004820152602560248201527f45524332303a2064656372656173656420616c6c6f77616e63652062656c6f77604482015264207a65726f60d81b6064820152608401610bf4565b6119c68286868403611cef565b506001949350505050565b5f6119e0338461090085611e8a565b50600192915050565b6119f16128ab565b600c610bc5828261430c565b335f81815260086020526040808220805460ff19166001179055517fefe5426af10b0a9224969ecac24cb8cac201061a3225b0939df6d0e55fd922669190a2565b335f9081526008602052604090205460ff1615611a7057604051635785f54f60e01b8152336004820152602401610bf4565b611a7a3382612902565b611aa57f00000000000000000000000000000000000000000000000000000000000000008383612a3b565b6040518181526001600160a01b0383169033907fbe8e6aacbb5d99c99f1992d91d807f570d0acacabee02374369ed42710dc66989060200160405180910390a35050565b611af16128ab565b600b610bc5828261430c565b611b056128ab565b600a80546001600160a01b0319166001600160a01b0392909216919091179055565b6001600160a01b039182165f90815260016020908152604080832093909416825291909152205490565b335f9081526008602052604090205460ff1615611b8357604051635785f54f60e01b8152336004820152602401610bf4565b611b8d3382612902565b611bb87f00000000000000000000000000000000000000000000000000000000000000003383612a3b565b604051818152339081907fbe8e6aacbb5d99c99f1992d91d807f570d0acacabee02374369ed42710dc66989060200160405180910390a350565b5f611c073385611c0186611e8a565b85611ef6565b5060019392505050565b611c3d7f0000000000000000000000000000000000000000000000000000000000000000333084612a9e565b611c473382612ad6565b60405181815233907fb61d00fdfee32467c7d81db64c811ae60c104c346debf36a14afe84b8fce59e59060200160405180910390a250565b611c876128ab565b63389a75e1600c52805f526020600c208054421115611cad57636f5e88185f526004601cfd5b5f9055611cb9816128c5565b50565b611cc46128ab565b8060601b611cd957637448fbae5f526004601cfd5b611cb9816128c5565b611cea6128ab565b600b55565b6001600160a01b038316611d515760405162461bcd60e51b8152602060048201526024808201527f45524332303a20617070726f76652066726f6d20746865207a65726f206164646044820152637265737360e01b6064820152608401610bf4565b6001600160a01b038216611db25760405162461bcd60e51b815260206004820152602260248201527f45524332303a20617070726f766520746f20746865207a65726f206164647265604482015261737360f01b6064820152608401610bf4565b6001600160a01b038381165f8181526001602090815260408083209487168084529482529182902085905590518481527f8c5be1e5ebec7d5bd14f71427d1e84f3dd0314c0f7b2291e5b200ac8c7c3b925910160405180910390a3505050565b5f611e1d8484611b27565b90505f198114611e845781811015611e775760405162461bcd60e51b815260206004820152601d60248201527f45524332303a20696e73756666696369656e7420616c6c6f77616e63650000006044820152606401610bf4565b611e848484848403611cef565b50505050565b5f6001600160801b03821115611ef25760405162461bcd60e51b815260206004820152602760248201527f53616665436173743a2076616c756520646f65736e27742066697420696e20316044820152663238206269747360c81b6064820152608401610bf4565b5090565b611eff83612b60565b836001600160a01b0316836001600160a01b031603611f31576040516352a7f8fb60e01b815260040160405180910390fd5b611f3a84612b87565b611f4383612b87565b5f80611f4f868461095f565b9050836001600160801b0316811015611fa45760405163083f759b60e01b81526001600160a01b0387166004820152602481018290526001600160801b03851660448201528315156064820152608401610bf4565b8215611fb757611fb48685613126565b91505b6001600160a01b0385165f90815260076020526040812073__$45c6e7e63f817b68352265224a11144e74$__9063a04af29990876120157f000000000000000000000000000000000000000000000000000000000000000042614076565b6040516001600160e01b031960e086901b16815260048101939093526001600160801b0390911660248301526044820152606401602060405180830381865af4158015612064573d5f803e3d5ffd5b505050506040513d601f19601f820116820180604052508101906120889190614206565b6001600160a01b0388165f908152600560205260408120805492935087929091906120bd9084906001600160801b03166141e7565b82546101009290920a6001600160801b038181021990931691831602179091556001600160a01b0388165f90815260056020526040812080548994509092612107918591166141c8565b82546101009290920a6001600160801b038181021990931691831602179091556001600160a01b0388165f9081526005602052604090208054600160801b9004909116915060106121578361421d565b82546101009290920a6001600160801b038181021990931691831602179091556001600160a01b0389165f9081526005602052604090208054600160801b9004909116915060106121a78361421d565b91906101000a8154816001600160801b0302191690836001600160801b0316021790555050856001600160a01b0316876001600160a01b03167fc817d75deaa278e988c41cf549ef38fe195ab65e0e64cd67ba47f0d185690d588586896001600160801b03166122179190614043565b604080519283526020830191909152810185905260600160405180910390a350505050505050565b6001600160a01b0381165f90815260076020526040812060038101546002909101548291905b81811115612350576001600160a01b0385165f908152600760205260408082209051631380691160e01b815260048101919091526024810183905273__$45c6e7e63f817b68352265224a11144e74$__9063138069119060440160a060405180830381865af41580156122da573d5f803e3d5ffd5b505050506040513d601f19601f820116820180604052508101906122fe91906141ae565b9050428160200151116123115750612350565b8051612326906001600160801b031686614076565b945080604001516001600160801b0316846123419190614076565b93508060600151915050612265565b6001600160a01b0385165f90815260076020526040908190209051631380691160e01b8152429173__$45c6e7e63f817b68352265224a11144e74$__916313806911916123aa918790600401918252602082015260400190565b60a060405180830381865af41580156123c5573d5f803e3d5ffd5b505050506040513d601f19601f820116820180604052508101906123e991906141ae565b60200151116123f9575050915091565b6001600160a01b0385165f90815260056020526040902060010154612427906001600160801b031685614076565b6001600160a01b0386165f9081526005602052604090206001015490945061245f90600160801b90046001600160801b031684614076565b6001600160a01b0386165f9081526007602052604090206001015490935090505b81811115801561248f57505f81115b1561258a576001600160a01b0385165f908152600760205260408082209051631380691160e01b815260048101919091526024810183905273__$45c6e7e63f817b68352265224a11144e74$__9063138069119060440160a060405180830381865af4158015612501573d5f803e3d5ffd5b505050506040513d601f19601f8201168201806040525081019061252591906141ae565b90504281602001511115612539575061258a565b805161254e906001600160801b031686614043565b60408201519095506001600160801b03161561257f57604081015161257c906001600160801b031685614043565b93505b608001519050612480565b5050915091565b5f61259e828401846143c6565b90505f815f015190505f816001600160a01b0316836020015184604001516040516125c9919061444b565b5f6040518083038185875af1925050503d805f8114612603576040519150601f19603f3d011682016040523d82523d5f602084013e612608565b606091505b505090508061109857604080518b81526001600160a01b03841660208201527fc21332d9099f42f480283943357e780b317f316c6e841b2ea8727f2b4d0e1958910161108f565b306001600160a01b037f00000000000000000000000000000000000000000000000000000000000000001614806126d557507f00000000000000000000000000000000000000000000000000000000000000006001600160a01b03166126c95f805160206144a9833981519152546001600160a01b031690565b6001600160a01b031614155b156118675760405163703e46dd60e11b815260040160405180910390fd5b611cb96128ab565b816001600160a01b03166352d1902d6040518163ffffffff1660e01b8152600401602060405180830381865afa925050508015612755575060408051601f3d908101601f1916820190925261275291810190614206565b60015b61277d57604051634c9c8ce360e01b81526001600160a01b0383166004820152602401610bf4565b5f805160206144a983398151915281146127ad57604051632a87526960e21b815260048101829052602401610bf4565b611938838361356b565b306001600160a01b037f000000000000000000000000000000000000000000000000000000000000000016146118675760405163703e46dd60e11b815260040160405180910390fd5b6001600160a01b0316638b78c6d819819055805f7f8be0079c531659141344cd1fd0a4f28419497f9722a3daafe3b4186f6b6457e08180a350565b5f811561286957506001600160a01b0382165f908152600560205260409020546001600160801b03166108df565b5f6128738461223f565b506001600160a01b0385165f908152600560205260409020549091506128a39082906001600160801b0316614043565b9150506108df565b638b78c6d819543314611867576382b429005f526004601cfd5b638b78c6d81980546001600160a01b039092169182907f8be0079c531659141344cd1fd0a4f28419497f9722a3daafe3b4186f6b6457e05f80a355565b61290b82612b60565b61291482612b87565b5f8061291f8461223f565b6001600160a01b0386165f9081526006602052604081205492945090925090612949908390614043565b6001600160a01b0386165f908152600560205260409020546129759085906001600160801b0316614043565b61297f9190614043565b9050838110156129c15760405163083f759b60e01b81526001600160a01b038616600482015260248101829052604481018590525f6064820152608401610bf4565b6129ca84611e8a565b6001600160a01b0386165f90815260056020526040812080549091906129fa9084906001600160801b03166141e7565b92506101000a8154816001600160801b0302191690836001600160801b031602179055508360095f828254612a2f9190614043565b90915550505050505050565b6040516001600160a01b03831660248201526044810182905261193890849063a9059cbb60e01b906064015b60408051601f198184030181529190526020810180516001600160e01b03166001600160e01b0319909316929092179091526135c0565b6040516001600160a01b0380851660248301528316604482015260648101829052611e849085906323b872dd60e01b90608401612a67565b612adf82612b60565b612ae882612b87565b8060095f828254612af99190614076565b90915550612b08905081611e8a565b6001600160a01b0383165f9081526005602052604081208054909190612b389084906001600160801b03166141c8565b92506101000a8154816001600160801b0302191690836001600160801b031602179055505050565b6001600160a01b038116611cb9576040516342bcdf7f60e11b815260040160405180910390fd5b6001600160a01b0381165f908152600560208181526040808420600101546007835281852060030154938352815160a08101835285815292830185905290820184905260608201849052608082018490526001600160801b0380821694600160801b90920416915b6001600160a01b0386165f9081526007602052604090206001015415801590612c3f57507f000000000000000000000000000000000000000000000000000000000000000061ffff168261ffff16105b15612e53576001600160a01b0386165f90815260076020526040808220905163805b2eef60e01b8152600481019190915273__$45c6e7e63f817b68352265224a11144e74$__9063805b2eef9060240160c060405180830381865af4158015612caa573d5f803e3d5ffd5b505050506040513d601f19601f82011682018060405250810190612cce9190614466565b60208201519193509150421015612ce55750612e53565b60408201516001600160801b031615612d7c576001600160a01b0387165f90815260076020526040808220905163061b59f160e01b81526004810191909152602481019190915273__$45c6e7e63f817b68352265224a11144e74$__9063061b59f1906044015f6040518083038186803b158015612d61575f80fd5b505af4158015612d73573d5f803e3d5ffd5b50505050612dfc565b6001600160a01b0387165f9081526007602052604090819020905163061b59f160e01b815260048101919091526001602482015273__$45c6e7e63f817b68352265224a11144e74$__9063061b59f1906044015f6040518083038186803b158015612de5575f80fd5b505af4158015612df7573d5f803e3d5ffd5b505050505b848111612e3c578151612e0f90876141e7565b60408301519096506001600160801b031615612e37576040820151612e3490856141e7565b93505b612e40565b8094505b82612e4a81614491565b93505050612bef565b6001600160a01b0386165f90815260076020526040908190209051631380691160e01b815260048101919091526024810185905273__$45c6e7e63f817b68352265224a11144e74$__9063138069119060440160a060405180830381865af4158015612ec1573d5f803e3d5ffd5b505050506040513d601f19601f82011682018060405250810190612ee591906141ae565b6001600160a01b0387165f908152600760205260409020600101549091505b7f000000000000000000000000000000000000000000000000000000000000000061ffff168361ffff1610156130195760808201511561301957808510612f4f578160800151612f51565b805b6001600160a01b0388165f90815260076020526040908190209051631380691160e01b815291965073__$45c6e7e63f817b68352265224a11144e74$__91631380691191612fac918990600401918252602082015260400190565b60a060405180830381865af4158015612fc7573d5f803e3d5ffd5b505050506040513d601f19601f82011682018060405250810190612feb91906141ae565b8051909250612ffa90876141c8565b955081604001518461300c91906141c8565b9350600190920191612f04565b6001600160a01b0387165f90815260056020908152604080832060010180546001600160801b0319166001600160801b038b161790556007909152908190209051630363715960e51b8152600481019190915273__$45c6e7e63f817b68352265224a11144e74$__90636c6e2b2090602401602060405180830381865af41580156130a6573d5f803e3d5ffd5b505050506040513d601f19601f820116820180604052508101906130ca9190614100565b6130d457846130d6565b5f5b6001600160a01b039097165f90815260076020908152604080832060030199909955600590529690962060010180546001600160801b03948516600160801b029416939093179092555050505050565b6001600160a01b0382165f90815260076020908152604080832060028101546003909101546005909352908320600101548492906001600160801b03165b6001600160a01b0387165f908152600760205260408082209051631380691160e01b815260048101919091526024810185905273__$45c6e7e63f817b68352265224a11144e74$__9063138069119060440160a060405180830381865af41580156131d1573d5f803e3d5ffd5b505050506040513d601f19601f820116820180604052508101906131f591906141ae565b905042816020015111613208575061342c565b5f61323f61323a876001600160801b03168460400151855f015161322c91906141e7565b6001600160801b0316613693565b611e8a565b90506001600160801b038116156133fc5761325a81876141e7565b955081604001516001600160801b03165f148015613284575081516001600160801b038281169116145b1561330d576001600160a01b0389165f90815260076020526040908190209051632ff12beb60e11b815260048101919091526024810186905273__$45c6e7e63f817b68352265224a11144e74$__90635fe257d6906044015f6040518083038186803b1580156132f2575f80fd5b505af4158015613304573d5f803e3d5ffd5b5050505061339c565b6001600160a01b0389165f90815260076020526040908190209051630adbaf2360e41b81526004810191909152602481018690526001600160801b038216604482015273__$45c6e7e63f817b68352265224a11144e74$__9063adbaf230906064015f6040518083038186803b158015613385575f80fd5b505af4158015613397573d5f803e3d5ffd5b505050505b604080518681526001600160801b03831660208201526001600160a01b038b16917f30ef9b579408ba9120d6516bc74e64d3744ea04b6bbe2b71a5feba8923656174910160405180910390a28385116133fc576133f981846141e7565b92505b6060820151158061341457506001600160801b038616155b1561342057505061342c565b50606001519250613164565b61343684876141e7565b6001600160a01b0388165f90815260056020908152604080832060010180546001600160801b038781166001600160801b0319909216919091179091556007909252918290209151630363715960e51b81529216965073__$45c6e7e63f817b68352265224a11144e74$__91636c6e2b20916134b89160040190815260200190565b602060405180830381865af41580156134d3573d5f803e3d5ffd5b505050506040513d601f19601f820116820180604052508101906134f79190614100565b1561351c576001600160a01b0387165f90815260076020526040812060030155613561565b6001600160a01b0387165f90815260076020526040902060020154821115613561576001600160a01b0387165f90815260076020526040902060028101546003909101555b5050505092915050565b613574826136a8565b6040516001600160a01b038316907fbc7cd75a20ee27fd9adebab32041f755214dbc6bffa90cc0225b39da2e5c2d3b905f90a28051156135b857611938828261370b565b610bc561377d565b5f613614826040518060400160405280602081526020017f5361666545524332303a206c6f772d6c6576656c2063616c6c206661696c6564815250856001600160a01b031661379c9092919063ffffffff16565b905080515f14806136345750808060200190518101906136349190614100565b6119385760405162461bcd60e51b815260206004820152602a60248201527f5361666545524332303a204552433230206f7065726174696f6e20646964206e6044820152691bdd081cdd58d8d9595960b21b6064820152608401610bf4565b5f8183106136a1578161090c565b5090919050565b806001600160a01b03163b5f036136dd57604051634c9c8ce360e01b81526001600160a01b0382166004820152602401610bf4565b5f805160206144a983398151915280546001600160a01b0319166001600160a01b0392909216919091179055565b60605f80846001600160a01b031684604051613727919061444b565b5f60405180830381855af49150503d805f811461375f576040519150601f19603f3d011682016040523d82523d5f602084013e613764565b606091505b50915091506137748583836137aa565b95945050505050565b34156118675760405163b398979f60e01b815260040160405180910390fd5b606061184384845f85613806565b6060826137bf576137ba826138dd565b61090c565b81511580156137d657506001600160a01b0384163b155b156137ff57604051639996b31560e01b81526001600160a01b0385166004820152602401610bf4565b508061090c565b6060824710156138675760405162461bcd60e51b815260206004820152602660248201527f416464726573733a20696e73756666696369656e742062616c616e636520666f6044820152651c8818d85b1b60d21b6064820152608401610bf4565b5f80866001600160a01b03168587604051613882919061444b565b5f6040518083038185875af1925050503d805f81146138bc576040519150601f19603f3d011682016040523d82523d5f602084013e6138c1565b606091505b50915091506138d287838387613906565b979650505050505050565b8051156138ed5780518082602001fd5b604051630a12f52160e11b815260040160405180910390fd5b606083156139745782515f0361396d576001600160a01b0385163b61396d5760405162461bcd60e51b815260206004820152601d60248201527f416464726573733a2063616c6c20746f206e6f6e2d636f6e74726163740000006044820152606401610bf4565b5081611843565b61184383838151156139895781518083602001fd5b8060405162461bcd60e51b8152600401610bf491906139c5565b5f5b838110156139bd5781810151838201526020016139a5565b50505f910152565b602081525f82518060208401526139e38160408501602087016139a3565b601f01601f19169190910160400192915050565b80356001600160a01b0381168114610f16575f80fd5b5f8060408385031215613a1e575f80fd5b613a27836139f7565b946020939093013593505050565b5f805f60608486031215613a47575f80fd5b613a50846139f7565b9250613a5e602085016139f7565b929592945050506040919091013590565b8015158114611cb9575f80fd5b5f8060408385031215613a8d575f80fd5b613a96836139f7565b91506020830135613aa681613a6f565b809150509250929050565b5f8083601f840112613ac1575f80fd5b5081356001600160401b03811115613ad7575f80fd5b602083019150836020828501011115613aee575f80fd5b9250929050565b5f805f805f805f6080888a031215613b0b575f80fd5b8735965060208801356001600160401b03811115613b27575f80fd5b613b338a828b01613ab1565b90975095505060408801356001600160401b03811115613b51575f80fd5b613b5d8a828b01613ab1565b90955093505060608801356001600160401b03811115613b7b575f80fd5b613b878a828b01613ab1565b989b979a50959850939692959293505050565b634e487b7160e01b5f52604160045260245ffd5b604051606081016001600160401b0381118282101715613bd057613bd0613b9a565b60405290565b604051601f8201601f191681016001600160401b0381118282101715613bfe57613bfe613b9a565b604052919050565b5f82601f830112613c15575f80fd5b8135602083015f806001600160401b03841115613c3457613c34613b9a565b50601f8301601f1916602001613c4981613bd6565b915050828152858383011115613c5d575f80fd5b828260208301375f92810160200192909252509392505050565b5f8060408385031215613c88575f80fd5b613c91836139f7565b915060208301356001600160401b03811115613cab575f80fd5b613cb785828601613c06565b9150509250929050565b6001600160801b0381168114611cb9575f80fd5b5f82601f830112613ce4575f80fd5b81356001600160401b03811115613cfd57613cfd613b9a565b613d0c60208260051b01613bd6565b80828252602082019150602060608402860101925085831115613d2d575f80fd5b602085015b83811015613d895760608188031215613d49575f80fd5b613d51613bae565b613d5a826139f7565b8152602082810135908201526040820135613d7481613cc1565b60408201528352602090920191606001613d32565b5095945050505050565b5f60208284031215613da3575f80fd5b81356001600160401b03811115613db8575f80fd5b61184384828501613cd5565b803561ffff81168114610f16575f80fd5b5f805f805f60a08688031215613de9575f80fd5b85356001600160401b03811115613dfe575f80fd5b613e0a88828901613c06565b95505060208601356001600160401b03811115613e25575f80fd5b613e3188828901613c06565b945050613e40604087016139f7565b9250613e4e60608701613dc4565b9150613e5c608087016139f7565b90509295509295909350565b5f60208284031215613e78575f80fd5b61090c826139f7565b5f805f60608486031215613e93575f80fd5b8335613e9e81613a6f565b9250613eac602085016139f7565b915060408401356001600160401b03811115613ec6575f80fd5b613ed286828701613cd5565b9150509250925092565b5f805f8060808587031215613eef575f80fd5b613ef8856139f7565b9350613f06602086016139f7565b9250604085013591506060850135613f1d81613a6f565b939692955090935050565b5f60208284031215613f38575f80fd5b81356001600160401b03811115613f4d575f80fd5b61184384828501613c06565b5f8060408385031215613f6a575f80fd5b613f73836139f7565b9150613f81602084016139f7565b90509250929050565b5f60208284031215613f9a575f80fd5b5035919050565b5f805f60608486031215613fb3575f80fd5b613fbc846139f7565b9250602084013591506040840135613fd381613a6f565b809150509250925092565b5f60208284031215613fee575f80fd5b61090c82613dc4565b600181811c9082168061400b57607f821691505b60208210810361402957634e487b7160e01b5f52602260045260245ffd5b50919050565b634e487b7160e01b5f52601160045260245ffd5b818103818111156108df576108df61402f565b5f60208284031215614066575f80fd5b815160ff8116811461090c575f80fd5b808201808211156108df576108df61402f565b818382375f9101908152919050565b81835281816020850137505f828201602090810191909152601f909101601f19169091010190565b868152608060208201525f6140d9608083018789614098565b82810360408401526140ec818688614098565b915050826060830152979650505050505050565b5f60208284031215614110575f80fd5b815161090c81613a6f565b634e487b7160e01b5f52603260045260245ffd5b5f60a0828403121561413f575f80fd5b60405160a081016001600160401b038111828210171561416157614161613b9a565b8060405250809150825161417481613cc1565b815260208381015190820152604083015161418e81613cc1565b604082015260608381015190820152608092830151920191909152919050565b5f60a082840312156141be575f80fd5b61090c838361412f565b6001600160801b0381811683821601908111156108df576108df61402f565b6001600160801b0382811682821603908111156108df576108df61402f565b5f60208284031215614216575f80fd5b5051919050565b5f6001600160801b0382166001600160801b03810361423e5761423e61402f565b60010192915050565b5f604082018415158352604060208401528084518083526060850191506020860192505f5b818110156142b557835180516001600160a01b03168452602080820151818601526040918201516001600160801b0316918501919091529093019260609092019160010161426c565b50909695505050505050565b601f82111561193857805f5260205f20601f840160051c810160208510156142e65750805b601f840160051c820191505b81811015614305575f81556001016142f2565b5050505050565b81516001600160401b0381111561432557614325613b9a565b614339816143338454613ff7565b846142c1565b6020601f82116001811461436b575f83156143545750848201515b5f19600385901b1c1916600184901b178455614305565b5f84815260208120601f198516915b8281101561439a578785015182556020948501946001909201910161437a565b50848210156143b757868401515f19600387901b60f8161c191681555b50505050600190811b01905550565b5f602082840312156143d6575f80fd5b81356001600160401b038111156143eb575f80fd5b8201606081850312156143fc575f80fd5b614404613bae565b61440d826139f7565b81526020828101359082015260408201356001600160401b03811115614431575f80fd5b61443d86828501613c06565b604083015250949350505050565b5f825161445c8184602087016139a3565b9190910192915050565b5f8060c08385031215614477575f80fd5b614481848461412f565b60a0939093015192949293505050565b5f61ffff821661ffff810361423e5761423e61402f56fe360894a13ba1a3210667c828492db98dca3e2076cc3735a920a3ca505d382bbca164736f6c634300081a000a",
    "linkReferences": {
      "node_modules/recoverable-wrapper/contracts/util/RecordUtil.sol": {
        "RecordsDequeLib": [
          {
            "start": 4309,
            "length": 20
          },
          {
            "start": 4711,
            "length": 20
          },
          {
            "start": 5547,
            "length": 20
          },
          {
            "start": 5779,
            "length": 20
          },
          {
            "start": 5951,
            "length": 20
          },
          {
            "start": 6288,
            "length": 20
          },
          {
            "start": 6507,
            "length": 20
          },
          {
            "start": 9218,
            "length": 20
          },
          {
            "start": 9940,
            "length": 20
          },
          {
            "start": 10155,
            "length": 20
          },
          {
            "start": 10491,
            "length": 20
          },
          {
            "start": 12452,
            "length": 20
          },
          {
            "start": 12640,
            "length": 20
          },
          {
            "start": 12772,
            "length": 20
          },
          {
            "start": 12987,
            "length": 20
          },
          {
            "start": 13229,
            "length": 20
          },
          {
            "start": 13472,
            "length": 20
          },
          {
            "start": 13771,
            "length": 20
          },
          {
            "start": 14065,
            "length": 20
          },
          {
            "start": 14212,
            "length": 20
          },
          {
            "start": 14528,
            "length": 20
          }
        ]
      }
    }
  },
  "methodIdentifiers": {
    "UPGRADE_INTERFACE_VERSION()": "ad3cb1cc",
    "allowance(address,address)": "dd62ed3e",
    "approve(address,uint256)": "095ea7b3",
    "balanceOf(address)": "70a08231",
    "balanceOf(address,bool)": "772865e2",
    "baseToken()": "c55dae63",
    "cancelOwnershipHandover()": "54d1f13d",
    "closeCase(bool,address,(address,uint256,uint128)[])": "6a6a2208",
    "completeOwnershipHandover(address)": "f04e283e",
    "decimals()": "313ce567",
    "decreaseAllowance(address,uint256)": "a457c2d7",
    "disableUnwrap()": "bde15931",
    "distributeStakeReward(address,uint256)": "90ea90ae",
    "execute(bytes32,string,string,bytes)": "49160658",
    "freeze((address,uint256,uint128)[])": "50c695d1",
    "frozen(address)": "d0516650",
    "gateway()": "116191b6",
    "governanceAddress()": "795053d3",
    "increaseAllowance(address,uint256)": "39509351",
    "initialize(string,string,address,uint16,address)": "55ba7f97",
    "name()": "06fdde03",
    "nonce(address)": "70ae92d2",
    "owner()": "8da5cb5b",
    "ownershipHandoverExpiresAt(address)": "fee81cf4",
    "proxiableUUID()": "52d1902d",
    "recoverableWindow()": "c2029b0c",
    "renounceOwnership()": "715018a6",
    "requestOwnershipHandover()": "25692962",
    "setGovernanceAddress(address)": "cfc16254",
    "setMaxToClean(uint16)": "f3ccf05e",
    "setName(string)": "c47f0027",
    "setSymbol(string)": "b84c8246",
    "spendableBalanceOf(address,bool)": "2b87c507",
    "symbol()": "95d89b41",
    "totalSupply()": "18160ddd",
    "transfer(address,uint256)": "a9059cbb",
    "transfer(address,uint256,bool)": "e1ad1162",
    "transferFrom(address,address,uint256)": "23b872dd",
    "transferFrom(address,address,uint256,bool)": "6f2293ab",
    "transferOwnership(address)": "f2fde38b",
    "unwrap(uint256)": "de0e9a3e",
    "unwrapDisabled(address)": "69b0758e",
    "unwrapTo(address,uint256)": "c12ea3ca",
    "upgradeToAndCall(address,bytes)": "4f1ef286",
    "wrap(uint256)": "ea598cb0"
  },
  "id": 126
}