{
  "abi": [
    {
      "type": "receive",
      "stateMutability": "payable"
    },
    {
      "type": "function",
      "name": "DEFAULT_ADMIN_ROLE",
      "inputs": [],
      "outputs": [
        {
          "name": "",
          "type": "bytes32",
          "internalType": "bytes32"
        }
      ],
      "stateMutability": "view"
    },
    {
      "type": "function",
      "name": "FAUCET_ROLE",
      "inputs": [],
      "outputs": [
        {
          "name": "",
          "type": "bytes32",
          "internalType": "bytes32"
        }
      ],
      "stateMutability": "view"
    },
    {
      "type": "function",
      "name": "MAINTAINER_ROLE",
      "inputs": [],
      "outputs": [
        {
          "name": "",
          "type": "bytes32",
          "internalType": "bytes32"
        }
      ],
      "stateMutability": "view"
    },
    {
      "type": "function",
      "name": "NATIVE_TOKEN_POINTER",
      "inputs": [],
      "outputs": [
        {
          "name": "",
          "type": "address",
          "internalType": "address"
        }
      ],
      "stateMutability": "view"
    },
    {
      "type": "function",
      "name": "PAUSER_ROLE",
      "inputs": [],
      "outputs": [
        {
          "name": "",
          "type": "bytes32",
          "internalType": "bytes32"
        }
      ],
      "stateMutability": "view"
    },
    {
      "type": "function",
      "name": "SWAPPER_ROLE",
      "inputs": [],
      "outputs": [
        {
          "name": "",
          "type": "bytes32",
          "internalType": "bytes32"
        }
      ],
      "stateMutability": "view"
    },
    {
      "type": "function",
      "name": "UPGRADE_INTERFACE_VERSION",
      "inputs": [],
      "outputs": [
        {
          "name": "",
          "type": "string",
          "internalType": "string"
        }
      ],
      "stateMutability": "view"
    },
    {
      "type": "function",
      "name": "UpdateXYZ",
      "inputs": [
        {
          "name": "token",
          "type": "address",
          "internalType": "address"
        },
        {
          "name": "validity",
          "type": "bool",
          "internalType": "bool"
        },
        {
          "name": "maxLimit",
          "type": "uint256",
          "internalType": "uint256"
        },
        {
          "name": "minLimit",
          "type": "uint256",
          "internalType": "uint256"
        }
      ],
      "outputs": [],
      "stateMutability": "nonpayable"
    },
    {
      "type": "function",
      "name": "__StablecoinHandler_init",
      "inputs": [],
      "outputs": [],
      "stateMutability": "nonpayable"
    },
    {
      "type": "function",
      "name": "__StablecoinHandler_init_unchained",
      "inputs": [],
      "outputs": [],
      "stateMutability": "nonpayable"
    },
    {
      "type": "function",
      "name": "convertFromEXYZ",
      "inputs": [
        {
          "name": "wallet",
          "type": "address",
          "internalType": "address"
        },
        {
          "name": "safe",
          "type": "address",
          "internalType": "address"
        },
        {
          "name": "ss",
          "type": "tuple",
          "internalType": "struct StablecoinHandler.StablecoinSwap",
          "components": [
            {
              "name": "destination",
              "type": "address",
              "internalType": "address"
            },
            {
              "name": "origin",
              "type": "address",
              "internalType": "address"
            },
            {
              "name": "oAmount",
              "type": "uint256",
              "internalType": "uint256"
            },
            {
              "name": "target",
              "type": "address",
              "internalType": "address"
            },
            {
              "name": "tAmount",
              "type": "uint256",
              "internalType": "uint256"
            }
          ]
        }
      ],
      "outputs": [],
      "stateMutability": "nonpayable"
    },
    {
      "type": "function",
      "name": "convertToEXYZ",
      "inputs": [
        {
          "name": "wallet",
          "type": "address",
          "internalType": "address"
        },
        {
          "name": "safe",
          "type": "address",
          "internalType": "address"
        },
        {
          "name": "ss",
          "type": "tuple",
          "internalType": "struct StablecoinHandler.StablecoinSwap",
          "components": [
            {
              "name": "destination",
              "type": "address",
              "internalType": "address"
            },
            {
              "name": "origin",
              "type": "address",
              "internalType": "address"
            },
            {
              "name": "oAmount",
              "type": "uint256",
              "internalType": "uint256"
            },
            {
              "name": "target",
              "type": "address",
              "internalType": "address"
            },
            {
              "name": "tAmount",
              "type": "uint256",
              "internalType": "uint256"
            }
          ]
        }
      ],
      "outputs": [],
      "stateMutability": "nonpayable"
    },
    {
      "type": "function",
      "name": "drip",
      "inputs": [
        {
          "name": "token",
          "type": "address",
          "internalType": "address"
        },
        {
          "name": "recipient",
          "type": "address",
          "internalType": "address"
        }
      ],
      "outputs": [],
      "stateMutability": "nonpayable"
    },
    {
      "type": "function",
      "name": "getDripAmount",
      "inputs": [],
      "outputs": [
        {
          "name": "dripAmount",
          "type": "uint256",
          "internalType": "uint256"
        }
      ],
      "stateMutability": "view"
    },
    {
      "type": "function",
      "name": "getEnabledXYZs",
      "inputs": [],
      "outputs": [
        {
          "name": "enabledXYZs",
          "type": "address[]",
          "internalType": "address[]"
        }
      ],
      "stateMutability": "view"
    },
    {
      "type": "function",
      "name": "getEnabledXYZsWithMetadata",
      "inputs": [],
      "outputs": [
        {
          "name": "enabledXYZMetadatas",
          "type": "tuple[]",
          "internalType": "struct StablecoinManager.XYZMetadata[]",
          "components": [
            {
              "name": "token",
              "type": "address",
              "internalType": "address"
            },
            {
              "name": "name",
              "type": "string",
              "internalType": "string"
            },
            {
              "name": "symbol",
              "type": "string",
              "internalType": "string"
            },
            {
              "name": "decimals",
              "type": "uint256",
              "internalType": "uint256"
            }
          ]
        }
      ],
      "stateMutability": "view"
    },
    {
      "type": "function",
      "name": "getLastFulfilledDripTimestamp",
      "inputs": [
        {
          "name": "token",
          "type": "address",
          "internalType": "address"
        },
        {
          "name": "recipient",
          "type": "address",
          "internalType": "address"
        }
      ],
      "outputs": [
        {
          "name": "timestamp",
          "type": "uint256",
          "internalType": "uint256"
        }
      ],
      "stateMutability": "view"
    },
    {
      "type": "function",
      "name": "getMaxLimit",
      "inputs": [
        {
          "name": "token",
          "type": "address",
          "internalType": "address"
        }
      ],
      "outputs": [
        {
          "name": "",
          "type": "uint256",
          "internalType": "uint256"
        }
      ],
      "stateMutability": "view"
    },
    {
      "type": "function",
      "name": "getMinLimit",
      "inputs": [
        {
          "name": "token",
          "type": "address",
          "internalType": "address"
        }
      ],
      "outputs": [
        {
          "name": "",
          "type": "uint256",
          "internalType": "uint256"
        }
      ],
      "stateMutability": "view"
    },
    {
      "type": "function",
      "name": "getNativeDripAmount",
      "inputs": [],
      "outputs": [
        {
          "name": "nativeDripAmount",
          "type": "uint256",
          "internalType": "uint256"
        }
      ],
      "stateMutability": "view"
    },
    {
      "type": "function",
      "name": "getRoleAdmin",
      "inputs": [
        {
          "name": "role",
          "type": "bytes32",
          "internalType": "bytes32"
        }
      ],
      "outputs": [
        {
          "name": "",
          "type": "bytes32",
          "internalType": "bytes32"
        }
      ],
      "stateMutability": "view"
    },
    {
      "type": "function",
      "name": "grantRole",
      "inputs": [
        {
          "name": "role",
          "type": "bytes32",
          "internalType": "bytes32"
        },
        {
          "name": "account",
          "type": "address",
          "internalType": "address"
        }
      ],
      "outputs": [],
      "stateMutability": "nonpayable"
    },
    {
      "type": "function",
      "name": "hasRole",
      "inputs": [
        {
          "name": "role",
          "type": "bytes32",
          "internalType": "bytes32"
        },
        {
          "name": "account",
          "type": "address",
          "internalType": "address"
        }
      ],
      "outputs": [
        {
          "name": "",
          "type": "bool",
          "internalType": "bool"
        }
      ],
      "stateMutability": "view"
    },
    {
      "type": "function",
      "name": "initialize",
      "inputs": [
        {
          "name": "initParams",
          "type": "tuple",
          "internalType": "struct StablecoinManager.StablecoinManagerInitParams",
          "components": [
            {
              "name": "admin_",
              "type": "address",
              "internalType": "address"
            },
            {
              "name": "maintainer_",
              "type": "address",
              "internalType": "address"
            },
            {
              "name": "tokens_",
              "type": "address[]",
              "internalType": "address[]"
            },
            {
              "name": "initMaxLimit",
              "type": "uint256",
              "internalType": "uint256"
            },
            {
              "name": "initMinLimit",
              "type": "uint256",
              "internalType": "uint256"
            },
            {
              "name": "authorizedFaucets_",
              "type": "address[]",
              "internalType": "address[]"
            },
            {
              "name": "dripAmount_",
              "type": "uint256",
              "internalType": "uint256"
            },
            {
              "name": "nativeDripAmount_",
              "type": "uint256",
              "internalType": "uint256"
            }
          ]
        }
      ],
      "outputs": [],
      "stateMutability": "nonpayable"
    },
    {
      "type": "function",
      "name": "isEnabledXYZ",
      "inputs": [
        {
          "name": "eXYZ",
          "type": "address",
          "internalType": "address"
        }
      ],
      "outputs": [
        {
          "name": "isEnabled",
          "type": "bool",
          "internalType": "bool"
        }
      ],
      "stateMutability": "view"
    },
    {
      "type": "function",
      "name": "isXYZ",
      "inputs": [
        {
          "name": "token",
          "type": "address",
          "internalType": "address"
        }
      ],
      "outputs": [
        {
          "name": "",
          "type": "bool",
          "internalType": "bool"
        }
      ],
      "stateMutability": "view"
    },
    {
      "type": "function",
      "name": "pause",
      "inputs": [],
      "outputs": [],
      "stateMutability": "nonpayable"
    },
    {
      "type": "function",
      "name": "paused",
      "inputs": [],
      "outputs": [
        {
          "name": "",
          "type": "bool",
          "internalType": "bool"
        }
      ],
      "stateMutability": "view"
    },
    {
      "type": "function",
      "name": "proxiableUUID",
      "inputs": [],
      "outputs": [
        {
          "name": "",
          "type": "bytes32",
          "internalType": "bytes32"
        }
      ],
      "stateMutability": "view"
    },
    {
      "type": "function",
      "name": "renounceRole",
      "inputs": [
        {
          "name": "role",
          "type": "bytes32",
          "internalType": "bytes32"
        },
        {
          "name": "callerConfirmation",
          "type": "address",
          "internalType": "address"
        }
      ],
      "outputs": [],
      "stateMutability": "nonpayable"
    },
    {
      "type": "function",
      "name": "rescueCrypto",
      "inputs": [
        {
          "name": "token",
          "type": "address",
          "internalType": "contract IERC20"
        },
        {
          "name": "amount",
          "type": "uint256",
          "internalType": "uint256"
        }
      ],
      "outputs": [],
      "stateMutability": "nonpayable"
    },
    {
      "type": "function",
      "name": "revokeRole",
      "inputs": [
        {
          "name": "role",
          "type": "bytes32",
          "internalType": "bytes32"
        },
        {
          "name": "account",
          "type": "address",
          "internalType": "address"
        }
      ],
      "outputs": [],
      "stateMutability": "nonpayable"
    },
    {
      "type": "function",
      "name": "setDripAmount",
      "inputs": [
        {
          "name": "newDripAmount",
          "type": "uint256",
          "internalType": "uint256"
        }
      ],
      "outputs": [],
      "stateMutability": "nonpayable"
    },
    {
      "type": "function",
      "name": "setLowBalanceThreshold",
      "inputs": [
        {
          "name": "newThreshold",
          "type": "uint256",
          "internalType": "uint256"
        }
      ],
      "outputs": [],
      "stateMutability": "nonpayable"
    },
    {
      "type": "function",
      "name": "setNativeDripAmount",
      "inputs": [
        {
          "name": "newNativeDripAmount",
          "type": "uint256",
          "internalType": "uint256"
        }
      ],
      "outputs": [],
      "stateMutability": "nonpayable"
    },
    {
      "type": "function",
      "name": "supportsInterface",
      "inputs": [
        {
          "name": "interfaceId",
          "type": "bytes4",
          "internalType": "bytes4"
        }
      ],
      "outputs": [
        {
          "name": "",
          "type": "bool",
          "internalType": "bool"
        }
      ],
      "stateMutability": "view"
    },
    {
      "type": "function",
      "name": "swapAndSend",
      "inputs": [
        {
          "name": "wallet",
          "type": "address",
          "internalType": "address"
        },
        {
          "name": "ss",
          "type": "tuple",
          "internalType": "struct StablecoinHandler.StablecoinSwap",
          "components": [
            {
              "name": "destination",
              "type": "address",
              "internalType": "address"
            },
            {
              "name": "origin",
              "type": "address",
              "internalType": "address"
            },
            {
              "name": "oAmount",
              "type": "uint256",
              "internalType": "uint256"
            },
            {
              "name": "target",
              "type": "address",
              "internalType": "address"
            },
            {
              "name": "tAmount",
              "type": "uint256",
              "internalType": "uint256"
            }
          ]
        }
      ],
      "outputs": [],
      "stateMutability": "nonpayable"
    },
    {
      "type": "function",
      "name": "unpause",
      "inputs": [],
      "outputs": [],
      "stateMutability": "nonpayable"
    },
    {
      "type": "function",
      "name": "upgradeToAndCall",
      "inputs": [
        {
          "name": "newImplementation",
          "type": "address",
          "internalType": "address"
        },
        {
          "name": "data",
          "type": "bytes",
          "internalType": "bytes"
        }
      ],
      "outputs": [],
      "stateMutability": "payable"
    },
    {
      "type": "event",
      "name": "Drip",
      "inputs": [
        {
          "name": "token",
          "type": "address",
          "indexed": false,
          "internalType": "address"
        },
        {
          "name": "recipient",
          "type": "address",
          "indexed": false,
          "internalType": "address"
        },
        {
          "name": "amount",
          "type": "uint256",
          "indexed": false,
          "internalType": "uint256"
        }
      ],
      "anonymous": false
    },
    {
      "type": "event",
      "name": "DripAmountUpdated",
      "inputs": [
        {
          "name": "newDripAmount",
          "type": "uint256",
          "indexed": false,
          "internalType": "uint256"
        }
      ],
      "anonymous": false
    },
    {
      "type": "event",
      "name": "FaucetLowNativeBalance",
      "inputs": [],
      "anonymous": false
    },
    {
      "type": "event",
      "name": "Initialized",
      "inputs": [
        {
          "name": "version",
          "type": "uint64",
          "indexed": false,
          "internalType": "uint64"
        }
      ],
      "anonymous": false
    },
    {
      "type": "event",
      "name": "NativeDripAmountUpdated",
      "inputs": [
        {
          "name": "newNativeDripAmount",
          "type": "uint256",
          "indexed": false,
          "internalType": "uint256"
        }
      ],
      "anonymous": false
    },
    {
      "type": "event",
      "name": "Paused",
      "inputs": [
        {
          "name": "account",
          "type": "address",
          "indexed": false,
          "internalType": "address"
        }
      ],
      "anonymous": false
    },
    {
      "type": "event",
      "name": "RoleAdminChanged",
      "inputs": [
        {
          "name": "role",
          "type": "bytes32",
          "indexed": true,
          "internalType": "bytes32"
        },
        {
          "name": "previousAdminRole",
          "type": "bytes32",
          "indexed": true,
          "internalType": "bytes32"
        },
        {
          "name": "newAdminRole",
          "type": "bytes32",
          "indexed": true,
          "internalType": "bytes32"
        }
      ],
      "anonymous": false
    },
    {
      "type": "event",
      "name": "RoleGranted",
      "inputs": [
        {
          "name": "role",
          "type": "bytes32",
          "indexed": true,
          "internalType": "bytes32"
        },
        {
          "name": "account",
          "type": "address",
          "indexed": true,
          "internalType": "address"
        },
        {
          "name": "sender",
          "type": "address",
          "indexed": true,
          "internalType": "address"
        }
      ],
      "anonymous": false
    },
    {
      "type": "event",
      "name": "RoleRevoked",
      "inputs": [
        {
          "name": "role",
          "type": "bytes32",
          "indexed": true,
          "internalType": "bytes32"
        },
        {
          "name": "account",
          "type": "address",
          "indexed": true,
          "internalType": "address"
        },
        {
          "name": "sender",
          "type": "address",
          "indexed": true,
          "internalType": "address"
        }
      ],
      "anonymous": false
    },
    {
      "type": "event",
      "name": "Unpaused",
      "inputs": [
        {
          "name": "account",
          "type": "address",
          "indexed": false,
          "internalType": "address"
        }
      ],
      "anonymous": false
    },
    {
      "type": "event",
      "name": "Upgraded",
      "inputs": [
        {
          "name": "implementation",
          "type": "address",
          "indexed": true,
          "internalType": "address"
        }
      ],
      "anonymous": false
    },
    {
      "type": "event",
      "name": "XYZAdded",
      "inputs": [
        {
          "name": "token",
          "type": "address",
          "indexed": false,
          "internalType": "address"
        }
      ],
      "anonymous": false
    },
    {
      "type": "event",
      "name": "XYZRemoved",
      "inputs": [
        {
          "name": "token",
          "type": "address",
          "indexed": false,
          "internalType": "address"
        }
      ],
      "anonymous": false
    },
    {
      "type": "event",
      "name": "XYZUpdated",
      "inputs": [
        {
          "name": "token",
          "type": "address",
          "indexed": false,
          "internalType": "address"
        },
        {
          "name": "validity",
          "type": "bool",
          "indexed": false,
          "internalType": "bool"
        },
        {
          "name": "max",
          "type": "uint256",
          "indexed": false,
          "internalType": "uint256"
        },
        {
          "name": "min",
          "type": "uint256",
          "indexed": false,
          "internalType": "uint256"
        }
      ],
      "anonymous": false
    },
    {
      "type": "error",
      "name": "AccessControlBadConfirmation",
      "inputs": []
    },
    {
      "type": "error",
      "name": "AccessControlUnauthorizedAccount",
      "inputs": [
        {
          "name": "account",
          "type": "address",
          "internalType": "address"
        },
        {
          "name": "neededRole",
          "type": "bytes32",
          "internalType": "bytes32"
        }
      ]
    },
    {
      "type": "error",
      "name": "AddressEmptyCode",
      "inputs": [
        {
          "name": "target",
          "type": "address",
          "internalType": "address"
        }
      ]
    },
    {
      "type": "error",
      "name": "AddressInsufficientBalance",
      "inputs": [
        {
          "name": "account",
          "type": "address",
          "internalType": "address"
        }
      ]
    },
    {
      "type": "error",
      "name": "AlreadyEnabled",
      "inputs": [
        {
          "name": "token",
          "type": "address",
          "internalType": "address"
        }
      ]
    },
    {
      "type": "error",
      "name": "ERC1967InvalidImplementation",
      "inputs": [
        {
          "name": "implementation",
          "type": "address",
          "internalType": "address"
        }
      ]
    },
    {
      "type": "error",
      "name": "ERC1967NonPayable",
      "inputs": []
    },
    {
      "type": "error",
      "name": "EnforcedPause",
      "inputs": []
    },
    {
      "type": "error",
      "name": "ExpectedPause",
      "inputs": []
    },
    {
      "type": "error",
      "name": "FailedInnerCall",
      "inputs": []
    },
    {
      "type": "error",
      "name": "InvalidDripAmount",
      "inputs": [
        {
          "name": "dripAmount",
          "type": "uint256",
          "internalType": "uint256"
        }
      ]
    },
    {
      "type": "error",
      "name": "InvalidInitialization",
      "inputs": []
    },
    {
      "type": "error",
      "name": "InvalidMintBurnBoundry",
      "inputs": [
        {
          "name": "token",
          "type": "address",
          "internalType": "address"
        }
      ]
    },
    {
      "type": "error",
      "name": "InvalidOrDisabled",
      "inputs": [
        {
          "name": "token",
          "type": "address",
          "internalType": "address"
        }
      ]
    },
    {
      "type": "error",
      "name": "LowLevelCallFailure",
      "inputs": []
    },
    {
      "type": "error",
      "name": "NotInitializing",
      "inputs": []
    },
    {
      "type": "error",
      "name": "RequestIneligibleUntil",
      "inputs": [
        {
          "name": "unixTimestamp",
          "type": "uint256",
          "internalType": "uint256"
        }
      ]
    },
    {
      "type": "error",
      "name": "SafeERC20FailedOperation",
      "inputs": [
        {
          "name": "token",
          "type": "address",
          "internalType": "address"
        }
      ]
    },
    {
      "type": "error",
      "name": "UUPSUnauthorizedCallContext",
      "inputs": []
    },
    {
      "type": "error",
      "name": "UUPSUnsupportedProxiableUUID",
      "inputs": [
        {
          "name": "slot",
          "type": "bytes32",
          "internalType": "bytes32"
        }
      ]
    },
    {
      "type": "error",
      "name": "ZeroValueInput",
      "inputs": [
        {
          "name": "value",
          "type": "string",
          "internalType": "string"
        }
      ]
    }
  ],
  "bytecode": {
    "object": "0x60a0604052306080523480156012575f80fd5b506080516131246100395f395f8181611cba01528181611ce30152611e2401526131245ff3fe60806040526004361061022b575f3560e01c8063817204a411610129578063ad3cb1cc116100a8578063df668eca1161006d578063df668eca14610696578063e63ab1e9146106b6578063e9aea396146106e9578063eb3839a714610708578063f874225414610727575f80fd5b8063ad3cb1cc146105dd578063b4fc13351461061a578063c057bd6b14610639578063c5b059e714610658578063d547741f14610677575f80fd5b8063956794b1116100ee578063956794b11461054e578063959042a21461056d5780639ef841731461058c578063a0eba21a146105ab578063a217fddf146105ca575f80fd5b8063817204a4146104c85780638456cb59146104e85780638e13c58e146104fc57806391d148541461051b578063924855fa1461053a575f80fd5b80633f4ba83a116101b557806352d1902d1161017a57806352d1902d14610431578063543f8c58146104455780635c975abb1461046457806369e2fda4146104875780637ad73baf146104a8575f80fd5b80633f4ba83a1461039957806340c66f78146103ad57806345c7c793146103cc5780634f1ef286146103ff5780634f9c2c2614610412575f80fd5b806320b2cf9f116101fb57806320b2cf9f146102ef578063248a9ca31461031a5780632f2ff15d146103475780633598e3dc1461036657806336568abe1461037a575f80fd5b806301ffc9a71461023657806316ada6b11461026a5780631a0d6c2e1461028b5780631a95e05d146102ac575f80fd5b3661023257005b5f80fd5b348015610241575f80fd5b50610255610250366004612968565b610747565b60405190151581526020015b60405180910390f35b348015610275575f80fd5b5061028961028436600461298f565b61077d565b005b348015610296575f80fd5b5061029f6109d9565b6040516102619190612a13565b3480156102b7575f80fd5b506102556102c6366004612ad1565b6001600160a01b03165f9081525f80516020612fd8833981519152602052604090205460ff1690565b3480156102fa575f80fd5b506103025f81565b6040516001600160a01b039091168152602001610261565b348015610325575f80fd5b50610339610334366004612aec565b610c5b565b604051908152602001610261565b348015610352575f80fd5b50610289610361366004612b03565b610c7b565b348015610371575f80fd5b50610289610c9d565b348015610385575f80fd5b50610289610394366004612b03565b610caf565b3480156103a4575f80fd5b50610289610ce7565b3480156103b8575f80fd5b506102896103c7366004612b31565b610d1c565b3480156103d7575f80fd5b506103397faecf5761d3ba769b4631978eb26cb84eae66bcaca9c3f0f4ecde3feb2f4cf14481565b61028961040d366004612bc5565b610dbb565b34801561041d575f80fd5b5061033961042c366004612ad1565b610dda565b34801561043c575f80fd5b50610339610e03565b348015610450575f80fd5b5061028961045f366004612aec565b610e1e565b34801561046f575f80fd5b505f805160206130788339815191525460ff16610255565b348015610492575f80fd5b5061049b610e66565b6040516102619190612c51565b3480156104b3575f80fd5b505f805160206130d883398151915254610339565b3480156104d3575f80fd5b505f80516020612ff883398151915254610339565b3480156104f3575f80fd5b50610289610fd4565b348015610507575f80fd5b50610289610516366004612d22565b611006565b348015610526575f80fd5b50610255610535366004612b03565b6111e0565b348015610545575f80fd5b50610289611216565b348015610559575f80fd5b50610339610568366004612ad1565b611226565b348015610578575f80fd5b50610289610587366004612aec565b61124f565b348015610597575f80fd5b506102896105a6366004612d22565b611292565b3480156105b6575f80fd5b506102896105c5366004612aec565b611464565b3480156105d5575f80fd5b506103395f81565b3480156105e8575f80fd5b5061060d604051806040016040528060058152602001640352e302e360dc1b81525081565b6040516102619190612d67565b348015610625575f80fd5b50610255610634366004612ad1565b6114a3565b348015610644575f80fd5b50610289610653366004612d79565b611566565b348015610663575f80fd5b50610339610672366004612dad565b61182f565b348015610682575f80fd5b50610289610691366004612b03565b611879565b3480156106a1575f80fd5b506103395f805160206130b883398151915281565b3480156106c1575f80fd5b506103397f65d7a28e3265b37a6474929f336521b332c1681b933f6cb9f3376673440d862a81565b3480156106f4575f80fd5b50610289610703366004612de6565b611895565b348015610713575f80fd5b50610289610722366004612dad565b6118fc565b348015610732575f80fd5b506103395f805160206130f883398151915281565b5f6001600160e01b03198216637965db0b60e01b148061077757506301ffc9a760e01b6001600160e01b03198316145b92915050565b5f805160206130988339815191528054600160401b810460ff1615906001600160401b03165f811580156107ae5750825b90505f826001600160401b031660011480156107c95750303b155b9050811580156107d7575080155b156107f55760405163f92ee8a960e01b815260040160405180910390fd5b845467ffffffffffffffff19166001178555831561081f57845460ff60401b1916600160401b1785555b610827611216565b6108398660c001358760e00135611930565b6108636127107f331c20f00e5afe412d6bf194b51e8f2d981ce2eedc3a9ed8e5a5801a2017e90255565b6108725f60015f196001611895565b5f5b6108816040880188612e29565b90508110156108d8576108d061089a6040890189612e29565b838181106108aa576108aa612e75565b90506020020160208101906108bf9190612ad1565b600189606001358a60800135611895565b600101610874565b506108ef5f6108ea6020890189612ad1565b611a33565b506109115f805160206130f88339815191526108ea6040890160208a01612ad1565b505f5b61092160a0880188612e29565b9050811015610989576109807faecf5761d3ba769b4631978eb26cb84eae66bcaca9c3f0f4ecde3feb2f4cf14461095b60a08a018a612e29565b8481811061096b5761096b612e75565b90506020020160208101906108ea9190612ad1565b50600101610914565b5083156109d157845460ff60401b19168555604051600181527fc7f505b2f371ae2175ee4913f4499e1f2633a7b5936321eed1cdaeb6115181d2906020015b60405180910390a15b505050505050565b60605f6109e4610e66565b905080516001600160401b038111156109ff576109ff612b5b565b604051908082528060200260200182016040528015610a6257816020015b610a4f60405180608001604052805f6001600160a01b0316815260200160608152602001606081526020015f81525090565b815260200190600190039081610a1d5790505b5091505f5b8151811015610c56575f828281518110610a8357610a83612e75565b60200260200101516001600160a01b03166306fdde036040518163ffffffff1660e01b81526004015f60405180830381865afa158015610ac5573d5f803e3d5ffd5b505050506040513d5f823e601f3d908101601f19168201604052610aec9190810190612e89565b90505f838381518110610b0157610b01612e75565b60200260200101516001600160a01b03166395d89b416040518163ffffffff1660e01b81526004015f60405180830381865afa158015610b43573d5f803e3d5ffd5b505050506040513d5f823e601f3d908101601f19168201604052610b6a9190810190612e89565b90505f848481518110610b7f57610b7f612e75565b60200260200101516001600160a01b031663313ce5676040518163ffffffff1660e01b8152600401602060405180830381865afa158015610bc2573d5f803e3d5ffd5b505050506040513d601f19601f82011682018060405250810190610be69190612ef1565b90506040518060800160405280868681518110610c0557610c05612e75565b60200260200101516001600160a01b0316815260200184815260200183815260200182815250868581518110610c3d57610c3d612e75565b6020026020010181905250505050806001019050610a67565b505090565b5f9081525f80516020613058833981519152602052604090206001015490565b610c8482610c5b565b610c8d81611ad4565b610c978383611a33565b50505050565b610ca5611b32565b610cad611b68565b565b6001600160a01b0381163314610cd85760405163334bd91960e11b815260040160405180910390fd5b610ce28282611b78565b505050565b7f65d7a28e3265b37a6474929f336521b332c1681b933f6cb9f3376673440d862a610d1181611ad4565b610d19611bf1565b50565b5f805160206130f8833981519152610d3381611ad4565b6001600160a01b038316610da7576040515f90339084908381818185875af1925050503d805f8114610d80576040519150601f19603f3d011682016040523d82523d5f602084013e610d85565b606091505b5050905080610c9757604051633acddfc160e21b815260040160405180910390fd5b610ce26001600160a01b0384163384611c50565b610dc3611caf565b610dcc82611d53565b610dd68282611d5d565b5050565b6001600160a01b03165f9081525f80516020612fd8833981519152602052604090206001015490565b5f610e0c611e19565b505f8051602061301883398151915290565b5f805160206130f8833981519152610e3581611ad4565b815f03610e5d5760405163e5f9b6ad60e01b8152600481018390526024015b60405180910390fd5b610dd682611e62565b5f80516020613038833981519152805460408051602080840282018101909252828152606093925f92849190830182828015610ec957602002820191905f5260205f20905b81546001600160a01b03168152600190910190602001808311610eab575b5050505050905080515f03610eed575050604080515f815260208101909152919050565b5f80610ef883611eab565b9150915081610f0a5750909392505050565b5f60018451610f199190612f1c565b9050806001600160401b03811115610f3357610f33612b5b565b604051908082528060200260200182016040528015610f5c578160200160208202803683370190505b5095505f805b8551811015610fca57808414610fc257858181518110610f8457610f84612e75565b6020026020010151888381518110610f9e57610f9e612e75565b6001600160a01b0390921660209283029190910190910152610fbf82612f2f565b91505b600101610f62565b5050505050505090565b7f65d7a28e3265b37a6474929f336521b332c1681b933f6cb9f3376673440d862a610ffe81611ad4565b610d19611f0d565b61100e611f55565b805181906001600160a01b03161580611032575060208101516001600160a01b0316155b8061103f57506040810151155b80611055575060608101516001600160a01b0316155b8061106257506080810151155b15611080576040516326401ebb60e01b8152600401610e5490612f47565b5f805160206130b883398151915261109781611ad4565b6110a48360600151610dda565b836080015184606001516001600160a01b03166318160ddd6040518163ffffffff1660e01b8152600401602060405180830381865afa1580156110e9573d5f803e3d5ffd5b505050506040513d601f19601f8201168201806040525081019061110d9190612ef1565b6111179190612f63565b11156111475760608301516040516318c0142960e11b81526001600160a01b039091166004820152602401610e54565b61116f8585856040015186602001516001600160a01b0316611f85909392919063ffffffff16565b6060830151835160808501516040516308934a5f60e31b81526001600160a01b039283166004820152602481019190915291169063449a52f8906044015f604051808303815f87803b1580156111c3575f80fd5b505af11580156111d5573d5f803e3d5ffd5b505050505050505050565b5f9182525f80516020613058833981519152602090815260408084206001600160a01b0393909316845291905290205460ff1690565b61121e611b32565b610cad610c9d565b6001600160a01b03165f9081525f80516020612fd8833981519152602052604090206002015490565b5f805160206130f883398151915261126681611ad4565b815f036112895760405163e5f9b6ad60e01b815260048101839052602401610e54565b610dd682611fbe565b61129a611f55565b805181906001600160a01b031615806112be575060208101516001600160a01b0316155b806112cb57506040810151155b806112e1575060608101516001600160a01b0316155b806112ee57506080810151155b1561130c576040516326401ebb60e01b8152600401610e5490612f47565b5f805160206130b883398151915261132381611ad4565b6113308360200151611226565b836040015184602001516001600160a01b03166318160ddd6040518163ffffffff1660e01b8152600401602060405180830381865afa158015611375573d5f803e3d5ffd5b505050506040513d601f19601f820116820180604052508101906113999190612ef1565b6113a39190612f1c565b10156113d35760208301516040516318c0142960e11b81526001600160a01b039091166004820152602401610e54565b6020830151604080850151905163079cc67960e41b81526001600160a01b03888116600483015260248201929092529116906379cc6790906044015f604051808303815f87803b158015611425575f80fd5b505af1158015611437573d5f803e3d5ffd5b505084516080860151606087015161145d94506001600160a01b03169250879190611f85565b5050505050565b5f805160206130f883398151915261147b81611ad4565b610dd6827f331c20f00e5afe412d6bf194b51e8f2d981ce2eedc3a9ed8e5a5801a2017e90255565b5f805160206130388339815191528054604080516020808402820181019092528281525f9392849284919083018282801561150557602002820191905f5260205f20905b81546001600160a01b031681526001909101906020018083116114e7575b505050505090505f5b815181101561155c57846001600160a01b031682828151811061153357611533612e75565b60200260200101516001600160a01b03160361155457506001949350505050565b60010161150e565b505f949350505050565b61156e611f55565b805181906001600160a01b03161580611592575060208101516001600160a01b0316155b8061159f57506040810151155b806115b5575060608101516001600160a01b0316155b806115c257506080810151155b156115e0576040516326401ebb60e01b8152600401610e5490612f47565b5f805160206130b88339815191526115f781611ad4565b6116048360200151611226565b836040015184602001516001600160a01b03166318160ddd6040518163ffffffff1660e01b8152600401602060405180830381865afa158015611649573d5f803e3d5ffd5b505050506040513d601f19601f8201168201806040525081019061166d9190612ef1565b6116779190612f1c565b10156116a75760208301516040516318c0142960e11b81526001600160a01b039091166004820152602401610e54565b6116b48360600151610dda565b836080015184606001516001600160a01b03166318160ddd6040518163ffffffff1660e01b8152600401602060405180830381865afa1580156116f9573d5f803e3d5ffd5b505050506040513d601f19601f8201168201806040525081019061171d9190612ef1565b6117279190612f63565b11156117575760608301516040516318c0142960e11b81526001600160a01b039091166004820152602401610e54565b6020830151604080850151905163079cc67960e41b81526001600160a01b03878116600483015260248201929092529116906379cc6790906044015f604051808303815f87803b1580156117a9575f80fd5b505af11580156117bb573d5f803e3d5ffd5b505050506060830151835160808501516040516308934a5f60e31b81526001600160a01b039283166004820152602481019190915291169063449a52f8906044015f604051808303815f87803b158015611813575f80fd5b505af1158015611825573d5f803e3d5ffd5b5050505050505050565b6001600160a01b039081165f9081527f331c20f00e5afe412d6bf194b51e8f2d981ce2eedc3a9ed8e5a5801a2017e903602090815260408083209490931682529290925290205490565b61188282610c5b565b61188b81611ad4565b610c978383611b78565b5f805160206130f88339815191526118ac81611ad4565b8380156118bd57506118bd856114a3565b156118e65760405163017e790360e31b81526001600160a01b0386166004820152602401610e54565b6118f0858561200e565b61145d8585858561202a565b7faecf5761d3ba769b4631978eb26cb84eae66bcaca9c3f0f4ecde3feb2f4cf14461192681611ad4565b610ce2838361213b565b5f805160206130988339815191528054600160401b810460ff1615906001600160401b03165f811580156119615750825b90505f826001600160401b0316600114801561197c5750303b155b90508115801561198a575080155b156119a85760405163f92ee8a960e01b815260040160405180910390fd5b845467ffffffffffffffff1916600117855583156119d257845460ff60401b1916600160401b1785555b6119db87611e62565b6119e486611fbe565b8315611a2a57845460ff60401b19168555604051600181527fc7f505b2f371ae2175ee4913f4499e1f2633a7b5936321eed1cdaeb6115181d29060200160405180910390a15b50505050505050565b5f5f80516020613058833981519152611a4c84846111e0565b611acb575f848152602082815260408083206001600160a01b03871684529091529020805460ff19166001179055611a813390565b6001600160a01b0316836001600160a01b0316857f2f8788117e7eff1d82e926ec794901d17c78024a50270940304540a733656f0d60405160405180910390a46001915050610777565b5f915050610777565b335f611ae083836111e0565b80611b0057505f8051602061309883398151915254600160401b900460ff165b905080610ce25760405163e2517d3f60e01b81526001600160a01b038316600482015260248101849052604401610e54565b5f8051602061309883398151915254600160401b900460ff16610cad57604051631afcd79f60e31b815260040160405180910390fd5b611b70611b32565b610cad612195565b5f5f80516020613058833981519152611b9184846111e0565b15611acb575f848152602082815260408083206001600160a01b0387168085529252808320805460ff1916905551339287917ff6391f5c32d9c69d2a47ea670b442974b53935d1edc7fd64eb21e047a839171b9190a46001915050610777565b611bf96121b5565b5f80516020613078833981519152805460ff191681557f5db9ee0a495bf2e6ff9c91a7834c1ba4fdd244a5e8aa4e537bd38aeae4b073aa335b6040516001600160a01b03909116815260200160405180910390a150565b6040516001600160a01b03838116602483015260448201839052610ce291859182169063a9059cbb906064015b604051602081830303815290604052915060e01b6020820180516001600160e01b0383818316178352505050506121e4565b306001600160a01b037f0000000000000000000000000000000000000000000000000000000000000000161480611d3557507f00000000000000000000000000000000000000000000000000000000000000006001600160a01b0316611d295f80516020613018833981519152546001600160a01b031690565b6001600160a01b031614155b15610cad5760405163703e46dd60e11b815260040160405180910390fd5b5f610dd681611ad4565b816001600160a01b03166352d1902d6040518163ffffffff1660e01b8152600401602060405180830381865afa925050508015611db7575060408051601f3d908101601f19168201909252611db491810190612ef1565b60015b611ddf57604051634c9c8ce360e01b81526001600160a01b0383166004820152602401610e54565b5f805160206130188339815191528114611e0f57604051632a87526960e21b815260048101829052602401610e54565b610ce28383612245565b306001600160a01b037f00000000000000000000000000000000000000000000000000000000000000001614610cad5760405163703e46dd60e11b815260040160405180910390fd5b5f80516020612ff88339815191528181556040518281527f33f3faee0788ab897d8f674abe1dde6d93ba901e4a1502161294734ba178e3c7906020015b60405180910390a15050565b5f805f5b8351811015611efe575f6001600160a01b0316848281518110611ed457611ed4612e75565b60200260200101516001600160a01b031603611ef65760019250809150611efe565b600101611eaf565b5081611f0857505f195b915091565b611f15611f55565b5f80516020613078833981519152805460ff191660011781557f62e78cea01bee320cd4e420270b5ea74000d11b0c9f74754ebdbfc544b05a25833611c32565b5f805160206130788339815191525460ff1615610cad5760405163d93c066560e01b815260040160405180910390fd5b6040516001600160a01b038481166024830152838116604483015260648201839052610c979186918216906323b872dd90608401611c7d565b5f805160206130d88339815191528190556040518181525f80516020612ff8833981519152907fbf420dc53ff33cecece09463750eae7694a8fe807007924887a27dd11a0df04890602001611e9f565b80151560010361202157610dd68261229a565b610dd682612322565b5f805160206130f883398151915261204181611ad4565b8183116120b65760405162461bcd60e51b815260206004820152603d60248201527f537461626c65636f696e48616e646c65723a207570706572626f756e64206d7560448201527f73742062652067726561746572207468616e206c6f776572626f756e640000006064820152608401610e54565b6001600160a01b0385165f8181525f80516020612fd88339815191526020818152604092839020805460ff1916891515908117825560018201899055600290910187905583519485529084015290820185905260608201849052907f84f12763861d318f97fe38a0e6f70b46f0566462d67561978f0f4dff814031df906080016109c8565b61214582826124ee565b6001600160a01b038082165f9081527f331c20f00e5afe412d6bf194b51e8f2d981ce2eedc3a9ed8e5a5801a2017e90360209081526040808320938616835292905220429055610dd68282612569565b61219d611b32565b5f80516020613078833981519152805460ff19169055565b5f805160206130788339815191525460ff16610cad57604051638dfc202b60e01b815260040160405180910390fd5b5f6121f86001600160a01b038416836126c6565b905080515f1415801561221c57508080602001905181019061221a9190612f76565b155b15610ce257604051635274afe760e01b81526001600160a01b0384166004820152602401610e54565b61224e826126da565b6040516001600160a01b038316907fbc7cd75a20ee27fd9adebab32041f755214dbc6bffa90cc0225b39da2e5c2d3b905f90a280511561229257610ce2828261273d565b610dd66127af565b5f8051602061303883398151915280546001810182555f8290527f7e20de35e2cca1b91743fd09589d05b1415d23ef62d96d86c8e1bc09ee225f0f0180546001600160a01b0319166001600160a01b0384169081179091556040519081527fc039c75cef0904723584eecbad08281b7298a16c9fadc7dbbb576359df79c1de90602001611e9f565b5f805160206130388339815191528054604080516020808402820181019092528281525f92909184919083018282801561238357602002820191905f5260205f20905b81546001600160a01b03168152600190910190602001808311612365575b505050505090505f5f1990505f5b82518110156123d857846001600160a01b03168382815181106123b6576123b6612e75565b60200260200101516001600160a01b0316036123d0578091505b600101612391565b505f19810361240557604051635ab8d72960e11b81526001600160a01b0385166004820152602401610e54565b5f600183516124149190612f1c565b90508082146124775782818151811061242f5761242f612e75565b6020026020010151845f01838154811061244b5761244b612e75565b905f5260205f20015f6101000a8154816001600160a01b0302191690836001600160a01b031602179055505b835484908061248857612488612f91565b5f8281526020908190205f19908301810180546001600160a01b03191690559091019091556040516001600160a01b03871681527f29ef6e5e7533f5e04f1729a119b0acf31837e10f8a66e61d22dedd180d0221e9910160405180910390a15050505050565b6124f7826114a3565b61251f57604051635ab8d72960e11b81526001600160a01b0383166004820152602401610e54565b5f61252a838361182f565b90506125398162015180612f63565b421015610ce25761254d8162015180612f63565b60405163737aab0d60e01b8152600401610e5491815260200190565b5f6001600160a01b03831661260557505f805160206130d8833981519152546040515f906001600160a01b0384169083908381818185875af1925050503d805f81146125d0576040519150601f19603f3d011682016040523d82523d5f602084013e6125d5565b606091505b50509050806125f757604051633acddfc160e21b815260040160405180910390fd5b6125ff6127ce565b50612676565b5f80516020612ff8833981519152546040516308934a5f60e31b81526001600160a01b038481166004830152602482018390529192509084169063449a52f8906044015f604051808303815f87803b15801561265f575f80fd5b505af1158015612671573d5f803e3d5ffd5b505050505b604080516001600160a01b038086168252841660208201529081018290527fdfc93ac43234c3993e5d23f2a1a4c52b2ac70f67cf1f534bd7ceb92328bf949a9060600160405180910390a1505050565b60606126d383835f61284a565b9392505050565b806001600160a01b03163b5f0361270f57604051634c9c8ce360e01b81526001600160a01b0382166004820152602401610e54565b5f8051602061301883398151915280546001600160a01b0319166001600160a01b0392909216919091179055565b60605f80846001600160a01b0316846040516127599190612fa5565b5f60405180830381855af49150503d805f8114612791576040519150601f19603f3d011682016040523d82523d5f602084013e612796565b606091505b50915091506127a68583836128e3565b95945050505050565b3415610cad5760405163b398979f60e01b815260040160405180910390fd5b5f6127f77f331c20f00e5afe412d6bf194b51e8f2d981ce2eedc3a9ed8e5a5801a2017e9025490565b90508061280f5f805160206130d88339815191525490565b6128199190612fc0565b4711610d19576040517f5591ba669ef796bed7d2409e80ed620b93401c29229618b279b31b41d64a1600905f90a150565b60608147101561286f5760405163cd78605960e01b8152306004820152602401610e54565b5f80856001600160a01b0316848660405161288a9190612fa5565b5f6040518083038185875af1925050503d805f81146128c4576040519150601f19603f3d011682016040523d82523d5f602084013e6128c9565b606091505b50915091506128d98683836128e3565b9695505050505050565b6060826128f8576128f38261293f565b6126d3565b815115801561290f57506001600160a01b0384163b155b1561293857604051639996b31560e01b81526001600160a01b0385166004820152602401610e54565b50806126d3565b80511561294f5780518082602001fd5b604051630a12f52160e11b815260040160405180910390fd5b5f60208284031215612978575f80fd5b81356001600160e01b0319811681146126d3575f80fd5b5f6020828403121561299f575f80fd5b81356001600160401b038111156129b4575f80fd5b820161010081850312156126d3575f80fd5b5f5b838110156129e05781810151838201526020016129c8565b50505f910152565b5f81518084526129ff8160208601602086016129c6565b601f01601f19169290920160200192915050565b5f602082016020835280845180835260408501915060408160051b8601019250602086015f5b82811015612ab157868503603f19018452815180516001600160a01b03168652602080820151608091880182905290612a74908801826129e8565b905060408201518782036040890152612a8d82826129e8565b60609384015198909301979097525094506020938401939190910190600101612a39565b50929695505050505050565b6001600160a01b0381168114610d19575f80fd5b5f60208284031215612ae1575f80fd5b81356126d381612abd565b5f60208284031215612afc575f80fd5b5035919050565b5f8060408385031215612b14575f80fd5b823591506020830135612b2681612abd565b809150509250929050565b5f8060408385031215612b42575f80fd5b8235612b4d81612abd565b946020939093013593505050565b634e487b7160e01b5f52604160045260245ffd5b604051601f8201601f191681016001600160401b0381118282101715612b9757612b97612b5b565b604052919050565b5f6001600160401b03821115612bb757612bb7612b5b565b50601f01601f191660200190565b5f8060408385031215612bd6575f80fd5b8235612be181612abd565b915060208301356001600160401b03811115612bfb575f80fd5b8301601f81018513612c0b575f80fd5b8035612c1e612c1982612b9f565b612b6f565b818152866020838501011115612c32575f80fd5b816020840160208301375f602083830101528093505050509250929050565b602080825282518282018190525f918401906040840190835b81811015612c915783516001600160a01b0316835260209384019390920191600101612c6a565b509095945050505050565b5f60a08284031215612cac575f80fd5b60405160a081016001600160401b0381118282101715612cce57612cce612b5b565b6040529050808235612cdf81612abd565b81526020830135612cef81612abd565b6020820152604083810135908201526060830135612d0c81612abd565b6060820152608092830135920191909152919050565b5f805f60e08486031215612d34575f80fd5b8335612d3f81612abd565b92506020840135612d4f81612abd565b9150612d5e8560408601612c9c565b90509250925092565b602081525f6126d360208301846129e8565b5f8060c08385031215612d8a575f80fd5b8235612d9581612abd565b9150612da48460208501612c9c565b90509250929050565b5f8060408385031215612dbe575f80fd5b8235612dc981612abd565b91506020830135612b2681612abd565b8015158114610d19575f80fd5b5f805f8060808587031215612df9575f80fd5b8435612e0481612abd565b93506020850135612e1481612dd9565b93969395505050506040820135916060013590565b5f808335601e19843603018112612e3e575f80fd5b8301803591506001600160401b03821115612e57575f80fd5b6020019150600581901b3603821315612e6e575f80fd5b9250929050565b634e487b7160e01b5f52603260045260245ffd5b5f60208284031215612e99575f80fd5b81516001600160401b03811115612eae575f80fd5b8201601f81018413612ebe575f80fd5b8051612ecc612c1982612b9f565b818152856020838501011115612ee0575f80fd5b6127a68260208301602086016129c6565b5f60208284031215612f01575f80fd5b5051919050565b634e487b7160e01b5f52601160045260245ffd5b8181038181111561077757610777612f08565b5f60018201612f4057612f40612f08565b5060010190565b602080825260029082015261535360f01b604082015260600190565b8082018082111561077757610777612f08565b5f60208284031215612f86575f80fd5b81516126d381612dd9565b634e487b7160e01b5f52603160045260245ffd5b5f8251612fb68184602087016129c6565b9190910192915050565b808202811582820484141761077757610777612f0856fe38361881985b0f585e6124dca158a3af102bffba0feb9c42b0b40825f41a3300331c20f00e5afe412d6bf194b51e8f2d981ce2eedc3a9ed8e5a5801a2017e900360894a13ba1a3210667c828492db98dca3e2076cc3735a920a3ca505d382bbc77dc539bf9c224afa178d31bf07d5109c2b5c5e56656e49b25e507fec3a69f0002dd7bc7dec4dceedda775e58dd541e08a116c6c53815c0bd028192f7b626800cd5ed15c6e187e77e9aee88184c21f4f2182ab5827cb3b7e07fbedcd63f03300f0c57e16840df040f15088dc2f81fe391c3923bec73e23a9662efc9c229c6a00724f6a44d576143e18c60911798b2b15551ca96bd8f7cb7524b8fa36253a26d8331c20f00e5afe412d6bf194b51e8f2d981ce2eedc3a9ed8e5a5801a2017e901339759585899103d2ace64958e37e18ccb0504652c81d4a1b8aa80fe2126ab95a164736f6c634300081a000a",
    "linkReferences": {}
  },
  "methodIdentifiers": {
    "DEFAULT_ADMIN_ROLE()": "a217fddf",
    "FAUCET_ROLE()": "45c7c793",
    "MAINTAINER_ROLE()": "f8742254",
    "NATIVE_TOKEN_POINTER()": "20b2cf9f",
    "PAUSER_ROLE()": "e63ab1e9",
    "SWAPPER_ROLE()": "df668eca",
    "UPGRADE_INTERFACE_VERSION()": "ad3cb1cc",
    "UpdateXYZ(address,bool,uint256,uint256)": "e9aea396",
    "__StablecoinHandler_init()": "924855fa",
    "__StablecoinHandler_init_unchained()": "3598e3dc",
    "convertFromEXYZ(address,address,(address,address,uint256,address,uint256))": "9ef84173",
    "convertToEXYZ(address,address,(address,address,uint256,address,uint256))": "8e13c58e",
    "drip(address,address)": "eb3839a7",
    "getDripAmount()": "817204a4",
    "getEnabledXYZs()": "69e2fda4",
    "getEnabledXYZsWithMetadata()": "1a0d6c2e",
    "getLastFulfilledDripTimestamp(address,address)": "c5b059e7",
    "getMaxLimit(address)": "4f9c2c26",
    "getMinLimit(address)": "956794b1",
    "getNativeDripAmount()": "7ad73baf",
    "getRoleAdmin(bytes32)": "248a9ca3",
    "grantRole(bytes32,address)": "2f2ff15d",
    "hasRole(bytes32,address)": "91d14854",
    "initialize((address,address,address[],uint256,uint256,address[],uint256,uint256))": "16ada6b1",
    "isEnabledXYZ(address)": "b4fc1335",
    "isXYZ(address)": "1a95e05d",
    "pause()": "8456cb59",
    "paused()": "5c975abb",
    "proxiableUUID()": "52d1902d",
    "renounceRole(bytes32,address)": "36568abe",
    "rescueCrypto(address,uint256)": "40c66f78",
    "revokeRole(bytes32,address)": "d547741f",
    "setDripAmount(uint256)": "543f8c58",
    "setLowBalanceThreshold(uint256)": "a0eba21a",
    "setNativeDripAmount(uint256)": "959042a2",
    "supportsInterface(bytes4)": "01ffc9a7",
    "swapAndSend(address,(address,address,uint256,address,uint256))": "c057bd6b",
    "unpause()": "3f4ba83a",
    "upgradeToAndCall(address,bytes)": "4f1ef286"
  },
  "id": 127
}