{
  "abi": [
    {
      "type": "function",
      "name": "BLACKLISTER_ROLE",
      "inputs": [],
      "outputs": [
        {
          "name": "",
          "type": "bytes32",
          "internalType": "bytes32"
        }
      ],
      "stateMutability": "view"
    },
    {
      "type": "function",
      "name": "BURNER_ROLE",
      "inputs": [],
      "outputs": [
        {
          "name": "",
          "type": "bytes32",
          "internalType": "bytes32"
        }
      ],
      "stateMutability": "view"
    },
    {
      "type": "function",
      "name": "DEFAULT_ADMIN_ROLE",
      "inputs": [],
      "outputs": [
        {
          "name": "",
          "type": "bytes32",
          "internalType": "bytes32"
        }
      ],
      "stateMutability": "view"
    },
    {
      "type": "function",
      "name": "DOMAIN_SEPARATOR",
      "inputs": [],
      "outputs": [
        {
          "name": "",
          "type": "bytes32",
          "internalType": "bytes32"
        }
      ],
      "stateMutability": "view"
    },
    {
      "type": "function",
      "name": "MINTER_ROLE",
      "inputs": [],
      "outputs": [
        {
          "name": "",
          "type": "bytes32",
          "internalType": "bytes32"
        }
      ],
      "stateMutability": "view"
    },
    {
      "type": "function",
      "name": "SUPPORT_ROLE",
      "inputs": [],
      "outputs": [
        {
          "name": "",
          "type": "bytes32",
          "internalType": "bytes32"
        }
      ],
      "stateMutability": "view"
    },
    {
      "type": "function",
      "name": "addBlackList",
      "inputs": [
        {
          "name": "user",
          "type": "address",
          "internalType": "address"
        }
      ],
      "outputs": [],
      "stateMutability": "nonpayable"
    },
    {
      "type": "function",
      "name": "allowance",
      "inputs": [
        {
          "name": "owner",
          "type": "address",
          "internalType": "address"
        },
        {
          "name": "spender",
          "type": "address",
          "internalType": "address"
        }
      ],
      "outputs": [
        {
          "name": "",
          "type": "uint256",
          "internalType": "uint256"
        }
      ],
      "stateMutability": "view"
    },
    {
      "type": "function",
      "name": "approve",
      "inputs": [
        {
          "name": "spender",
          "type": "address",
          "internalType": "address"
        },
        {
          "name": "value",
          "type": "uint256",
          "internalType": "uint256"
        }
      ],
      "outputs": [
        {
          "name": "",
          "type": "bool",
          "internalType": "bool"
        }
      ],
      "stateMutability": "nonpayable"
    },
    {
      "type": "function",
      "name": "balanceOf",
      "inputs": [
        {
          "name": "account",
          "type": "address",
          "internalType": "address"
        }
      ],
      "outputs": [
        {
          "name": "",
          "type": "uint256",
          "internalType": "uint256"
        }
      ],
      "stateMutability": "view"
    },
    {
      "type": "function",
      "name": "blacklisted",
      "inputs": [
        {
          "name": "user",
          "type": "address",
          "internalType": "address"
        }
      ],
      "outputs": [
        {
          "name": "",
          "type": "bool",
          "internalType": "bool"
        }
      ],
      "stateMutability": "view"
    },
    {
      "type": "function",
      "name": "burn",
      "inputs": [
        {
          "name": "value",
          "type": "uint256",
          "internalType": "uint256"
        }
      ],
      "outputs": [],
      "stateMutability": "nonpayable"
    },
    {
      "type": "function",
      "name": "burnFrom",
      "inputs": [
        {
          "name": "account",
          "type": "address",
          "internalType": "address"
        },
        {
          "name": "value",
          "type": "uint256",
          "internalType": "uint256"
        }
      ],
      "outputs": [],
      "stateMutability": "nonpayable"
    },
    {
      "type": "function",
      "name": "decimals",
      "inputs": [],
      "outputs": [
        {
          "name": "",
          "type": "uint8",
          "internalType": "uint8"
        }
      ],
      "stateMutability": "view"
    },
    {
      "type": "function",
      "name": "eip712Domain",
      "inputs": [],
      "outputs": [
        {
          "name": "fields",
          "type": "bytes1",
          "internalType": "bytes1"
        },
        {
          "name": "name",
          "type": "string",
          "internalType": "string"
        },
        {
          "name": "version",
          "type": "string",
          "internalType": "string"
        },
        {
          "name": "chainId",
          "type": "uint256",
          "internalType": "uint256"
        },
        {
          "name": "verifyingContract",
          "type": "address",
          "internalType": "address"
        },
        {
          "name": "salt",
          "type": "bytes32",
          "internalType": "bytes32"
        },
        {
          "name": "extensions",
          "type": "uint256[]",
          "internalType": "uint256[]"
        }
      ],
      "stateMutability": "view"
    },
    {
      "type": "function",
      "name": "erc20Rescue",
      "inputs": [
        {
          "name": "token",
          "type": "address",
          "internalType": "contract ERC20PermitUpgradeable"
        },
        {
          "name": "destination",
          "type": "address",
          "internalType": "address"
        },
        {
          "name": "amount",
          "type": "uint256",
          "internalType": "uint256"
        }
      ],
      "outputs": [],
      "stateMutability": "nonpayable"
    },
    {
      "type": "function",
      "name": "getRoleAdmin",
      "inputs": [
        {
          "name": "role",
          "type": "bytes32",
          "internalType": "bytes32"
        }
      ],
      "outputs": [
        {
          "name": "",
          "type": "bytes32",
          "internalType": "bytes32"
        }
      ],
      "stateMutability": "view"
    },
    {
      "type": "function",
      "name": "grantRole",
      "inputs": [
        {
          "name": "role",
          "type": "bytes32",
          "internalType": "bytes32"
        },
        {
          "name": "account",
          "type": "address",
          "internalType": "address"
        }
      ],
      "outputs": [],
      "stateMutability": "nonpayable"
    },
    {
      "type": "function",
      "name": "hasRole",
      "inputs": [
        {
          "name": "role",
          "type": "bytes32",
          "internalType": "bytes32"
        },
        {
          "name": "account",
          "type": "address",
          "internalType": "address"
        }
      ],
      "outputs": [
        {
          "name": "",
          "type": "bool",
          "internalType": "bool"
        }
      ],
      "stateMutability": "view"
    },
    {
      "type": "function",
      "name": "initialize",
      "inputs": [
        {
          "name": "name_",
          "type": "string",
          "internalType": "string"
        },
        {
          "name": "symbol_",
          "type": "string",
          "internalType": "string"
        },
        {
          "name": "decimals_",
          "type": "uint8",
          "internalType": "uint8"
        }
      ],
      "outputs": [],
      "stateMutability": "nonpayable"
    },
    {
      "type": "function",
      "name": "mint",
      "inputs": [
        {
          "name": "value",
          "type": "uint256",
          "internalType": "uint256"
        }
      ],
      "outputs": [],
      "stateMutability": "nonpayable"
    },
    {
      "type": "function",
      "name": "mintTo",
      "inputs": [
        {
          "name": "account",
          "type": "address",
          "internalType": "address"
        },
        {
          "name": "value",
          "type": "uint256",
          "internalType": "uint256"
        }
      ],
      "outputs": [],
      "stateMutability": "nonpayable"
    },
    {
      "type": "function",
      "name": "name",
      "inputs": [],
      "outputs": [
        {
          "name": "",
          "type": "string",
          "internalType": "string"
        }
      ],
      "stateMutability": "view"
    },
    {
      "type": "function",
      "name": "nonces",
      "inputs": [
        {
          "name": "owner",
          "type": "address",
          "internalType": "address"
        }
      ],
      "outputs": [
        {
          "name": "",
          "type": "uint256",
          "internalType": "uint256"
        }
      ],
      "stateMutability": "view"
    },
    {
      "type": "function",
      "name": "permit",
      "inputs": [
        {
          "name": "owner",
          "type": "address",
          "internalType": "address"
        },
        {
          "name": "spender",
          "type": "address",
          "internalType": "address"
        },
        {
          "name": "value",
          "type": "uint256",
          "internalType": "uint256"
        },
        {
          "name": "deadline",
          "type": "uint256",
          "internalType": "uint256"
        },
        {
          "name": "v",
          "type": "uint8",
          "internalType": "uint8"
        },
        {
          "name": "r",
          "type": "bytes32",
          "internalType": "bytes32"
        },
        {
          "name": "s",
          "type": "bytes32",
          "internalType": "bytes32"
        }
      ],
      "outputs": [],
      "stateMutability": "nonpayable"
    },
    {
      "type": "function",
      "name": "removeBlackList",
      "inputs": [
        {
          "name": "user",
          "type": "address",
          "internalType": "address"
        }
      ],
      "outputs": [],
      "stateMutability": "nonpayable"
    },
    {
      "type": "function",
      "name": "renounceRole",
      "inputs": [
        {
          "name": "role",
          "type": "bytes32",
          "internalType": "bytes32"
        },
        {
          "name": "callerConfirmation",
          "type": "address",
          "internalType": "address"
        }
      ],
      "outputs": [],
      "stateMutability": "nonpayable"
    },
    {
      "type": "function",
      "name": "revokeRole",
      "inputs": [
        {
          "name": "role",
          "type": "bytes32",
          "internalType": "bytes32"
        },
        {
          "name": "account",
          "type": "address",
          "internalType": "address"
        }
      ],
      "outputs": [],
      "stateMutability": "nonpayable"
    },
    {
      "type": "function",
      "name": "supportsInterface",
      "inputs": [
        {
          "name": "interfaceId",
          "type": "bytes4",
          "internalType": "bytes4"
        }
      ],
      "outputs": [
        {
          "name": "",
          "type": "bool",
          "internalType": "bool"
        }
      ],
      "stateMutability": "view"
    },
    {
      "type": "function",
      "name": "symbol",
      "inputs": [],
      "outputs": [
        {
          "name": "",
          "type": "string",
          "internalType": "string"
        }
      ],
      "stateMutability": "view"
    },
    {
      "type": "function",
      "name": "totalSupply",
      "inputs": [],
      "outputs": [
        {
          "name": "",
          "type": "uint256",
          "internalType": "uint256"
        }
      ],
      "stateMutability": "view"
    },
    {
      "type": "function",
      "name": "transfer",
      "inputs": [
        {
          "name": "to",
          "type": "address",
          "internalType": "address"
        },
        {
          "name": "value",
          "type": "uint256",
          "internalType": "uint256"
        }
      ],
      "outputs": [
        {
          "name": "",
          "type": "bool",
          "internalType": "bool"
        }
      ],
      "stateMutability": "nonpayable"
    },
    {
      "type": "function",
      "name": "transferFrom",
      "inputs": [
        {
          "name": "from",
          "type": "address",
          "internalType": "address"
        },
        {
          "name": "to",
          "type": "address",
          "internalType": "address"
        },
        {
          "name": "value",
          "type": "uint256",
          "internalType": "uint256"
        }
      ],
      "outputs": [
        {
          "name": "",
          "type": "bool",
          "internalType": "bool"
        }
      ],
      "stateMutability": "nonpayable"
    },
    {
      "type": "event",
      "name": "AddedBlacklist",
      "inputs": [
        {
          "name": "user",
          "type": "address",
          "indexed": false,
          "internalType": "address"
        }
      ],
      "anonymous": false
    },
    {
      "type": "event",
      "name": "Approval",
      "inputs": [
        {
          "name": "owner",
          "type": "address",
          "indexed": true,
          "internalType": "address"
        },
        {
          "name": "spender",
          "type": "address",
          "indexed": true,
          "internalType": "address"
        },
        {
          "name": "value",
          "type": "uint256",
          "indexed": false,
          "internalType": "uint256"
        }
      ],
      "anonymous": false
    },
    {
      "type": "event",
      "name": "EIP712DomainChanged",
      "inputs": [],
      "anonymous": false
    },
    {
      "type": "event",
      "name": "Initialized",
      "inputs": [
        {
          "name": "version",
          "type": "uint64",
          "indexed": false,
          "internalType": "uint64"
        }
      ],
      "anonymous": false
    },
    {
      "type": "event",
      "name": "RemovedBlacklist",
      "inputs": [
        {
          "name": "user",
          "type": "address",
          "indexed": false,
          "internalType": "address"
        }
      ],
      "anonymous": false
    },
    {
      "type": "event",
      "name": "RoleAdminChanged",
      "inputs": [
        {
          "name": "role",
          "type": "bytes32",
          "indexed": true,
          "internalType": "bytes32"
        },
        {
          "name": "previousAdminRole",
          "type": "bytes32",
          "indexed": true,
          "internalType": "bytes32"
        },
        {
          "name": "newAdminRole",
          "type": "bytes32",
          "indexed": true,
          "internalType": "bytes32"
        }
      ],
      "anonymous": false
    },
    {
      "type": "event",
      "name": "RoleGranted",
      "inputs": [
        {
          "name": "role",
          "type": "bytes32",
          "indexed": true,
          "internalType": "bytes32"
        },
        {
          "name": "account",
          "type": "address",
          "indexed": true,
          "internalType": "address"
        },
        {
          "name": "sender",
          "type": "address",
          "indexed": true,
          "internalType": "address"
        }
      ],
      "anonymous": false
    },
    {
      "type": "event",
      "name": "RoleRevoked",
      "inputs": [
        {
          "name": "role",
          "type": "bytes32",
          "indexed": true,
          "internalType": "bytes32"
        },
        {
          "name": "account",
          "type": "address",
          "indexed": true,
          "internalType": "address"
        },
        {
          "name": "sender",
          "type": "address",
          "indexed": true,
          "internalType": "address"
        }
      ],
      "anonymous": false
    },
    {
      "type": "event",
      "name": "Transfer",
      "inputs": [
        {
          "name": "from",
          "type": "address",
          "indexed": true,
          "internalType": "address"
        },
        {
          "name": "to",
          "type": "address",
          "indexed": true,
          "internalType": "address"
        },
        {
          "name": "value",
          "type": "uint256",
          "indexed": false,
          "internalType": "uint256"
        }
      ],
      "anonymous": false
    },
    {
      "type": "error",
      "name": "AccessControlBadConfirmation",
      "inputs": []
    },
    {
      "type": "error",
      "name": "AccessControlUnauthorizedAccount",
      "inputs": [
        {
          "name": "account",
          "type": "address",
          "internalType": "address"
        },
        {
          "name": "neededRole",
          "type": "bytes32",
          "internalType": "bytes32"
        }
      ]
    },
    {
      "type": "error",
      "name": "AddressEmptyCode",
      "inputs": [
        {
          "name": "target",
          "type": "address",
          "internalType": "address"
        }
      ]
    },
    {
      "type": "error",
      "name": "AddressInsufficientBalance",
      "inputs": [
        {
          "name": "account",
          "type": "address",
          "internalType": "address"
        }
      ]
    },
    {
      "type": "error",
      "name": "AlreadyBlacklisted",
      "inputs": [
        {
          "name": "user",
          "type": "address",
          "internalType": "address"
        }
      ]
    },
    {
      "type": "error",
      "name": "Blacklisted",
      "inputs": [
        {
          "name": "account",
          "type": "address",
          "internalType": "address"
        }
      ]
    },
    {
      "type": "error",
      "name": "ECDSAInvalidSignature",
      "inputs": []
    },
    {
      "type": "error",
      "name": "ECDSAInvalidSignatureLength",
      "inputs": [
        {
          "name": "length",
          "type": "uint256",
          "internalType": "uint256"
        }
      ]
    },
    {
      "type": "error",
      "name": "ECDSAInvalidSignatureS",
      "inputs": [
        {
          "name": "s",
          "type": "bytes32",
          "internalType": "bytes32"
        }
      ]
    },
    {
      "type": "error",
      "name": "ERC20InsufficientAllowance",
      "inputs": [
        {
          "name": "spender",
          "type": "address",
          "internalType": "address"
        },
        {
          "name": "allowance",
          "type": "uint256",
          "internalType": "uint256"
        },
        {
          "name": "needed",
          "type": "uint256",
          "internalType": "uint256"
        }
      ]
    },
    {
      "type": "error",
      "name": "ERC20InsufficientBalance",
      "inputs": [
        {
          "name": "sender",
          "type": "address",
          "internalType": "address"
        },
        {
          "name": "balance",
          "type": "uint256",
          "internalType": "uint256"
        },
        {
          "name": "needed",
          "type": "uint256",
          "internalType": "uint256"
        }
      ]
    },
    {
      "type": "error",
      "name": "ERC20InvalidApprover",
      "inputs": [
        {
          "name": "approver",
          "type": "address",
          "internalType": "address"
        }
      ]
    },
    {
      "type": "error",
      "name": "ERC20InvalidReceiver",
      "inputs": [
        {
          "name": "receiver",
          "type": "address",
          "internalType": "address"
        }
      ]
    },
    {
      "type": "error",
      "name": "ERC20InvalidSender",
      "inputs": [
        {
          "name": "sender",
          "type": "address",
          "internalType": "address"
        }
      ]
    },
    {
      "type": "error",
      "name": "ERC20InvalidSpender",
      "inputs": [
        {
          "name": "spender",
          "type": "address",
          "internalType": "address"
        }
      ]
    },
    {
      "type": "error",
      "name": "ERC2612ExpiredSignature",
      "inputs": [
        {
          "name": "deadline",
          "type": "uint256",
          "internalType": "uint256"
        }
      ]
    },
    {
      "type": "error",
      "name": "ERC2612InvalidSigner",
      "inputs": [
        {
          "name": "signer",
          "type": "address",
          "internalType": "address"
        },
        {
          "name": "owner",
          "type": "address",
          "internalType": "address"
        }
      ]
    },
    {
      "type": "error",
      "name": "FailedInnerCall",
      "inputs": []
    },
    {
      "type": "error",
      "name": "InvalidAccountNonce",
      "inputs": [
        {
          "name": "account",
          "type": "address",
          "internalType": "address"
        },
        {
          "name": "currentNonce",
          "type": "uint256",
          "internalType": "uint256"
        }
      ]
    },
    {
      "type": "error",
      "name": "InvalidInitialization",
      "inputs": []
    },
    {
      "type": "error",
      "name": "NotBlacklisted",
      "inputs": [
        {
          "name": "user",
          "type": "address",
          "internalType": "address"
        }
      ]
    },
    {
      "type": "error",
      "name": "NotInitializing",
      "inputs": []
    },
    {
      "type": "error",
      "name": "SafeERC20FailedOperation",
      "inputs": [
        {
          "name": "token",
          "type": "address",
          "internalType": "address"
        }
      ]
    }
  ],
  "bytecode": {
    "object": "0x6080604052348015600e575f80fd5b50611f568061001c5f395ff3fe608060405234801561000f575f80fd5b50600436106101f2575f3560e01c806379cc679011610114578063a9059cbb116100a9578063db50cce911610079578063db50cce914610484578063dbac26e914610497578063dd62ed3e146104aa578063e4997dc5146104bd578063f515e6f2146104d0575f80fd5b8063a9059cbb14610424578063d505accf14610437578063d53913931461044a578063d547741f14610471575f80fd5b806394b059ab116100e457806394b059ab146103db57806395d89b4114610402578063a0712d681461040a578063a217fddf1461041d575f80fd5b806379cc6790146103875780637ecebe001461039a57806384b0196e146103ad57806391d14854146103c8575f80fd5b8063282c51f31161018a57806336568abe1161015a57806336568abe1461033b57806342966c681461034e578063449a52f81461036157806370a0823114610374575f80fd5b8063282c51f3146102c55780632f2ff15d146102ec578063313ce567146102ff5780633644e51514610333575f80fd5b80631624f6c6116101c55780631624f6c61461025b57806318160ddd1461026e57806323b872dd1461029f578063248a9ca3146102b2575f80fd5b806301ffc9a7146101f657806306fdde031461021e578063095ea7b3146102335780630ecb93c014610246575b5f80fd5b61020961020436600461198f565b6104f7565b60405190151581526020015b60405180910390f35b61022661052d565b6040516102159190611a03565b610209610241366004611a29565b6105d2565b610259610254366004611a53565b6105e9565b005b610259610269366004611b22565b61069f565b7f52c63247e1f47db19d5ce0460030c497f067ca4cebf71ba98eeadabe20bace02545b604051908152602001610215565b6102096102ad366004611b96565b6107ea565b6102916102c0366004611bd4565b61080f565b6102917f3c11d16cbaffd01df69ce1c404f6340ee057498f5f00246190ea54220576a84881565b6102596102fa366004611beb565b61082f565b7f86386409a65c1a7f963bc51852fa7ecbdb9cad2cec464de22ee4591e1622b46b5460405160ff9091168152602001610215565b610291610851565b610259610349366004611beb565b61085f565b61025961035c366004611bd4565b610897565b61025961036f366004611a29565b6108cf565b610291610382366004611a53565b610903565b610259610395366004611a29565b610933565b6102916103a8366004611a53565b610972565b6103b561097c565b6040516102159796959493929190611c19565b6102096103d6366004611beb565b610a25565b6102917fe1bb029b7f4f8898e3ea44ceab083b5d93b14e8dd01ea4b170b110de8472fe6481565b610226610a5b565b610259610418366004611bd4565b610a99565b6102915f81565b610209610432366004611a29565b610acd565b610259610445366004611caf565b610ada565b6102917f9f2df0fed2c77648de5860a4cc508cd0818c85b8b8a1ab4ceeef8d981c8956a681565b61025961047f366004611beb565b610c2f565b610259610492366004611b96565b610c4b565b6102096104a5366004611a53565b610c89565b6102916104b8366004611d19565b610cc5565b6102596104cb366004611a53565b610d0e565b6102917f98db8a220cd0f09badce9f22d0ba7e93edb3d404448cc3560d391ab096ad16e981565b5f6001600160e01b03198216637965db0b60e01b148061052757506301ffc9a760e01b6001600160e01b03198316145b92915050565b60605f5f80516020611eea8339815191525b905080600301805461055090611d45565b80601f016020809104026020016040519081016040528092919081815260200182805461057c90611d45565b80156105c75780601f1061059e576101008083540402835291602001916105c7565b820191905f5260205f20905b8154815290600101906020018083116105aa57829003601f168201915b505050505091505090565b5f336105df818585610dac565b5060019392505050565b7f98db8a220cd0f09badce9f22d0ba7e93edb3d404448cc3560d391ab096ad16e961061381610db9565b61061c82610c89565b1561064a5760405163163581b360e31b81526001600160a01b03831660048201526024015b60405180910390fd5b61065382610dc6565b61065e826001610dd9565b6040516001600160a01b03831681527f86c048150dfc5def3c35f7bc81582956dd964e56d8c028c9f4f5e978bb203c31906020015b60405180910390a15050565b7ff0c57e16840df040f15088dc2f81fe391c3923bec73e23a9662efc9c229c6a008054600160401b810460ff16159067ffffffffffffffff165f811580156106e45750825b90505f8267ffffffffffffffff1660011480156107005750303b155b90508115801561070e575080155b1561072c5760405163f92ee8a960e01b815260040160405180910390fd5b845467ffffffffffffffff19166001178555831561075657845460ff60401b1916600160401b1785555b6107608888610e22565b61076988610e34565b6107735f33610e5f565b5060ff86167f86386409a65c1a7f963bc51852fa7ecbdb9cad2cec464de22ee4591e1622b46b5583156107e057845460ff60401b19168555604051600181527fc7f505b2f371ae2175ee4913f4499e1f2633a7b5936321eed1cdaeb6115181d29060200160405180910390a15b5050505050505050565b5f336107f7858285610f00565b610802858585610f5d565b60019150505b9392505050565b5f9081525f80516020611f2a833981519152602052604090206001015490565b6108388261080f565b61084181610db9565b61084b8383610e5f565b50505050565b5f61085a610fba565b905090565b6001600160a01b03811633146108885760405163334bd91960e11b815260040160405180910390fd5b6108928282610fc3565b505050565b7f3c11d16cbaffd01df69ce1c404f6340ee057498f5f00246190ea54220576a8486108c181610db9565b6108cb338361103c565b5050565b7f9f2df0fed2c77648de5860a4cc508cd0818c85b8b8a1ab4ceeef8d981c8956a66108f981610db9565b6108928383611070565b5f805f80516020611eea8339815191525b6001600160a01b039093165f9081526020939093525050604090205490565b7f3c11d16cbaffd01df69ce1c404f6340ee057498f5f00246190ea54220576a84861095d81610db9565b610968833384610f00565b610892838361103c565b5f610527826110a4565b5f60608082808083815f80516020611f0a83398151915280549091501580156109a757506001810154155b6109eb5760405162461bcd60e51b81526020600482015260156024820152741152540dcc4c8e88155b9a5b9a5d1a585b1a5e9959605a1b6044820152606401610641565b6109f36110cc565b6109fb61110a565b604080515f80825260208201909252600f60f81b9c939b5091995046985030975095509350915050565b5f9182525f80516020611f2a833981519152602090815260408084206001600160a01b0393909316845291905290205460ff1690565b7f52c63247e1f47db19d5ce0460030c497f067ca4cebf71ba98eeadabe20bace0480546060915f80516020611eea8339815191529161055090611d45565b7f9f2df0fed2c77648de5860a4cc508cd0818c85b8b8a1ab4ceeef8d981c8956a6610ac381610db9565b6108cb3383611070565b5f336105df818585610f5d565b83421115610afe5760405163313c898160e11b815260048101859052602401610641565b5f7f6e71edae12b1b97f4d1f60370fef10105fa2faae0126114a169c64845d6126c9888888610b688c6001600160a01b03165f9081527f5ab42ced628888259c08ac98db1eb0cf702fc1501344311d8b100cd1bfe4bb006020526040902080546001810190915590565b6040805160208101969096526001600160a01b0394851690860152929091166060840152608083015260a082015260c0810186905260e0016040516020818303038152906040528051906020012090505f610bc282611120565b90505f610bd18287878761114c565b9050896001600160a01b0316816001600160a01b031614610c18576040516325c0072360e11b81526001600160a01b0380831660048301528b166024820152604401610641565b610c238a8a8a610dac565b50505050505050505050565b610c388261080f565b610c4181610db9565b61084b8383610fc3565b7fe1bb029b7f4f8898e3ea44ceab083b5d93b14e8dd01ea4b170b110de8472fe64610c7581610db9565b61084b6001600160a01b0385168484611178565b6001600160a01b03165f9081527f74958077aaf7e7942dc6838d7ab914c8ab92cc0aa85fe20a608ddf5aa4c04000602052604090205460ff1690565b6001600160a01b039182165f9081527f52c63247e1f47db19d5ce0460030c497f067ca4cebf71ba98eeadabe20bace016020908152604080832093909416825291909152205490565b7f98db8a220cd0f09badce9f22d0ba7e93edb3d404448cc3560d391ab096ad16e9610d3881610db9565b610d4182610c89565b610d6957604051637be8837960e01b81526001600160a01b0383166004820152602401610641565b610d73825f610dd9565b6040516001600160a01b03831681527f90792cb7177eb70be35a14e39400d4143370da97f528237fd2b069e408ca68fb90602001610693565b61089283838360016111ca565b610dc381336112ae565b50565b610dc38133610dd484610903565b610f5d565b6001600160a01b03919091165f9081527f74958077aaf7e7942dc6838d7ab914c8ab92cc0aa85fe20a608ddf5aa4c0400060205260409020805460ff1916911515919091179055565b610e2a6112e7565b6108cb8282611332565b610e3c6112e7565b610dc381604051806040016040528060018152602001603160f81b815250611382565b5f5f80516020611f2a833981519152610e788484610a25565b610ef7575f848152602082815260408083206001600160a01b03871684529091529020805460ff19166001179055610ead3390565b6001600160a01b0316836001600160a01b0316857f2f8788117e7eff1d82e926ec794901d17c78024a50270940304540a733656f0d60405160405180910390a46001915050610527565b5f915050610527565b5f610f0b8484610cc5565b90505f19811461084b5781811015610f4f57604051637dc7a0d960e11b81526001600160a01b03841660048201526024810182905260448101839052606401610641565b61084b84848484035f6111ca565b6001600160a01b038316610f8657604051634b637e8f60e11b81525f6004820152602401610641565b6001600160a01b038216610faf5760405163ec442f0560e01b81525f6004820152602401610641565b6108928383836113e1565b5f61085a611456565b5f5f80516020611f2a833981519152610fdc8484610a25565b15610ef7575f848152602082815260408083206001600160a01b0387168085529252808320805460ff1916905551339287917ff6391f5c32d9c69d2a47ea670b442974b53935d1edc7fd64eb21e047a839171b9190a46001915050610527565b6001600160a01b03821661106557604051634b637e8f60e11b81525f6004820152602401610641565b6108cb825f836113e1565b6001600160a01b0382166110995760405163ec442f0560e01b81525f6004820152602401610641565b6108cb5f83836113e1565b5f807f5ab42ced628888259c08ac98db1eb0cf702fc1501344311d8b100cd1bfe4bb00610914565b7fa16a46d94261c7517cc8ff89f61c0ce93598e3c849801011dee649a6a557d10280546060915f80516020611f0a8339815191529161055090611d45565b60605f5f80516020611f0a83398151915261053f565b5f61052761112c610fba565b8360405161190160f01b8152600281019290925260228201526042902090565b5f805f8061115c888888886114c9565b92509250925061116c8282611591565b50909695505050505050565b604080516001600160a01b038416602482015260448082018490528251808303909101815260649091019091526020810180516001600160e01b031663a9059cbb60e01b179052610892908490611649565b5f80516020611eea8339815191526001600160a01b0385166112015760405163e602df0560e01b81525f6004820152602401610641565b6001600160a01b03841661122a57604051634a1406b160e11b81525f6004820152602401610641565b6001600160a01b038086165f908152600183016020908152604080832093881683529290522083905581156112a757836001600160a01b0316856001600160a01b03167f8c5be1e5ebec7d5bd14f71427d1e84f3dd0314c0f7b2291e5b200ac8c7c3b9258560405161129e91815260200190565b60405180910390a35b5050505050565b6112b88282610a25565b6108cb5760405163e2517d3f60e01b81526001600160a01b038216600482015260248101839052604401610641565b7ff0c57e16840df040f15088dc2f81fe391c3923bec73e23a9662efc9c229c6a0054600160401b900460ff1661133057604051631afcd79f60e31b815260040160405180910390fd5b565b61133a6112e7565b5f80516020611eea8339815191527f52c63247e1f47db19d5ce0460030c497f067ca4cebf71ba98eeadabe20bace036113738482611dc1565b506004810161084b8382611dc1565b61138a6112e7565b5f80516020611f0a8339815191527fa16a46d94261c7517cc8ff89f61c0ce93598e3c849801011dee649a6a557d1026113c38482611dc1565b50600381016113d28382611dc1565b505f8082556001909101555050565b6113ea83610c89565b15611416576040516001620b633d60e31b031981526001600160a01b0384166004820152602401610641565b61141f82610c89565b1561144b576040516001620b633d60e31b031981526001600160a01b0383166004820152602401610641565b6108928383836116aa565b5f7f8b73c3c69bb8fe3d512ecc4cf759cc79239f7b179b0ffacaa9a75d522b39400f6114806117e3565b61148861184b565b60408051602081019490945283019190915260608201524660808201523060a082015260c00160405160208183030381529060405280519060200120905090565b5f80807f7fffffffffffffffffffffffffffffff5d576e7357a4501ddfe92f46681b20a084111561150257505f91506003905082611587565b604080515f808252602082018084528a905260ff891692820192909252606081018790526080810186905260019060a0016020604051602081039080840390855afa158015611553573d5f803e3d5ffd5b5050604051601f1901519150506001600160a01b03811661157e57505f925060019150829050611587565b92505f91508190505b9450945094915050565b5f8260038111156115a4576115a4611e7c565b036115ad575050565b60018260038111156115c1576115c1611e7c565b036115df5760405163f645eedf60e01b815260040160405180910390fd5b60028260038111156115f3576115f3611e7c565b036116145760405163fce698f760e01b815260048101829052602401610641565b600382600381111561162857611628611e7c565b036108cb576040516335e2f38360e21b815260048101829052602401610641565b5f61165d6001600160a01b0384168361188d565b905080515f1415801561168157508080602001905181019061167f9190611e90565b155b1561089257604051635274afe760e01b81526001600160a01b0384166004820152602401610641565b5f80516020611eea8339815191526001600160a01b0384166116e45781816002015f8282546116d99190611eaf565b909155506117549050565b6001600160a01b0384165f90815260208290526040902054828110156117365760405163391434e360e21b81526001600160a01b03861660048201526024810182905260448101849052606401610641565b6001600160a01b0385165f9081526020839052604090209083900390555b6001600160a01b038316611772576002810180548390039055611790565b6001600160a01b0383165f9081526020829052604090208054830190555b826001600160a01b0316846001600160a01b03167fddf252ad1be2c89b69c2b068fc378daa952ba7f163c4a11628f55a4df523b3ef846040516117d591815260200190565b60405180910390a350505050565b5f5f80516020611f0a833981519152816117fb6110cc565b80519091501561181357805160209091012092915050565b81548015611822579392505050565b7fc5d2460186f7233c927e7db2dcc703c0e500b653ca82273b7bfad8045d85a470935050505090565b5f5f80516020611f0a8339815191528161186361110a565b80519091501561187b57805160209091012092915050565b60018201548015611822579392505050565b606061080883835f845f80856001600160a01b031684866040516118b19190611ece565b5f6040518083038185875af1925050503d805f81146118eb576040519150601f19603f3d011682016040523d82523d5f602084013e6118f0565b606091505b509150915061190086838361190a565b9695505050505050565b60608261191f5761191a82611966565b610808565b815115801561193657506001600160a01b0384163b155b1561195f57604051639996b31560e01b81526001600160a01b0385166004820152602401610641565b5080610808565b8051156119765780518082602001fd5b604051630a12f52160e11b815260040160405180910390fd5b5f6020828403121561199f575f80fd5b81356001600160e01b031981168114610808575f80fd5b5f5b838110156119d05781810151838201526020016119b8565b50505f910152565b5f81518084526119ef8160208601602086016119b6565b601f01601f19169290920160200192915050565b602081525f61080860208301846119d8565b6001600160a01b0381168114610dc3575f80fd5b5f8060408385031215611a3a575f80fd5b8235611a4581611a15565b946020939093013593505050565b5f60208284031215611a63575f80fd5b813561080881611a15565b634e487b7160e01b5f52604160045260245ffd5b5f82601f830112611a91575f80fd5b813567ffffffffffffffff811115611aab57611aab611a6e565b604051601f8201601f19908116603f0116810167ffffffffffffffff81118282101715611ada57611ada611a6e565b604052818152838201602001851015611af1575f80fd5b816020850160208301375f918101602001919091529392505050565b803560ff81168114611b1d575f80fd5b919050565b5f805f60608486031215611b34575f80fd5b833567ffffffffffffffff811115611b4a575f80fd5b611b5686828701611a82565b935050602084013567ffffffffffffffff811115611b72575f80fd5b611b7e86828701611a82565b925050611b8d60408501611b0d565b90509250925092565b5f805f60608486031215611ba8575f80fd5b8335611bb381611a15565b92506020840135611bc381611a15565b929592945050506040919091013590565b5f60208284031215611be4575f80fd5b5035919050565b5f8060408385031215611bfc575f80fd5b823591506020830135611c0e81611a15565b809150509250929050565b60ff60f81b8816815260e060208201525f611c3760e08301896119d8565b8281036040840152611c4981896119d8565b606084018890526001600160a01b038716608085015260a0840186905283810360c0850152845180825260208087019350909101905f5b81811015611c9e578351835260209384019390920191600101611c80565b50909b9a5050505050505050505050565b5f805f805f805f60e0888a031215611cc5575f80fd5b8735611cd081611a15565b96506020880135611ce081611a15565b95506040880135945060608801359350611cfc60808901611b0d565b9699959850939692959460a0840135945060c09093013592915050565b5f8060408385031215611d2a575f80fd5b8235611d3581611a15565b91506020830135611c0e81611a15565b600181811c90821680611d5957607f821691505b602082108103611d7757634e487b7160e01b5f52602260045260245ffd5b50919050565b601f82111561089257805f5260205f20601f840160051c81016020851015611da25750805b601f840160051c820191505b818110156112a7575f8155600101611dae565b815167ffffffffffffffff811115611ddb57611ddb611a6e565b611def81611de98454611d45565b84611d7d565b6020601f821160018114611e21575f8315611e0a5750848201515b5f19600385901b1c1916600184901b1784556112a7565b5f84815260208120601f198516915b82811015611e505787850151825560209485019460019092019101611e30565b5084821015611e6d57868401515f19600387901b60f8161c191681555b50505050600190811b01905550565b634e487b7160e01b5f52602160045260245ffd5b5f60208284031215611ea0575f80fd5b81518015158114610808575f80fd5b8082018082111561052757634e487b7160e01b5f52601160045260245ffd5b5f8251611edf8184602087016119b6565b919091019291505056fe52c63247e1f47db19d5ce0460030c497f067ca4cebf71ba98eeadabe20bace00a16a46d94261c7517cc8ff89f61c0ce93598e3c849801011dee649a6a557d10002dd7bc7dec4dceedda775e58dd541e08a116c6c53815c0bd028192f7b626800a164736f6c634300081a000a",
    "linkReferences": {}
  },
  "methodIdentifiers": {
    "BLACKLISTER_ROLE()": "f515e6f2",
    "BURNER_ROLE()": "282c51f3",
    "DEFAULT_ADMIN_ROLE()": "a217fddf",
    "DOMAIN_SEPARATOR()": "3644e515",
    "MINTER_ROLE()": "d5391393",
    "SUPPORT_ROLE()": "94b059ab",
    "addBlackList(address)": "0ecb93c0",
    "allowance(address,address)": "dd62ed3e",
    "approve(address,uint256)": "095ea7b3",
    "balanceOf(address)": "70a08231",
    "blacklisted(address)": "dbac26e9",
    "burn(uint256)": "42966c68",
    "burnFrom(address,uint256)": "79cc6790",
    "decimals()": "313ce567",
    "eip712Domain()": "84b0196e",
    "erc20Rescue(address,address,uint256)": "db50cce9",
    "getRoleAdmin(bytes32)": "248a9ca3",
    "grantRole(bytes32,address)": "2f2ff15d",
    "hasRole(bytes32,address)": "91d14854",
    "initialize(string,string,uint8)": "1624f6c6",
    "mint(uint256)": "a0712d68",
    "mintTo(address,uint256)": "449a52f8",
    "name()": "06fdde03",
    "nonces(address)": "7ecebe00",
    "permit(address,address,uint256,uint256,uint8,bytes32,bytes32)": "d505accf",
    "removeBlackList(address)": "e4997dc5",
    "renounceRole(bytes32,address)": "36568abe",
    "revokeRole(bytes32,address)": "d547741f",
    "supportsInterface(bytes4)": "01ffc9a7",
    "symbol()": "95d89b41",
    "totalSupply()": "18160ddd",
    "transfer(address,uint256)": "a9059cbb",
    "transferFrom(address,address,uint256)": "23b872dd"
  },
  "id": 112
}