{
  "abi": [
    {
      "type": "receive",
      "stateMutability": "payable"
    },
    {
      "type": "function",
      "name": "DOMAIN_SEPARATOR",
      "inputs": [],
      "outputs": [
        {
          "name": "result",
          "type": "bytes32",
          "internalType": "bytes32"
        }
      ],
      "stateMutability": "view"
    },
    {
      "type": "function",
      "name": "allowance",
      "inputs": [
        {
          "name": "owner",
          "type": "address",
          "internalType": "address"
        },
        {
          "name": "spender",
          "type": "address",
          "internalType": "address"
        }
      ],
      "outputs": [
        {
          "name": "result",
          "type": "uint256",
          "internalType": "uint256"
        }
      ],
      "stateMutability": "view"
    },
    {
      "type": "function",
      "name": "approve",
      "inputs": [
        {
          "name": "spender",
          "type": "address",
          "internalType": "address"
        },
        {
          "name": "amount",
          "type": "uint256",
          "internalType": "uint256"
        }
      ],
      "outputs": [
        {
          "name": "",
          "type": "bool",
          "internalType": "bool"
        }
      ],
      "stateMutability": "nonpayable"
    },
    {
      "type": "function",
      "name": "balanceOf",
      "inputs": [
        {
          "name": "owner",
          "type": "address",
          "internalType": "address"
        }
      ],
      "outputs": [
        {
          "name": "result",
          "type": "uint256",
          "internalType": "uint256"
        }
      ],
      "stateMutability": "view"
    },
    {
      "type": "function",
      "name": "decimals",
      "inputs": [],
      "outputs": [
        {
          "name": "",
          "type": "uint8",
          "internalType": "uint8"
        }
      ],
      "stateMutability": "view"
    },
    {
      "type": "function",
      "name": "deposit",
      "inputs": [],
      "outputs": [],
      "stateMutability": "payable"
    },
    {
      "type": "function",
      "name": "name",
      "inputs": [],
      "outputs": [
        {
          "name": "",
          "type": "string",
          "internalType": "string"
        }
      ],
      "stateMutability": "view"
    },
    {
      "type": "function",
      "name": "nonces",
      "inputs": [
        {
          "name": "owner",
          "type": "address",
          "internalType": "address"
        }
      ],
      "outputs": [
        {
          "name": "result",
          "type": "uint256",
          "internalType": "uint256"
        }
      ],
      "stateMutability": "view"
    },
    {
      "type": "function",
      "name": "permit",
      "inputs": [
        {
          "name": "owner",
          "type": "address",
          "internalType": "address"
        },
        {
          "name": "spender",
          "type": "address",
          "internalType": "address"
        },
        {
          "name": "value",
          "type": "uint256",
          "internalType": "uint256"
        },
        {
          "name": "deadline",
          "type": "uint256",
          "internalType": "uint256"
        },
        {
          "name": "v",
          "type": "uint8",
          "internalType": "uint8"
        },
        {
          "name": "r",
          "type": "bytes32",
          "internalType": "bytes32"
        },
        {
          "name": "s",
          "type": "bytes32",
          "internalType": "bytes32"
        }
      ],
      "outputs": [],
      "stateMutability": "nonpayable"
    },
    {
      "type": "function",
      "name": "symbol",
      "inputs": [],
      "outputs": [
        {
          "name": "",
          "type": "string",
          "internalType": "string"
        }
      ],
      "stateMutability": "view"
    },
    {
      "type": "function",
      "name": "totalSupply",
      "inputs": [],
      "outputs": [
        {
          "name": "result",
          "type": "uint256",
          "internalType": "uint256"
        }
      ],
      "stateMutability": "view"
    },
    {
      "type": "function",
      "name": "transfer",
      "inputs": [
        {
          "name": "to",
          "type": "address",
          "internalType": "address"
        },
        {
          "name": "amount",
          "type": "uint256",
          "internalType": "uint256"
        }
      ],
      "outputs": [
        {
          "name": "",
          "type": "bool",
          "internalType": "bool"
        }
      ],
      "stateMutability": "nonpayable"
    },
    {
      "type": "function",
      "name": "transferFrom",
      "inputs": [
        {
          "name": "from",
          "type": "address",
          "internalType": "address"
        },
        {
          "name": "to",
          "type": "address",
          "internalType": "address"
        },
        {
          "name": "amount",
          "type": "uint256",
          "internalType": "uint256"
        }
      ],
      "outputs": [
        {
          "name": "",
          "type": "bool",
          "internalType": "bool"
        }
      ],
      "stateMutability": "nonpayable"
    },
    {
      "type": "function",
      "name": "withdraw",
      "inputs": [
        {
          "name": "amount",
          "type": "uint256",
          "internalType": "uint256"
        }
      ],
      "outputs": [],
      "stateMutability": "nonpayable"
    },
    {
      "type": "event",
      "name": "Approval",
      "inputs": [
        {
          "name": "owner",
          "type": "address",
          "indexed": true,
          "internalType": "address"
        },
        {
          "name": "spender",
          "type": "address",
          "indexed": true,
          "internalType": "address"
        },
        {
          "name": "amount",
          "type": "uint256",
          "indexed": false,
          "internalType": "uint256"
        }
      ],
      "anonymous": false
    },
    {
      "type": "event",
      "name": "Transfer",
      "inputs": [
        {
          "name": "from",
          "type": "address",
          "indexed": true,
          "internalType": "address"
        },
        {
          "name": "to",
          "type": "address",
          "indexed": true,
          "internalType": "address"
        },
        {
          "name": "amount",
          "type": "uint256",
          "indexed": false,
          "internalType": "uint256"
        }
      ],
      "anonymous": false
    },
    {
      "type": "error",
      "name": "AllowanceOverflow",
      "inputs": []
    },
    {
      "type": "error",
      "name": "AllowanceUnderflow",
      "inputs": []
    },
    {
      "type": "error",
      "name": "ETHTransferFailed",
      "inputs": []
    },
    {
      "type": "error",
      "name": "InsufficientAllowance",
      "inputs": []
    },
    {
      "type": "error",
      "name": "InsufficientBalance",
      "inputs": []
    },
    {
      "type": "error",
      "name": "InvalidPermit",
      "inputs": []
    },
    {
      "type": "error",
      "name": "PermitExpired",
      "inputs": []
    },
    {
      "type": "error",
      "name": "TotalSupplyOverflow",
      "inputs": []
    }
  ],
  "bytecode": {
    "object": "0x6080604052348015600e575f80fd5b5061092a8061001c5f395ff3fe6080604052600436106100dc575f3560e01c806370a082311161007c578063a9059cbb11610057578063a9059cbb14610269578063d0e30db014610288578063d505accf14610290578063dd62ed3e146102af575f80fd5b806370a08231146101db5780637ecebe001461020c57806395d89b411461023d575f80fd5b806323b872dd116100b757806323b872dd1461016e5780632e1a7d4d1461018d578063313ce567146101ac5780633644e515146101c7575f80fd5b806306fdde03146100ef578063095ea7b31461011957806318160ddd14610148575f80fd5b366100eb576100e96102e3565b005b5f80fd5b3480156100fa575f80fd5b506101036102ef565b6040516101109190610760565b60405180910390f35b348015610124575f80fd5b506101386101333660046107c6565b610318565b6040519015158152602001610110565b348015610153575f80fd5b506805345cdf77eb68f44c545b604051908152602001610110565b348015610179575f80fd5b506101386101883660046107ee565b610367565b348015610198575f80fd5b506100e96101a7366004610828565b61040e565b3480156101b7575f80fd5b5060405160128152602001610110565b3480156101d2575f80fd5b50610160610434565b3480156101e6575f80fd5b506101606101f536600461083f565b6387a211a2600c9081525f91909152602090205490565b348015610217575f80fd5b5061016061022636600461083f565b6338377508600c9081525f91909152602090205490565b348015610248575f80fd5b506040805180820190915260048152631dd5115360e21b6020820152610103565b348015610274575f80fd5b506101386102833660046107c6565b6104b0565b6100e96102e3565b34801561029b575f80fd5b506100e96102aa36600461085f565b610514565b3480156102ba575f80fd5b506101606102c93660046108cc565b602052637f5e9f20600c9081525f91909152603490205490565b6102ed3334610696565b565b60408051808201909152600f81526e2bb930b83832b2102a32b631b7b4b760891b602082015290565b5f82602052637f5e9f20600c52335f52816034600c2055815f52602c5160601c337f8c5be1e5ebec7d5bd14f71427d1e84f3dd0314c0f7b2291e5b200ac8c7c3b92560205fa350600192915050565b5f8360601b33602052637f5e9f208117600c526034600c20805460018101156103a5578085111561039f576313be252b5f526004601cfd5b84810382555b50506387a211a28117600c526020600c208054808511156103cd5763f4d678b85f526004601cfd5b84810382555050835f526020600c208381540181555082602052600c5160601c8160601c5f805160206108fe833981519152602080a3505060019392505050565b61041833826106ff565b5f385f3884335af16104315763b12d13eb5f526004601cfd5b50565b5f8061043e6102ef565b8051906020012090506040517f8b73c3c69bb8fe3d512ecc4cf759cc79239f7b179b0ffacaa9a75d522b39400f81528160208201527fc89efdaa54c0f20c7adf612882df0950f5a951637e0307cdcb4c672f298b8bc6604082015246606082015230608082015260a081209250505090565b5f6387a211a2600c52335f526020600c208054808411156104d85763f4d678b85f526004601cfd5b83810382555050825f526020600c208281540181555081602052600c5160601c335f805160206108fe833981519152602080a350600192915050565b5f61051d6102ef565b8051906020012090508442111561053b57631a15a3cc5f526004601cfd5b6040518860601b60601c98508760601b60601c975065383775081901600e52885f526020600c2080547f8b73c3c69bb8fe3d512ecc4cf759cc79239f7b179b0ffacaa9a75d522b39400f83528360208401527fc89efdaa54c0f20c7adf612882df0950f5a951637e0307cdcb4c672f298b8bc6604084015246606084015230608084015260a08320602e527f6e71edae12b1b97f4d1f60370fef10105fa2faae0126114a169c64845d6126c983528a60208401528960408401528860608401528060808401528760a084015260c08320604e526042602c205f528660ff16602052856040528460605260208060805f60015afa8b3d51146106435763ddafbaef5f526004601cfd5b0190556303faf4f960a51b88176040526034602c2087905587897f8c5be1e5ebec7d5bd14f71427d1e84f3dd0314c0f7b2291e5b200ac8c7c3b925602060608501a360405250505f606052505050505050565b6805345cdf77eb68f44c54818101818110156106b95763e5cfe9575f526004601cfd5b806805345cdf77eb68f44c5550506387a211a2600c52815f526020600c208181540181555080602052600c5160601c5f5f805160206108fe833981519152602080a35050565b6387a211a2600c52815f526020600c208054808311156107265763f4d678b85f526004601cfd5b82900390556805345cdf77eb68f44c805482900390555f8181526001600160a01b0383165f805160206108fe833981519152602083a35050565b602081525f82518060208401525f5b8181101561078c576020818601810151604086840101520161076f565b505f604082850101526040601f19601f83011684010191505092915050565b80356001600160a01b03811681146107c1575f80fd5b919050565b5f80604083850312156107d7575f80fd5b6107e0836107ab565b946020939093013593505050565b5f805f60608486031215610800575f80fd5b610809846107ab565b9250610817602085016107ab565b929592945050506040919091013590565b5f60208284031215610838575f80fd5b5035919050565b5f6020828403121561084f575f80fd5b610858826107ab565b9392505050565b5f805f805f805f60e0888a031215610875575f80fd5b61087e886107ab565b965061088c602089016107ab565b95506040880135945060608801359350608088013560ff811681146108af575f80fd5b9699959850939692959460a0840135945060c09093013592915050565b5f80604083850312156108dd575f80fd5b6108e6836107ab565b91506108f4602084016107ab565b9050925092905056feddf252ad1be2c89b69c2b068fc378daa952ba7f163c4a11628f55a4df523b3efa164736f6c634300081a000a",
    "linkReferences": {}
  },
  "methodIdentifiers": {
    "DOMAIN_SEPARATOR()": "3644e515",
    "allowance(address,address)": "dd62ed3e",
    "approve(address,uint256)": "095ea7b3",
    "balanceOf(address)": "70a08231",
    "decimals()": "313ce567",
    "deposit()": "d0e30db0",
    "name()": "06fdde03",
    "nonces(address)": "7ecebe00",
    "permit(address,address,uint256,uint256,uint8,bytes32,bytes32)": "d505accf",
    "symbol()": "95d89b41",
    "totalSupply()": "18160ddd",
    "transfer(address,uint256)": "a9059cbb",
    "transferFrom(address,address,uint256)": "23b872dd",
    "withdraw(uint256)": "2e1a7d4d"
  },
  "id": 128
}